:020000040000FA
:1000000048940310C1000000DD000000C1020000A0
:10001000C1020000C1020000C10200000000000097
:1000200000000000000000000000000009020000C5
:10003000E3000000000000005D020000A5BA02001D
:10004000E3000000E300000011870200E30000006D
:10005000E3000000E30000001DBA02003BBA02000A
:1000600059BA020077BA0200E3000000E300000082
:10007000FD870200D587020019BC0200D9BA020030
:1000800081860200E3000000E300000095BA020050
:10009000E3000000E3000000E3000000E3000000D4
:1000A000E3000000E3000000E3000000E3000000C4
:1000B000E3000000E3000000E3000000E3000000B4
:1000C0004EF68850CEF20000016841F470010160E4
:1000D000BFF34F8FBFF36F8F02480047FEE7FEE785
:1000E000FEE7FEE7E900000000F002F800F07CF80F
:1000F0000AA090E8000C82448344AAF10107DA4583
:1001000001D100F071F8AFF2090EBAE80F0013F058
:10011000010F18BFFB1A43F00103184728020D0016
:1001200048020D0010F8013B0A4413F0030408BF15
:1001300010F8014B1D1108BF10F8015B641E05D0BB
:1001400010F8016B641E01F8016BF9D1002D15D078
:1001500010F8014B03F00C030C2BA1EB04040ABFB5
:1001600010F8013BA4EB8314A4EB032405F1010375
:1001700014F8016B5B1E01F8016BF9D5914238BF91
:1001800010F8013BD1D3704700230024002500263E
:10019000103A28BF78C1FBD8520728BF30C148BFEA
:1001A0000B607047662913F0B38A642906F0B681A4
:1001B000782906F01A82732907F04B8200207047D5
:1001C0001FB593F0EAF907F027FB04000020002197
:1001D00092F00EFA401C60600020002192F0F2F9CB
:1001E000E0601FBD10B510BD07F0D1FD1146FFF74F
:1001F000E7FF82F007FB07F0F7FD03B4FFF7F2FF1C
:1002000003BC07F0F7FD00002A4B19680868B0E846
:10021000F04F80F30988BFF36F8F4FF0000080F339
:10022000118870470000000006480068006880F3ED
:10023000088862B661B6BFF34F8FBFF36F8F00DFE0
:1002400000BF00BF08ED00E0DFF80C00016841F4DA
:1002500070010160704700BF88ED00E0EFF3098096
:10026000BFF36F8F134B1A681EF0100F08BF20EDFD
:10027000108A20E9F04F106008B44FF0800080F33E
:100280001188BFF34F8FBFF36F8F90F065FA4FF077
:10029000000080F3118808BC19680868B0E8F04FC6
:1002A0001EF0100F08BFB0EC108A80F30988BFF36E
:1002B0006F8F704700210010EFF30580704700003A
:1002C00080B5684608302BF0F7FC01BD800040186F
:1002D00000687047EFF3108062B67047EFF310804C
:1002E00072B6704780F310887047000032B1074A39
:1002F000136813F48053FBD008607047034A1368F7
:1003000013F48053FBD10860704700BF84000140A4
:1003100002480349014A034B70470000487103102B
:10032000489403104871031000EB800110B5FE489B
:1003300000EB41147121204606F0A0FD47F6FF7046
:10034000E08020816081A081E0812082A4F86600A5
:100350004FF48070A4F8680010BDF44910B581F81E
:1003600034000020FFF7E0FF0120FFF7DDFF02204F
:10037000FFF7DAFFEE4800241121C0F89542C0F8DB
:100380009942A0F89D4280F89F4200F5217006F046
:1003900075FDE84847F6FF714FF480720472A0F2D1
:1003A000F110A0F86610A0F86820A0F80611A0F8D7
:1003B0000821A0F8A611A0F8A8214942A0F86410CD
:1003C000A0F80411A0F8A41110BDD8480021FF2204
:1003D000A0F87410A0F87610A0F87810C273827399
:1003E000A0F85C10A0F85E10A0F86010A0F86210F1
:1003F000A0F86610A0F86C10A0F86A100523C3746A
:100400004274417581740175A0F87010704710B581
:10041000FFF7A3FFC448C849A0F89210A0F8321112
:10042000A0F8D211490CA0F89410A0F83411A0F84B
:10043000D41100F5FE7021F050FDFFF7C6FFBB4957
:100440000020487310BD2DE9F84FB8484FF0000C5C
:100450006346017B6746491CC9B201731A2938BF3C
:10046000BDE8F88F0021B1480173B249C87800286F
:100470001CBF401EC8700920DFF8C0A20AF1280680
:10048000A6F11E090AEB000111F8015C09EB00015D
:100490000AF8005011F8012C09F800204C7A8C72EF
:1004A00091F8138081F81480311811F801EC06F8E6
:1004B00000E091F809B081F80AB0CA7C0A7505EB32
:1004C0000C0101F0FF0CA4F164013D2902D2B8F146
:1004D0007D0F02D9591CCBB208E00BEB4B01B1EBFD
:1004E0004E0F3EBFB1EB420F791CCFB2401E002829
:1004F000C8DC8D480278002A1CBF90F8A0100029A3
:1005000006D090F84041002C1CBF1144214400D17A
:1005100000218AF80010B0F803E0BEF5007F2CBF80
:10052000FF214FEA5E01CDB23570B0F8A310B1F5EE
:10053000007F2CBFFF214908CCB2B472B0F8431140
:10054000B1F5007F2CBFFF214908C9B2317590F881
:10055000852089F8002090F8252189F80A2090F854
:10056000C581A2F1640689F814803D2E02D2B8F14B
:100570007D0F02D9591CCBB208E004EB4404B4EB64
:10058000450F3EBFB4EB410F791CCFB29AF8001073
:10059000012B6144C9B288BF00216348DFF88CA1F8
:1005A000B0F99230B0F93251B0F9D2B12B44B0F970
:1005B00094C05B44A3EB0C03B0F934C1B0F9D491FF
:1005C000A3EB0C03A3EB09004030C31700EB53600F
:1005D000C0F3CF140AF5B470AAF880404379C3B1D0
:1005E000052C16D300234371012686714E48B0F8BE
:1005F0009A60A0F86660B0F83A61A0F80661B0F8B9
:10060000DA61A0F8A66180F8703080F8103180F8C7
:10061000B0314548B0F99430B0F99200C31A484857
:100620001E2CC67938BF002100202CBF14290A2CAB
:1006300004D2B3F5C07FC8BF502019DC1E2914D2E4
:100640009EB1062C09D9462C07D2BEF1060F04D95B
:10065000BEF1280F38BF64200AD3822E05D9502C52
:1006600003D20A2C88BFC82002D80A2F08BFD22084
:1006700000278AF837709AF80BE0BEF1000F07D018
:10068000C8281FD2AEF101008AF80B00002001E05B
:10069000C82817D2B5F5945F10DC1CF5985F0DDB08
:1006A000B8F1780F0AD8693A382A0BD3A5EB0C02B7
:1006B0009A42C4BFABEB09039A4203DD0020052236
:1006C0008AF80B200844C1B217488AF83610002572
:1006D000B0F89620A0F89220A0F894200770B0F807
:1006E0003621A0F83221A0F8342180F8A070B0F8AB
:1006F000D621A0F8D221A0F8D42180F840710B486F
:100700003C29807B37D99AF81510FF293CBF491C3A
:100710008AF815108AF81670C9B20A293AD1BAF8BF
:100720006610AAF86C100DE01C630310B0210010D5
:10073000786203100D6503100180FFFF1865031038
:1007400018230010AAF86670AAF86A708AF80F00D9
:1007500004208AF80E0001208AF81200AAF87470AA
:10076000AAF87670AAF87870AAF85E70AAF85C7099
:10077000AAF8607012E014290CD2042807D19AF864
:100780001600401CC0B28AF81600052802D98AF863
:10079000157005E09AF815000A2801D304250EE02B
:1007A000A52C03D88C2E88BF4B2C01D9022506E03E
:1007B000192C03D8502E88BF0F2C00D90125DFF843
:1007C0004484B32208F10101404606F074FAD6468B
:1007D000C4F3470A88F8B3A09EF81400B4283CBFBD
:1007E000401C8EF814007DD398F8000098F8013072
:1007F0000021C1465FF0590219F802CF184499F858
:1008000001306144521EF7D10844FF4B0AEB00014E
:100810001A460020E1FB032080094FF6FF714FF0DC
:10082000000C01EA4001AEF882100091E146E34677
:10083000634662465FF0B30118F801A0824507D90C
:100840005B1CD444491E1FFA8CFCDBB29629F3DCF6
:100850005FF0B30118F801A0824507D2521CD144C1
:10086000491E1FFA89F9D2B29629F3DCDFF89C837E
:10087000052B0BD3BCFBF3F1C0EB0013DB00A8FB93
:1008800003C35B09994288BF4FF0010B0A2A09D3C1
:10089000B9FBF2F101EB81114900A8FB01214909E3
:1008A000814205D3BBF1000F08BFAEF872700AD0C9
:1008B000BEF87200401C80B2AEF872003C2888BFBF
:1008C000AEF8707005D8BEF870104FF6FF70884211
:1008D00004D9BEF87000401CAEF870009EF80E00FF
:1008E000012800E011E008BF022D0ED1C849C4EB79
:1008F000C400A1FB00104FEAD0010098814238BF2C
:10090000B42C02D28C2E38BF0125BEF864104FF6ED
:10091000FF7081423CBF491CAEF86410BEF86A10FB
:1009200081423CBF491CAEF86A10BEF86610814295
:100930003CBF481CAEF86600FF23B648022DB0F855
:100940006E20017C03D0012D4ED095B300E1BEF89E
:100950007400401C80B2AEF87400AEF87670AEF849
:1009600078700F286FD33DD19EF80E00022839D041
:10097000BEF86AC0BCF1140F1CD29EF80FC0BCF1C7
:10098000020F06D0AEF86A70AEF866708EF81130BD
:1009900028E0BEF86630BEF86CC06344AEF866303E
:1009A000AEF86C208EF80F108EF81100AEF86A3099
:1009B00018E075E09EF80F108EF81010BEF86C105D
:1009C000AEF86E10BEF86610AEF86C10AEF8667039
:1009D0008EF811308EF80F0001208EF812000520DD
:1009E000AEF86A00022058E0BEF87600401C80B2E3
:1009F000AEF87600AEF87470AEF87870052822D3A1
:100A00004AD19EF80E00012846D0022818BF0428BB
:100A100008D1BEF866C0BCF1140F84BFAEF8647094
:100A2000AEF868C0BEF86AC0BCF1140F1CD29EF8C4
:100A30000FC0BCF1010F07D0AEF86A70AEF8667057
:100A40008EF8113028E083E0BEF86630BEF86CC046
:100A50006344AEF86630AEF86C208EF80F108EF856
:100A60001100AEF86A3017E09EF80F108EF81010E3
:100A7000BEF86C10AEF86E10BEF86610AEF86C10D2
:100A8000AEF866708EF811308EF80F0001208EF8E7
:100A900012000520AEF86A0001208EF80E0057E023
:100AA000BEF87800401C80B2AEF87800AEF87670E0
:100AB000AEF8747005284BD348D19EF80E0060B391
:100AC000022818BF042808D1BEF866C0BCF1140F74
:100AD00084BFAEF86470AEF868C0BEF86AC0BCF1FE
:100AE000140F1BD29EF80FC0BCF1000F06D0AEF859
:100AF0006A70AEF866708EF8113027E0BEF8663086
:100B0000BEF86CC06344AEF86630AEF86C208EF868
:100B10000F108EF81100AEF86A3017E09EF80F1033
:100B20008EF81010BEF86C10AEF86E10BEF866109D
:100B3000AEF86C10AEF866708EF811308EF80F00BB
:100B400001208EF812000520AEF86A008EF80E70B3
:100B50009EF81200012808BFAEF87070BDE8F88F4B
:100B600000EB80012DE9F04F002786B02A482B4B7F
:100B7000039700EB411002971B7890F86C103E46EB
:100B80003A46BA46B946B846002B18BF052984BF75
:100B90000521002304D8002918BF00231CD018DD2C
:100BA00000EB030C9CF84E409CF846C03444BC4417
:100BB0000CF0FF0700EB430CE6B2BCF82640BCF893
:100BC00036C064458CBF2244624492B25B1C8B42A7
:100BD000E6DBB2FBF1F20392FF2280F86E2080F890
:100BE0006F200023A0F80330427180F86D3001932C
:100BF000009390F861200592342A80F0F080032958
:100C00000EE000005E6503105BB0055B1F85EB51D5
:100C1000CDCCCCCCB02100101C6303100D650310AB
:100C200040F2DD80002200297EDD00BF00EB020CD7
:100C30009CF84630052B04D890F86D305B1C80F88A
:100C40006D309CF84E30052B04D890F86D305B1C4D
:100C500080F86D30002A66DD00EB4203B3F91450D2
:100C6000B3F91640AC42D4BF2C1B641B642504FBB3
:100C700005FB9D8C9C8E05EB040E4FEA5E0E9BFBE4
:100C8000FEFBCDF810E0B3F904B0B3F906E0F3458C
:100C9000ACBFABEB0E0BAEEB0B0B4FF0640E0BFBD4
:100CA0000EFEDDF810B09EFBFBFBB3F826B05D45F1
:100CB0002CBFA5EB0B0BABEB050B4FF0640E0BFB46
:100CC0000EFB9BFBF5FB029D5D44ADB20295DB8EF6
:100CD0009C422CBFE31A1B1B64256B4393FBF4F36C
:100CE00053441FFA83FA9CF845309CF84640A342CF
:100CF0002CBF1C1BE41A642514FB05F494FBF3F4CD
:100D00004C441FFA84F99CF84E40A3422CBF1B1B95
:100D1000E31A642413FB04F39CF84DC093FBFCF32B
:100D200043441FFA83F800E021E012F0010F1AD1CA
:100D300000EB4203DC8CB3F828C004EBC4050CEBD9
:100D40008C03B5EB430F03D9019B5B1CDBB2019312
:100D50000CEBCC0304EB840CB3EB4C0F03D9009BDE
:100D60005B1CDBB20093521C8A42FFF65FAF029A13
:100D70006FF00103524403EB410392FBF3FCBCF11F
:100D8000FE0FCCBFFE2292FBF3F280F86E2009EB3F
:100D9000080292FBF3FCBCF1FE0FCCBFFE2292FBDB
:100DA000F3F2D2B280F86F20039BA0F80330BB1996
:100DB0000B444900B3FBF1F141710199032924BFB0
:100DC0000099002906D00099032924BF0199002920
:100DD00002D004E0282A02D2002180F86E10427965
:100DE0000599B1EB420F9CBF06B0BDE8F08FFF2123
:100DF00041710022A0F8032080F86E1080F86F1077
:100E000006B0BDE8F08F2DE9F04F04462DED028BC2
:100E100097B01E4615460F460020FFF7A1FE0120A1
:100E2000FFF79EFE0220FFF79BFE00202080A070AF
:100E30002880A8703880B870DFF870B63080B07045
:100E40009BF86F209BF80F0102234FF0010C8242A8
:100E50009CBF9BF8AF118A420DD8002020709BF8F0
:100E60000F019BF8AF1181428CBF84F801C0637001
:100E70002CD9A3702CE090429CBF9BF8AF11884204
:100E80000FD884F800C09BF86F009BF8AF11884220
:100E900088BF63704FF0000094BF6070A07017D8D7
:100EA000E7E79BF8AF11814298BF914210D82370B9
:100EB0009BF86F009BF80F11884288BF84F801C02F
:100EC0004FF0000094BF6070A07001D884F802C099
:100ED0009BF86E009BF80E1188429CBF9BF8AE21D8
:100EE00090420DD8002038709BF80E019BF8AE118F
:100EF00081428CBF87F801C07B702CD9BB702CE07D
:100F000081429CBF9BF8AE2191420FD887F800C068
:100F10009BF86E009BF8AE11884288BF7B704FF043
:100F2000000094BF7870B87017D8E7E79BF8AE213F
:100F30008A4298BF824210D83B709BF86E009BF8A3
:100F40000E11884288BF87F801C04FF0000094BF9F
:100F50007870B87001D887F802C09BF805009BF83C
:100F6000A51088429CBF9BF8452190420DD80020D7
:100F700028709BF8A5009BF8451181422CBF85F88D
:100F800001C06B702CD3AB702CE081429CBF9BF8EE
:100F9000452191420FD885F800C09BF805009BF8C9
:100FA0004511884288BF6B704FF0000094BF687095
:100FB000A87017D8E7E79BF845218A4298BF82427C
:100FC00010D82B709BF805009BF8A510884288BFAD
:100FD00085F801C04FF0000094BF6870A87001D878
:100FE00085F802C0BBF80310BBF8A320914224BFD0
:100FF000BBF8430181420DD300203070BBF8A30041
:10100000BBF84311814294BF86F801C073702AD89F
:10101000B3702AE08A4224BFBBF8430182420ED358
:1010200086F800C0BBF80300BBF84311884238BF04
:10103000737000202CBF7070B07016D3E8E7BBF857
:101040004301904228BF88420FD33370BBF803009E
:10105000BBF8A310884238BF86F801C000202CBF1F
:101060007070B07001D386F802C000201290307802
:1010700000EB80000BEB4010B0F803505A2D2FD23C
:10108000BBF9DA1111F5606FD4BF01210321129170
:101090000A2D08D290F86E10502904D990F86B00F0
:1010A000072880F0AC82207840F2DC5700EB80000B
:1010B0000BEB401090F86F80FD49B8F1140F19D96F
:1010C0009BF87220002A1FBF9BF81221002A9BF870
:1010D000B221002A04BF0020087100F090821AE0BB
:1010E0009BF80F01282827BF9BF86F0028280620AF
:1010F0001290D8E790F86B20072A0CD34179B7FB00
:10110000F1F1962940F28682B0F803001E2880F0A3
:10111000818200F074BAE649062291F9041001298F
:10112000D8BFE34918DDBBF9DA0110F5606F00F3B1
:101130003F81BBF93A0110F5106FC4BFBBF99A00AB
:1011400010F5106F40F33481D948002181710121DD
:101150001291C27000F02CB91AD1BBF9DA0110F566
:10116000106F40F32581BBF93A0100F53860B0F506
:10117000B45F40F21D818879401CC0B28871032899
:101180003DBF01201290CA70002028BF88710FE176
:10119000B8F1320F84BF90F86E10322912D96178FD
:1011A00001EB81010BEB411191F86B10042909D27D
:1011B000A17801EB81010BEB411191F86B1004292F
:1011C000C0F01D82B0F803100A2908D290F86B1005
:1011D000072924BF90F86E00502800F210820020EA
:1011E00002909BF86C900146024604460DF10808F7
:1011F000B9F1040F24BF8DF8084001209BF84690F8
:10120000B9F11E0F9CBF9BF84790B9F11E0F09D88A
:101210009BF84E90B9F11E0F9CBF9BF84F90B9F10F
:101220001E0F00D90121BBF80390B9F1140F0BD2A6
:101230009BF80590B7FBF9F9B9F1960F82BF9BF8BF
:101240006B90B9F1070F01229BF80C91B9F1040FD3
:1012500024BF08F800C0401C9BF8E6C0BCF11E0F7C
:101260009CBF9BF8E7C0BCF11E0F09D89BF8EEC0ED
:10127000BCF11E0F9CBF9BF8EFC0BCF11E0F00D944
:10128000491CBBF8A3C0BCF1140F0BD29BF8A5C03E
:10129000B7FBFCFCBCF1960F82BF9BF80BC1BCF105
:1012A000070F521C9BF8ACC1BCF1040F24BF08F817
:1012B0000030401C9BF886311E2B9CBF9BF8873169
:1012C0001E2B07D89BF88E311E2B9CBF9BF88F31AD
:1012D0001E2B00D9491CBBF84331142B09D29BF8B3
:1012E0004531B7FBF3F3962B82BF9BF8AB31072B4D
:1012F000521C032901D11E2D01D3012A07D98BF8D5
:101300006B408BF80B418BF8AB4100F078B90328A8
:1013100004D0022823D001283DD049E09BF86F007B
:10132000322881BF9BF80F1132299BF8AF11322967
:1013300000F265819BF86E100844502838D99BF85C
:101340000F019BF80E110844502831D99BF8AF01CA
:101350009BF8AE11084450282AD900F050B99DF8E6
:10136000080000EB80000BEB401090F86F1090F835
:101370006E00084450281BD99DF8090000EB80003E
:101380000BEB401090F86F1090F86E000844502856
:101390000ED900F034B99DF8080000EB80000BEB8B
:1013A000401090F86F1090F86E00084450287CD8D8
:1013B00000209BF872909BF812419BF8B2514FF0BD
:1013C000FF0A0E900F90D04657460D90139003469B
:1013D0004FF0010C0A90354800EB0C0191F81221F6
:1013E00091F8720002F1010B584517D9DDF83CE085
:1013F000BEF1000F08BF4FF0010E1FD0BEF1020F6B
:101400002BD14FF0010ECDF83CE0DDF838E00EF1C5
:10141000010E0EF0FF0ECDF838E01EE000F1010ED7
:1014200072451AD9DDF83CE0BEF1000F08BF4FF05D
:10143000020E03D0BEF1010F03D00EE0CDF83CE068
:101440000BE04FF0020ECDF83CE0DDF838E00EF195
:10145000010E0EF0FF0ECDF838E091F8B21101F157
:10146000010ECDF81CE070450FD9002B08BF0123F9
:1014700024D0022B22D1DDF834E001230EF1010E3D
:101480000EF0FF0ECDF834E018E000F1010E8E45AD
:1014900014D2002B08BF022310D0012B0ED1DDF88F
:1014A00034E002230EF1010E04E0A8E01C630310F7
:1014B0000D6503100EF0FF0ECDF834E0594517D935
:1014C000DDF828B0BBF1000F08BF4FF0010B1FD0B3
:1014D000BBF1020F2BD14FF0010BCDF828B0DDF896
:1014E0004CB00BF1010B0BF0FF0BCDF84CB01EE034
:1014F000DDF81CB05A451AD9DDF828B0BBF1000F51
:1015000008BF4FF0020B03D0BBF1010F03D00EE078
:10151000CDF828B00BE04FF0020BCDF828B0DDF885
:101520004CB00BF1010B0BF0FF0BCDF84CB0484564
:1015300088BF8146A24288BF1446A94288BF0D4693
:10154000504538BF8246424538BF9046B94238BF01
:101550000F460CF1010CBCF1140FFFF63CAFA9EBE8
:101560000A001490C0B20A90A4EB0800C0B20C901C
:10157000FF4AE81B00F0FF0BB2F803000021B0F5B2
:10158000007F2CBFFF204008C0B20690B2F8A30035
:10159000B0F5007F2CBFFF204008C0B20990B2F820
:1015A0004301B0F5007F2CBFFF204008C0B20F9070
:1015B00092F84600192882BF92F84E30192BC118B4
:1015C00092F8E6C0BCF1190F81BF92F8EE30192BEA
:1015D0006344194492F88631192B81BF92F88EC169
:1015E000BCF1190F63441944E1290ED9002082F897
:1015F0006B00E04982F80B0182F8AB01C870002053
:1016000017B0BDEC028BBDE8F08FDA49C9789FEDC9
:10161000DA8B09B11298F3E700211091049191F04F
:10162000FFFA53EC182B91F08FFC09D3D04890F8B7
:101630004E0091F0F5FA53EC182B91F085FC01D295
:1016400001201090CA484AF6AB22B0F8031051436B
:101650004A0CC18C8A4284BF038D9A4204D9192B4B
:101660003EBF192901210491C14890F8E60091F08C
:10167000D7FA53EC182B91F067FC09D3BC4890F8CB
:10168000EE0091F0CDFA53EC182B91F05DFC02D2F4
:101690001098401C1090B6484AF6AB22B0F8A31040
:1016A00051434A0CB0F8C6108A4284BFB0F8C83023
:1016B0009A4206D9192B38BF192902D20499491C1C
:1016C0000491AB4890F8860191F0AAFA53EC182BDC
:1016D00091F03AFC09D3A64890F88E0191F0A0FA57
:1016E00053EC182B91F030FC02D21098401C109053
:1016F0009F494AF6AB22B1F843015043430CB1F87D
:101700006601834284BFB1F86821934206D9192A41
:1017100038BF192802D20498401C0490109802285F
:101720000BD3049848B1002081F86B0081F80B01BD
:1017300081F8AB018F49C87061E748464C4588BFC6
:101740002046C2458CBFA0EB0800A0EB0A00C2B245
:10175000A54288BF2C46B8458CBFE01BA4EB08000F
:10176000C0B2BA458CBFA9EB0703149BDBB2DDF80E
:1017700018C0BCEB420F99BFDDF824C0BCEB420F90
:1017800000220E92069AB2EB430F99BF099AB2EB70
:10179000430F00220D92099AB2EB400F99BF069AAF
:1017A000B2EB400F002013900A98BBEB400F84BFB0
:1017B0000C98BBEB400F04D9BBF1140F84BF002081
:1017C00012900C9A0A98104458441E2803D2002004
:1017D0000E900D901390069A0A98B0EB420F06D91E
:1017E000002A1CBF0A98142884BF00201290099870
:1017F00000EB40020C98904207D9099800281CBFC2
:101800000C98142884BF002012900F98834506D9A5
:10181000002818BFBBF1140F84BF0020129030784D
:1018200003280BD10F981E2884BF91F8AF012828F8
:1018300004D9BBF11E0F84BF00201290DDE90D20FA
:1018400002441398C2421CBF0020129000204A7923
:10185000002A08BF012091F8A520002A08BF401CDB
:1018600091F84511002908BF401C012884BF0020C1
:101870001290CFE62DE9F04FDFF8F8900346494685
:101880000024487899F800C0401CC2B291F90810B1
:10189000DFF8EC800126A9F1110795B02546204616
:1018A000A7F5F07ABCF1000F08D089F801201A2AB8
:1018B00080F0938115B00020BDE8F08FDFF8C4C040
:1018C0009CF807C0BCF1000F0FD097F810C00CF1C6
:1018D000010C0CF0FF0C87F810C0BCF1820F04D98A
:1018E000DFF8A0C08CF80700F87399F802C0052A49
:1018F0006344DBB289F8023089F80120DAD389F831
:101900000100002BD6D0002089F8020018489AF870
:101910006B3090F80B2190F8AB01082B3CBF082AE4
:101920000828C0F00983002B1CBF002A002809D01A
:1019300089F804100AAB0BAA0CA912A8FFF763FAE6
:1019400089F8080099F908001390002840F3F48200
:101950009DF82C1001EB81000AEB4012B2F8030055
:1019600000EB40039DF8280000EB800C0CE0000029
:101970001C6303100D6503100000000000C042400E
:10198000B0210010182300100AEB4C1CBCF803C057
:10199000B3EB4C0F84BF481C89F8000014D852796F
:1019A00002EB420293009DF82D2002EB82020AEB2B
:1019B0004212527902EB8202B3EB420F38BF481C4D
:1019C00040F1000089F80000C0B200EB80000AEB93
:1019D0004010514610F8350C082814D291F86B00CD
:1019E000082808BF89F800600DD091F80B0108287D
:1019F00008BF022005D091F8AB01082808BF0320DA
:101A000001D189F80000FE4843880380C27A8272BF
:101A1000B0F804C0A0F802C0634490F80CC080F88D
:101A20000BC09444C28882801344427B0273944466
:101A30000289C2801A4492B20192827B427302EB05
:101A40000C00C0B20090EF48027802EB820001EB7C
:101A5000401A1AF8353C082B84BF0823002002D80E
:101A60000020002B7EDDDFF8A0C3A2F1010B0BF0FC
:101A7000FF029CF81AC002EB820201EB421200BF87
:101A80000AEB000616F85A9CB9F1000F78D00BF05B
:101A9000FF0E0127C6B24FF00208BEF1010F08BFCA
:101AA000002704D0BEF1020F08BF4FF00008B2F8C3
:101AB00003E0BEF15A0F1AD307EB870701EB471774
:101AC00092F805E07F790EEB8E0EC7EB0717B7EBA8
:101AD0004E0F0CD308EB880701EB47177F79C7EB54
:101AE0000717B7EB4E0F28BF4FF0000E01D24FF093
:101AF000010E971902EB460697F84670F68C4FF0E8
:101B00000108072F38BF1E2E07D2BCF1000F04BFFB
:101B10004FF0010C4FF000082ED04FF0000CBEF13A
:101B2000000F08BF4FF0010826D00B2F88BFC82E2A
:101B300003D900BF4FF002081EE00C2F88BFB42E5F
:101B4000F8D80D2F88BFA02EF4D80E2F88BF782E7E
:101B5000F0D80F2F88BF502EECD8112F01D9282E86
:101B6000E8D201E013E00BE0142F01D9142EE1D2EA
:101B7000172F01D9142EDDD344444D44E4B2EDB205
:101B8000401C9842FFF67CAF9F4880F81AC09C48E2
:101B900005818473C27B052A3CBF521CC2730AD3E1
:101BA00000984FF4C3622044424301982844B2FB9A
:101BB000F0F0964AD07134B1002081F86B0081F8C2
:101BC0000B0181F8AB0113998E48062907BFFF214D
:101BD000C171C471002400F0AFB9002089F8010080
:101BE00089F804100AAB0BAA0CA912A8FFF70BF98D
:101BF00089F8080000287DD082489DF82C100078D4
:101C0000401EC0B2814214D000EB80000AEB4010AD
:101C100001EB81020AEB42124079527900EB80001D
:101C2000400002EB4202B0EB820F94BF9DF8280007
:101C30000846B8F8801050297DD99DF8281001EB8E
:101C400081020AEB421292F86F30142B3CBF92F8DB
:101C50006E20322A0DD39DF8291001EB81020AEB88
:101C6000421292F86F30142B3CBF92F86E20322A49
:101C700000D2084600EB80020AEB4212514692F86D
:101C80006BA0BAF1000F1CBF92F86130192B7DD206
:101C90005B4BB3F802C0A3F800C0DF7A9F72B3F8C1
:101CA0000490A3F80290CC4493F80C9083F80B9026
:101CB0004F44B3F80690A3F80490CC4493F80D90E9
:101CC00083F80C904F44B3F80890A3F80690CC44E6
:101CD0001FFA8CFCCDF804C093F80EC083F80DC039
:101CE0000CEB0703DBB200270093BAF1000F7DDD98
:101CF000454B00E05BE093F81A80B2F803B000BFF8
:101D0000022307F0FF094FF0010C012808BF4FF034
:101D1000000C02D0022808BF0023BBF15A0F1DD3CC
:101D20000CEB8C0C01EB4C1C92F805E09CF805C008
:101D3000CCEB0C1C00E047E00EEB8E0EBCEB4E0F24
:101D40000CD303EB830301EB43135B79C3EB031366
:101D5000B3EB4E0F28BF4FF0000E00D2B64602EB99
:101D6000090302EB490993F84630B9F826904FF081
:101D7000010C072B38BFB9F11E0F09D2B8F1000FC3
:101D800004BF4FF001084FF0000C00E0A5E077D051
:101D90004FF00008BEF1000F08BFB44670D00B2B07
:101DA00088BFB9F1C80F48D94FF0020C68E0002095
:101DB000387489F8000089F807008AF86B008AF8FF
:101DC0000B018AF8AB01B7E09DF8302002EB8201ED
:101DD0000AEB411191F86E308BB99DF8483091F8BB
:101DE0006F1003EB83030AEB431300E057E093F813
:101DF0006F30B1EB430F38BF1046FFF43BAF07E045
:101E0000FC6403100D650310B021001018230010AE
:101E100000EB80010AEB411191F86F209DF848100A
:101E200001EB81030AEB431393F86F30B2EB430FDE
:101E300088BF142A7FF61EAF1BE70C2B88BFB9F1B1
:101E4000B40FB1D80D2B88BFB9F1A00FACD80E2BB1
:101E500088BFB9F1780FA7D80F2B88BFB9F1500F01
:101E6000A2D8112B02D9B9F1280F9DD2142B02D977
:101E7000B9F1140F98D2172B02D9B9F1140F93D3DB
:101E80000CEB0403DCB2D3197F1C93F84630BA453F
:101E90002B44DDB23FF734AFFD4A82F81A80FD4A89
:101EA00015819473D37B052B3CBF5B1CD3730AD382
:101EB000009A4FF4C36322445343019A2A44B3FB6C
:101EC000F2F3F54AD371002281F86B20F34B81F8CD
:101ED0000B2181F8AB215A7210E0F04B5A7A012A9B
:101EE0000BD100223A741A70DA711A725A7281F8A0
:101EF0006B2081F80B2181F8AB215E72E74AD37920
:101F0000FF2B17D29DF828C00CEB8C0C01EB4C1169
:101F1000B1F803105A2903EB040108D2C9B2002416
:101F2000D1710C2906D30C46FF21D17102E0CCB24D
:101F3000FF21D171401C107015B02046BDE8F08F14
:101F40002DE9F047D64E074600EB8700A6F11801B1
:101F500006EB401431F93700A4F89600B4F9942048
:101F60004FF000098242D8BF1046A4F89400B4F99B
:101F70009220B4F996008242C8BF1046A4F892009D
:101F8000B4F99800B4F9962000254FF0010890426A
:101F900005DA6078002808BF84F801800BE00ADDCC
:101FA0006078012807D16570A078042802D22078D3
:101FB000401C2070A570A078401CA070B4F896005A
:101FC000A4F89800B448407901287CD001EBC70000
:101FD00031F93720B0F902101144B0F90420B0F9FA
:101FE000060010440844801CC11700EB917080105B
:101FF000A4F89A00D4F88A00C4F88E00D4F88600B9
:10200000C4F88A00B4F89C10ED2211FB02F1B4F977
:102010009A2002EB8203C3EB821201EB4201B4F976
:102020009E2002EB8203C3EB821201EB420147F2D6
:10203000A742504301EB4000D4F88E10994A514317
:1020400000EBC100C11700EB5140C013C4F886007B
:1020500094F87100002818BF401E4FD084F871001A
:1020600094F86A004FF4807A70B1401EC0B284F8D0
:102070006A00B4F8681048438B49A1FB001080083F
:1020800000F580700FFA80FA94F86200401C84F822
:10209000620094F86100401C84F8610094F87000BC
:1020A000401C84F8700094F8600000281CBF401C9D
:1020B00084F8600094F85F0050B1401CC0B284F80E
:1020C0005F004E2800E00FE084BF3846FEF72CF991
:1020D000B4F99C10B4F99A004FF48073814245DA48
:1020E00094F85E1099B304E131F83700A4F89A002F
:1020F000A4F89C004FF00000BDE8F087D4F873000E
:10210000C4F87200D4F87700C4F87600D4F87B00E5
:10211000C4F87A00D4F87F00C4F87E00B4F88300D5
:10212000A4F8820094F8850084F88400D4F886002E
:1021300000F140004FEAE07100EB51604FF0800188
:1021400001EBE01084F885004FF0040086E7FFE71C
:10215000B4F96610514488427EDB84F85E8048F210
:102160000100A4F8640084F87050C2E075DD94F8B2
:102170005E10012971D1B4F96410A1EB0A01884203
:102180006CDC84F85E5084F8705094F8620094F827
:10219000611047F6FF7C401A84F86300B4F96400CC
:1021A000B4F96610401A5045A8BF07206FDB00BF86
:1021B00004EB40018A8ACA828A88CA802218401E9B
:1021C00092F845A082F846A092F84DA082F84EA061
:1021D000B1F824A0A1F826A0B1F834A0A1F836A047
:1021E00092F8551082F856100028E1DC84F87050FF
:1021F000B4F86400E082B4F86600E080022F0BD1EE
:1022000096F8610086F8560096F8010186F8F60007
:1022100096F8A10186F89601B4F90800604533DA12
:10222000B4F91800B4F90610401AC11700EB916018
:102230008009E08694F85F0094F86110401A84F8F1
:102240004600B4F96400B4F96610401AC11700EBF7
:1022500091608009E08402E060E047E049E094F8A2
:10226000600094F86210401A84F84E0094F86B00F5
:10227000401C84F86B0094F86C0008283CBF401C9C
:1022800084F86C004FF0010994F862000EE02BE036
:10229000B0210010FC640310182300100D6503101A
:1022A0001C6303109BF2FFFF4FECC44E84F86000E8
:1022B00094F8610084F85F00B4F96400B4F9661022
:1022C000401AFE4981FB00104110A1EBE07080B282
:1022D000A4F86800B0F5807F87BF0D2084F86A00FD
:1022E00084F86A50A4F86830A4F866C094F85E00D8
:1022F000A0B1B4F99A00B4F964108142DCBFA4F82B
:10230000640084F86180B4F89C00A4F89E00B4F8DE
:102310009A00A4F89C004846BDE8F087B4F99A00FA
:10232000B4F966108142A4BFA4F8660084F8628004
:1023300094F85F001A2888BFA4F86830E3E770B506
:10234000DF49E04C8A88CA808A89CA818A8ACA821F
:102350004A888A804A898A814A8A8A820A884A8087
:102360000A894A810A8A4A8202880A8042880A8146
:1023700082880A8294F83420082A41D2DFE802F0E9
:10238000040B141C242B323842880A8002880A81EC
:102390008088404233E0428852420A80028852429A
:1023A0000A81808840422AE0028852420A8042889C
:1023B0000A818088404222E002880A804288524294
:1023C0000A81808840421AE0428852420A8002888C
:1023D0000A81808813E042880A80028852420A817A
:1023E00080880CE002880A8042880A81808806E0A2
:1023F000028852420A80428852420A8180880882BA
:102400000020FFF79DFD05460120FFF799FD0544DB
:102410000220FFF795FD2844C0B2FFF72BFA0646CD
:10242000FEF711F8A84D6879E8B994F83500FF284F
:102430003CBF401C84F83500A44890F87010272950
:1024400081BF90F81011272990F8B00127280AD9E8
:1024500094F83400FDF781FF0020E87184F835001E
:1024600001206871A871002E08BF70BD2868304433
:10247000286028793044287170BD924890F8360061
:1024800070479048B0F8800070478E4890F835103B
:1024900032299BBFB0F880006428012000207047DB
:1024A000884890F8350070478648807B70472DE952
:1024B000F04FDFF8109206462DED108B0027ADF59A
:1024C000037D3D4699F81700DFED818A9FED818AF3
:1024D000814C9FED82FA02286FD1FDF776FFBA4654
:1024E00089F848A089ED4EFA012089F8490089ED64
:1024F00055FAA9F890A089F81CA0C4F800A0C4F867
:1025000004A0C4F808A0C4F80CA0C4F810A0C4F833
:1025100014A0C4F818A0C4F81CA0C4F820A004F1AA
:102520008000C4F824A01FF0D8FCC4F828A0C4F888
:102530002CA0C4F830A0C4F834A0C4F838A0C4F863
:102540003CA0C4F840A0C4F844A0C4F848A0C4F813
:102550004CA0C4F850A0C4F854A0C4F858A0C4F8C3
:102560005CA0C4F860A0C4F864A0C4F868A0C4F873
:102570006CA0C4F870A0C4F874A0C4F878A0C4F823
:102580007CA089F81DA089F84CA0C9ED518A89ED7D
:10259000528AC9ED538A89ED548A89F84DA089F889
:1025A0004EA089F819A089F81EA089F84BA089F8D7
:1025B0001FA089F820A089F822A094ED012A48489C
:1025C00084ED002AD0ED010AC0ED000A94ED020A64
:1025D00084ED010AD0ED022AC0ED012AD4ED031AE0
:1025E000C4ED021AD0ED033AC0ED023A94ED040AAC
:1025F00084ED030A90ED040A80ED030AB6F9001099
:1026000001EE101A2F49B8EEC11A84ED041A91F8A0
:102610004E10052905D22B48491C80F84E1000F0B9
:1026200055BA9FED303A9FED304A264921EE031A04
:1026300001EE841ADFED2D1A60EE211A02EE031A64
:102640009FED2B2A43EE821A9FED2A2A42EE821A30
:102650009FED292A40EE821A71EE610AC0ED040A4C
:1026600091ED511AF4EEC10AF1EE10FA02F3F28480
:1026700091ED521AF4EEC10AF1EE10FAC2F0EE84B6
:1026800091F84C00F4EEC00A401CF1EE10FAC0B212
:1026900081F84C0004DDB4EEE30AF1EE10FA09D340
:1026A000F4EEC00AF1EE10FA07D2B4EEE30AF1EE4E
:1026B00010FA02DD4A7E521C4A761FE067666666A3
:1026C00004630310B0210010182300101C630310D2
:1026D000000000C700000047785E03100000000003
:1026E0008C5E0310E78C683EE78CE8BE97FFF0BF76
:1026F0001361A33FC3F508BFDB8A3D3EF5EEC00A78
:10270000F1EE10FA80F0E281B5EEC00AF1EE10FAB7
:10271000C0F2DC81F94991F84B10002973D0F74AD7
:10272000002182F84B1000BF04F12C01283491E8FD
:102730000E5EA4E80E5ED4E9011264E81212D4F829
:102740008110C4F88010D4F88510C4F8841094F86F
:10275000891084F8881004F15801543491E80E5E11
:10276000A4E80E5ED4E90112C4E90012E3494A7EEE
:1027700000EE102AE24AB8EE400A82ED0A0A002270
:102780004A76E04A507291ED510AD1ED520AA2F117
:10279000580030EE600A80ED0A0AD848002290ED19
:1027A000510A80ED530A90ED520A80ED540AC0EDB3
:1027B000518A80ED528A80F84C2090F84D10491CC7
:1027C000C9B280F84D10042940F280810A2984BFE3
:1027D0000A2180F84D10002116911A9120911F9125
:1027E000C949C64891ED0A1ABCEEC10A10EE101A8A
:1027F0001FFA81F801211D9190F84DE0BEF10A0FFA
:102800002BD08EE0FFE7BD4A92ED531AB5EEC01A09
:10281000F1EE10FA88DDD2ED521A92ED510AD2EDA6
:10282000540A71EE611AB0EE081A30EE600A21EE19
:10283000811AB4EEC10AF1EE10FA7FF775AFB14913
:10284000C2ED520A4B7A18444872A1F1580080ED4B
:102850000A0A012082F84B009FE7AA484FF00009BE
:10286000A0F15801027891ED010A90F801A04C46C0
:10287000BDEEC00A4FF0040C10EE103A91ED020AC2
:1028800011F104015244D1ED020ABDEEC00A10F864
:1028900002BFFDEEE00A10EE10AA5C4410EE90BA02
:1028A000534491ED030A90F801A0083192B2A4B20A
:1028B000D944BCF1010CE5D1101982B203EB090136
:1028C000BEF101000DD48F4B1B5C1A448E4B92B2AB
:1028D00003EB800090ED010ABDEEC00A10EE100A75
:1028E0000144282A32BFF0224FF41650B0FBF2F216
:1028F00086480270B6F90000B0F57A7F08DD4FF423
:102900007A725143B1FBF0F08049A1F8010003E075
:102910007E490020A1F801007C480178A0F5EE7006
:10292000C171764AB2F8800005287CD8764991EDCD
:10293000090A71EE400AF0EEE00A9FED752A71EE89
:10294000001ADFF8D0C160EE820A80EEA10A10EE14
:10295000100A844567DD11EE100A6F4C8442C4BF33
:1029600011EE100AB0F1824F5DDDCEF10C000923AB
:102970001890092857DC00BF01EB830090ED000A96
:1029800050ED010A70EE601AF0EEE11A61EE822A53
:1029900070EE201AC2EEA10A10EE900A844542DDC4
:1029A00011EE100A5C4A8242C4BF11EE100AB0F167
:1029B000824F38DD00EE908A524A4FF0000EF8EE5A
:1029C000600A30EE200ABCEEC00A10EE100A1FFAB0
:1029D00080F81D98401C80B21D90D05C102808D251
:1029E000A2F12C0454F82340B4F1804FC4BF012459
:1029F000A6461A4412F8014C021B02F10109B9F172
:102A0000020F0FD900EB040A002AACBF9146C2F1B5
:102A100000094FF0640B19FB0BF999FBFAF9B9F1B6
:102A20000A0F04DA00E051E0BEF1000F0FD00444B9
:102A3000002AB8BF52424FF0640912FB09F292FB20
:102A4000F4F20F2A42DABEF1000F3FD11CE01A9ACD
:102A5000104480B21A901F98401CC0B21F900328E7
:102A600084BF1A9820282BD91F98C0EB0010810131
:102A70001A98B1FBF0F0C5B22048007A854201D81F
:102A8000232D23D2002521E0169A104480B21690FF
:102A90002098401CC0B22090042884BF169830288B
:102AA0000ED92098C0EB001081011698B1FBF0F010
:102AB000C5B21248007A8542E4D8232D06D2E1E758
:102AC000581EC3B2189898427FF756AF0B4CA07FA0
:102AD000FF283CBF401CA077EDB300200B490870D5
:102AE00094F8221000291CBFA17FA02916D384F8D6
:102AF0002000E577A07784F822503FE0B021001055
:102B0000CC5E0310F85E0310A05E0310706103102A
:102B10000000C8420000F0410000964308292DD370
:102B2000A077E07F84F82000E57718B341194A19AF
:102B300040F2AB2312FB03F2D20A84F82220401B9E
:102B400054BF02464242642312FB03F2B2EB410F30
:102B500014DA002800E02BE0B8BF4042642210FBEA
:102B600002F0B0EB410F09DA94F82100401C84F820
:102B7000210003E025F0004084F822002020607747
:102B800094F8220020771D98FD4DB8FBF0F0687096
:102B90000D2105F5EE7004F071F94FF47A7008FB21
:102BA00000F2B6F900101D98484392FBF0F0A871AE
:102BB000B4F88000052807D90020F2496077207713
:102BC000087084F84D000BE0607F48B1401E10F0A3
:102BD000FF00607704D1207784F8210084ED33FA78
:102BE000E748217FE84A0170E07D02F110010228E8
:102BF00016D1002084F84F000123E375A4F88E005D
:102C0000108008805080488090808880D080C88064
:102C1000108108815081488190818881D081C8814C
:102C2000B4F88E0020F00103C01A401C0FFA80FC9B
:102C3000A4F88EC094F84F3043B102EBCC00316859
:102C4000726840F8081C40F8042C07E001EBCC0047
:102C50003168726840F8081C40F8042CBCF1020F7F
:102C600018BF002100F01284C84890F84F000028D7
:102C70000CBF01200020002902F0D68100280CBFE3
:102C8000C34EC14EDFF8048398F817009FEDC2CB06
:102C900030B14FF48071C24804F0CEF888ED68CBB3
:102CA0009FEDC1EB98ED688B53EC1E2B51EC180B8C
:102CB00090F04CF841EC100B20F0E2F99FEDBC9B3A
:102CC00051EC100B53EC192B90F040F853EC182BEF
:102CD00090F0CAF99FEDB8DB53EC1D2B8FF0DCFCB4
:102CE00041EC180B8FF028FF0FFA80F953EC1E2BE4
:102CF00051EC180B90F02AF841EC100B20F0C0F9C1
:102D000053EC192B51EC100B90F020F853EC182BCE
:102D100090F0AAF953EC1D2B8FF0BEFC41EC100B88
:102D2000002588ED680B8FF007FF00B29C4C8000F7
:102D300066AF00BF07EB850105EB890281ED00FA64
:102D400004EB420236F8151022F8081C411904EB76
:102D5000410206EB4501098922F8081C691C0DB2E5
:102D6000042DE7DB002630468FF043FF0D4645EC8F
:102D7000100B98ED681B814653EC112B51EC100B96
:102D800090F072F941EC180B53EC1D2B8FF0A2FF61
:102D900007D253EC192B51EC180B8FF07DFC41EC52
:102DA000180B45EC109B98ED681B51EC100B53EC85
:102DB000112B8FF071FC41EC1A0B53EC1E2B8FF092
:102DC000C5FF41EC100B20F05BF953EC192B51ECD3
:102DD000100B8FF0BBFF53EC1A2B90F045F941EC30
:102DE0001B0B7748002500EB8600B0EE4DAAD0ED16
:102DF00000FAF0EE6DAA51EC180B8FF09DFE00B2B8
:102E00004FEA800953EC1A2B51EC1B0B8FF044FC5A
:102E10008346169109EB0500169904EB400041EC3E
:102E200010BB30F908AC51EC100B8FF085FE00B2EE
:102E300005EB800004EB400030F9080C504400EE34
:102E4000100A07EB8500F8EEC00A90ED000A0FEEBD
:102E5000A00A80ED000A681C05B2042DDADB701CA4
:102E600006B2102EFFF67FAF98F81790B7EE08AABB
:102E7000DFED54AA544E554F06F10C0404F124051D
:102E8000DFED53BADFED53EAB7EE00BAB9F1000F48
:102E900074D08021A4F1DE0003F0CEFF8021A4F5E0
:102EA000AF7003F0C9FF012088F83B0088ED40FABD
:102EB00088ED3DFAC8ED39BA88ED3AAA9FED460A89
:102EC000082088ED3B0A88F83C00002088F83D0087
:102ED00088F83E0088F83F0088F84000DFED3F0AA0
:102EE0000421C8ED3C0ADFED3E0AC8ED250ADFEDFE
:102EF0003D0AC8ED260AC8ED27EADFED3B0A88ED5A
:102F0000280AC8ED290ADFED390AC8ED2A0ADFEDE3
:102F1000380AC8ED2BAAC8ED2C0ADFED360A88ED79
:102F20002DBAC8ED2E0AC8ED2FBAF6EE080AC8ED84
:102F3000300AF2EE000AC8ED310A88ED320A9FED40
:102F40002E0A88ED340A88F81B00A8F8840086ED64
:102F500000FA86ED01FA86ED02FA204684ED00FAC9
:102F600080ED01FA80ED02FA0830491EF8D187EDB4
:102F700000FA281F87ED01FA03213FE056E0000028
:102F8000945F031070610310025F0310B021001002
:102F9000125F0310000000000000000000000000AD
:102FA000A46F031000000000000000000000A03F1C
:102FB0000000000000004040000000000000F03F62
:102FC00098D90C006666663F6467031020230010E2
:102FD000CDCC4C3FEC51783F3333733F85EB713FA1
:102FE000CDCCCC3D77BE7F3F7B146E3FC3F5683FB1
:102FF00033331340CDCCCC3E3F357E3F80ED01FADC
:1030000080ED02FA0830491EB7D1FE495FF0050293
:1030100001F1280081ED01FA80ED01FA81ED02FA5B
:1030200080ED02FA08300831521EF3D1B8F884005E
:10303000401C80B2A8F88400282838BF98ED268A62
:1030400014D3502838BF98ED278A0FD3782838BF7B
:1030500098ED288A0AD3B42838BF98ED298A05D379
:10306000DC2834BF98ED2A8A98ED2B8A9FEDE6EA9A
:10307000B0F57A7F84BF4FF47A70A8F8840004D842
:10308000112838BFB0EE4E0A01D3B0EE6B0AD6ED70
:10309000010AC6ED020AD6ED002AC6ED012A9DED11
:1030A000661A86ED001A71EE200ADFEDD81A20EEBE
:1030B000A11A9FEDD72AD7ED000A02EE821A9FEDE2
:1030C000D53A97ED014A60EE832ADFEDD33AC7ED9A
:1030D000010AB9F1000F44EE232A31EE62DA87EDDE
:1030E00000DAD4ED006AD4ED015AD4ED022A94ED51
:1030F000036A94ED045AD4ED054AC4ED036AC4EDA5
:10310000045AC4ED052A84ED066A84ED075AC4ED1D
:10311000084ADDED678AC4ED008ADDED687A38EE95
:10312000866A95ED001AC4ED017A9DED697A26EE66
:10313000216A37EE855A95ED014A84ED027A06EE52
:10314000826A61EE036AD5ED038A25EE215A77EE95
:10315000244A48EEA36AD5ED020A05EE825A64EECF
:10316000A11A64EE035AAD4C76EE669A95ED046AA8
:1031700042EE821A20EE832AD5ED052A46EE235A26
:1031800085ED031A02EEA32AC5ED009A85ED044AE7
:1031900035EE659A71EEC28A85ED019AC5ED050A94
:1031A0006DEE0D1A29EEA92A69EE092A68EEA80A21
:1031B000C5ED028A07D0C8ED3F1A84ED002AC4EDA0
:1031C000012AC4ED020A3BEE401A98ED3F3A61EE47
:1031D000211A61EE200A40EE031AC8ED3F1A61EE93
:1031E000021A94ED002A40EE021A21EE222AC4EDC2
:1031F000001AD4ED012A61EEA11A00EE222A84ED14
:10320000012A94ED021A22EE022A40EE010AC4EDD0
:10321000020A20EEA00A72EE210A70EE200AB1EE38
:10322000E00AB4EE400AF1EE10FA1CBFB0EE600AFC
:1032300021F0BBFE88ED360A98ED3F0ADFED78DA23
:1032400030EE2D0AF1EEC00AF4EE600AF1EE10FA4B
:103250000CBFB0EE600A21F0A8FECDEE00FA94EDAE
:10326000000A70EE2D0AB1EEE00AB4EE400AF1EE6B
:1032700010FA1CBFB0EE600A21F097FE89EE80DAEA
:1032800094ED010A30EE2D0AF1EEC00AF4EE600A68
:10329000F1EE10FA03D021F088FEF0EE400A94ED32
:1032A000020AC9EE209A30EE2D0AF1EEC00AF4EEC1
:1032B000600AF1EE10FA03D021F077FEF0EE400A3A
:1032C000B1EE080A88EEA09A6FEE808A4C2101A820
:1032D000C8ED378A03F0D2FD524D98F8176005F516
:1032E000BE6436B388ED50FA4C224F49A4F14C002D
:1032F00003F068FD88ED4FFA40F2A451A4F5BE60DA
:1033000003F0BCFD98ED250A2F4685ED000A204606
:1033100084ED00FA5FF0090187ED140A80ED01FAEF
:1033200087ED280A80ED02FA0830491E07F1A00750
:10333000F2D198ED4F0ADFF8F4A084ED120AD4ED33
:10334000000AB0EE4F2A002120EE801A0DF1040C85
:1033500084ED0F1A2DEE001A84ED0C1A94ED061A66
:1033600084ED091A94ED031A84ED061AC4ED030ADC
:1033700084ED00DAD4ED010A20EE801A84ED101AF3
:1033800029EE801A84ED0D1A94ED071A84ED0A1ABD
:1033900094ED041A84ED071AC4ED040AC4ED019AF1
:1033A000D4ED020A20EE801A29EE000A84ED111AEB
:1033B00084ED0E0A94ED080A84ED0B0A94ED050ADB
:1033C00084ED080AC4ED050A84ED029AD8ED3C1A92
:1033D000F0EE612A04EB810005EB8103D0ED003AA9
:1033E0000AEB81000CEB810290ED000AD3ED000A9C
:1033F000204603EE802A92ED000A00EE8D0A82ED4F
:10340000000A15E0106703100AD7233C1FF44C3F55
:103410001FF4CCBFD9CEC7BFCA32243FAC6703105C
:10342000A4FE7F25686903104CD80C000C6F0310B4
:103430005FF00907D3ED130A90ED011A00EE810A3F
:1034400082ED000AD3ED260A90ED021A0830983377
:1034500000EE810A7F1E82ED000AEBD143EE802A46
:10346000481C01B21329B5DB78EEC23A98ED500A38
:10347000C346B0EE4F3A07EB470000EB07180021B8
:10348000B0EE4F2A05EB88099FB90AE0012193F0BD
:10349000010084F84F0018BF012084F84F00FFF7A7
:1034A000E3BB0CEB8100D0ED000A80EEA21A80EDA8
:1034B000001AC9B9D9ED000AB0EE420A20460DEE55
:1034C000200A4A465FF00903D0ED010A92ED011A85
:1034D00000EE810AD0ED020A92ED021A083008329D
:1034E0005B1E00EE810AEFD108EB010005EB8000C6
:1034F0000CEB810290ED001AD2ED000A00EEC01A2A
:10350000C1EE210AC0ED000A481C01B21329BBDB41
:103510000AEB87000CEB8701D0ED000A91ED001A51
:1035200041EE230AC0ED000A04EB870090ED001A7B
:10353000781C07B201EE203A132F9CDB8BED500A6A
:1035400038EEC30A5C46CBED4F8A002E1CBFF0EE6E
:10355000C00AC4ED3E0AFE49FD4F01F12400D1ED41
:10356000080A021DC1ED090AD2ED080A02F1240180
:10357000C2ED090A0122042307F1280CC2F1090552
:103580002DB2AD0005EB0708654458ED010A5B1E3E
:1035900040ED010A55ED010AC2F108052DB2AD005A
:1035A00005EB070841ED010A58ED010A654440EDBD
:1035B000020A55ED010A083841ED020A0839921C49
:1035C0001BB2002BDAD1B5EEC00A87ED000AF1EE8E
:1035D00010FAB8BFB1EE400A8CED000ADD480421B4
:1035E000D0ED010A90ED021A0830F4EEC00AF1EEB7
:1035F00010FAC8BFB0EE600AD0ED010AB4EEC01AEE
:10360000F1EE10FAC8BFB0EE410A491EEAD1D14826
:10361000D0ED090AF4EEC00AF1EE10FA01F32285AA
:1036200010EE100AB0F17E5FC1F22285D4ED3E0AA1
:103630003BEE481A68EE200A41EE000AC4ED3E0A4D
:1036400097ED090A80EE201A84ED351A94ED360ABA
:10365000DFEDC10AA07C80EE209A78B10020A07432
:1036600094F8380084F8390094F83F0084F8380062
:10367000B4F86410002908BF84F83A004FF000093C
:10368000C84636B1002084F84200A4F88A0084F8C5
:103690004300B4F88A00DFF8C4B2401C80B2A4F83A
:1036A0008A000BF1800710284ED94EF6602188421F
:1036B00084BF42F21071A4F88A10A04694F8420028
:1036C000401CC5B284F842509FEDA50A21EE000AC5
:1036D00021F0B2FABDEEC00A0BEB450110EE100A64
:1036E00021F8020C18EE900AB0F1814F06DD07EBCD
:1036F00045014FF4804021F8020C19E018EE900AC1
:1037000010F17E5F06D907EB45014FF4404021F8E8
:10371000020C0DE09FED930A28EE800A21F08CFA4E
:10372000BDEEC00A07EB450110EE100A21F8020CAD
:10373000402D05D1002088F84200012088F8430080
:1037400098F8429098F84380002021908648B0EE87
:103750004F8AF0EE00FA90F83DA056EA0A0030D009
:10376000814C301C84F84AA018BF012084F8440022
:10377000002584F846504FF480717C4803F05CFBD0
:1037800084F8475080217A4803F056FB84F845506E
:10379000A4F88C5084ED4DFABAF1000F1CBF402004
:1037A000A4F88C00002E1CBFE575A4F88C5084F89A
:1037B0004850B0EE4F0A84ED4E0A012084F84900CB
:1037C00008E0694890F8480000281CBF01202190BB
:1037D00040F01485644BB3F88C00401C80B2A3F811
:1037E0008C00402840F20A85B0F57A7F84BF4FF400
:1037F0007A70A3F88C0093ED4E0AB4EEC09AF1EE05
:1038000010FA08DCF6EE000A20EE200AB4EEC09AA8
:10381000F1EE10FA01D283ED4E9AD3F838015549F2
:10382000554AB0EE0C0A2290884204DD9FED53AA5F
:103830001E201F9025E052498842C8BF14201FDC7B
:1038400050499FED51AA8842C8BF0F2018DC4F494C
:103850008842C8BF092013DC9042C4BFB0EE6AAAF8
:1038600007200DDC4A498842C3BFB0EE6BAA9FED2A
:10387000490A05209FED48AADCBF9FED480A0420B5
:103880001F9093F84500401C83F8450000202590C8
:103890002390187F002840F0C684B3F88C002028BD
:1038A00008BF00203CBF012083F8490009D306D09F
:1038B000DDF888C0944501DC642802D9012083F832
:1038C000490093F84700401CC0B283F84700249099
:1038D000B8F1000F0EBF012009F10100C0B2234969
:1038E000214B402293F84930002B14BF0BEB400CC6
:1038F00007EB400C3CF802CCA1F800C0401C4FF094
:10390000000CC0B2A1F880C0412808BF0120891C6A
:10391000521EE9D1234A224943F2426C1268D1F87F
:103920000A30BCEB123F70D11F4D204A0DF1600CE4
:1039300008244E69B3FBF6F706FB1733D1F8226073
:1039400012F8017B7343CE6A334487EA13562FE0A3
:10395000146703103C6703100000FA43126603105B
:103960000000004600008045B02100106868031088
:10397000E867031000803B460000FA439A99D93F5C
:1039800000409C450000FA449A99993F00007A440F
:103990000000C842CDCC2C40FA7E2A3F6666264005
:1039A000F2D70C000000024004000240225F031026
:1039B0000CF8016B641EBCD19DF860C02B7818A96F
:1039C0002A469C4518BF01249DF861C05378002603
:1039D0005FF0030711F8028F12F8029F9C451CBF8D
:1039E000631CDCB291F801C05378C8451CBF761C3B
:1039F000F6B27F1EEED1A1199DF86720EB79C9B20E
:103A00009A421CBF491CC9B2C1B10021FD4AA2F8AB
:103A10008A1000242146264600287DD0FA4B6AAD44
:103A2000A4462A7803EB420232F9022CA24274DD4A
:103A300026460CF101011446C9B2EAE00121002238
:103A40002020F14B1EE0501C884213DA03EB4104A6
:103A500003EB420C34F8025CB4F87E6033F81200D9
:103A6000BCF8807024F8020CA4F87E7023F8125081
:103A7000ACF880602020202904DD091A09B240102A
:103A80008142FADC084401B2501C02B23F2ADADB60
:103A9000DFF878E34FF0000A4FF0000C1EF90A003F
:103AA000002854DDDA4810F90A20002A47DDDA3010
:103AB00000EB4200831ED74810F90A40D2480CFBA5
:103AC000042100EB410104FB0CF400EB440000BFB7
:103AD00033F97E7B31F9806B87FB06454FEAA439C9
:103AE00033F97C59B1F9004085FB048B87FB04470F
:103AF00085FB0656A41304EBA53430F8805BA9EBD4
:103B0000A838A5EB080545F34E0521F8805C05882B
:103B10002D1B45F34E0501E0B1E075E021F87E591B
:103B200030F8805C521E454445F34E0520F8805C19
:103B300005882C4444F34E0420F87E49C8D10CF18A
:103B400001000FFA80FC1EF90A006045AADC0AF1A8
:103B5000010000F0FF0ABAF1060F9DD3AA484021E8
:103B60004FF0000CB0F90030002BBCBF5A4213B22A
:103B7000B0F98020002ABCBF524212B21A4420F889
:103B8000802B491E20F87EC9ECD100209E4BCDF839
:103B9000A8C1CDF8ACC1062105460DF5D478CDF805
:103BA000B0C100BF01F1010C0CF0FF0603EB4104B2
:103BB00003EB460234F9027C32F9022C9742CCBF67
:103BC00001220222114403EB4101B4F9024031F910
:103BD000041CA142A8BF022A0ED1002F0CDD401CFC
:103BE000C0B208EB00010A2801F8016C18BF0CF004
:103BF000FF013FF40EAF04E00CF0FF01002D7FF455
:103C000008AF1A29CED904E7964202DAA24218BFB9
:103C10001646401E6D1C0CF1010C10F0FF007FF4E5
:103C200000AF61B36AA8084410F8011CA1F10800B4
:103C3000122824D2401E102803EB410227BF32F97C
:103C4000060CB2F9022032F9080CB2F9042003EB99
:103C50004105B5F902C06245C8BF624633F911306B
:103C60009C45A8BF1A4635F9063C9C469842C8BFF9
:103C7000604635F9043C9C45A8BF184601E0012088
:103C80000246891FC9B200EE901AB4EE001AB6EED1
:103C9000048AF8EE600A00EE818A18EE101AB1F17B
:103CA0007E5FB4BFF0EE6F0ADFED5B0A01EE104AF3
:103CB000DFF86881534DF8EEC11A01EE100A229820
:103CC000B8EEC11A404581EE819A01EE104AF8EE35
:103CD000C11A01EE102AB8EEC11AC1EE819A01EEA6
:103CE000104AF8EEC11A01EE106AB8EEC11AC1EE20
:103CF000818AA8BF4FF4167105DA9FED491A4FF477
:103D0000487160EE810A95F84A00002878D01F9823
:103D10000A28D2BF00EB400040001F9000DC1F903B
:103D200019EE102A3F48404E404FB2F17F5FC4BFAA
:103D300019EE902AB2F17F5F09DDF4EEE08AF1EE30
:103D400010FAC2BF8C4218EE101A814259DC19EEEB
:103D5000101A374B40F6C412B1F17F5FC4BF19EEA1
:103D6000901AB1F17F5F08DD18EE901A9942C2BF38
:103D7000944218EE101A814243DC19EE10CA2D4904
:103D80008C4503DC19EE90CA614509DA18EE901AE9
:103D90009942C2BFB4F5AF6F18EE101A814230DC01
:103DA00019EE101A244B9942C4BF19EE901A994289
:103DB00016DD18EE901ADFF884C06145C8BFB4F56F
:103DC000FA7F0DDD18EE101A8842BCBF18EE101AEB
:103DD000B1F1804F04DADFF868C02299614510DB49
:103DE00019EE101ADFF85CC0B1F17F5FC4BF19EEA5
:103DF000901AB1F17F5F2EDD18EE901A614523E035
:103E0000E6E0A7E0B021001068680310BCD70C0002
:103E1000C2D70C00C8D70C003333F33F00007A44FC
:103E2000CDCC8C3F0000A03F00002040000060404F
:103E3000CDCCCC3F0000E040000040409A99993F33
:103E4000000048429A99D93FC2BFB4F5AF6F18EE4F
:103E5000101A81427EDC18EE101A8842A4BF41F28B
:103E600094118C4205DD18EE901ADFF8A4944945B0
:103E700070DC19EE101AB1F17F5FC8BF944207DD04
:103E800018EE901A6145C4BF18EE101A994275DCFD
:103E900019EE101AB142C4BF19EE901AB1420DDDED
:103EA00018EE901ADFF86CC46145C4BF40F2DC51D3
:103EB0008C4203DD18EE101A81425FDD19EE101AF4
:103EC000B942C4BF19EE901AB9420BDD18EE901A30
:103ED000B1F17F5FC8BFB4F5C86F03DD18EE101AEB
:103EE00081424BDD19EE101AB1F1804FC4BF19EEBB
:103EF000901AB1F1804F11DD18EE901AB1F17F5F89
:103F0000C4BF40F226218C4208DD18EE101A81420F
:103F100004DCDFF804C4229961452FDB19EE109A06
:103F2000FE49DFF8FCC3894503DC19EE909A494548
:103F30000DDA18EE901A8142C8BFB4F52F7F06DD66
:103F400018EE101A8142DCBF2299614516DB19EE8A
:103F5000101A00E012E08B4203DB19EE901A99422E
:103F60007BDD18EE901A8142C8BF944275DD18EED1
:103F7000101A8142DCBF229860456EDA249814281A
:103F80006BD9B4EECA8AF1EE10FA14DAB4EECA8A2A
:103F9000F1EE10FA61D219EE100AB042C4BF19EE68
:103FA000900AB04259DD18EE901ADE488142C8BF2F
:103FB000B4F5FA6F51DDB4EEC08AF1EE10FA4CD8C8
:103FC00018EE100A9FEDD8DBB0F17D5F12D10CE046
:103FD00018EE100AB0F1804F7FF7A2AE1F980A28A2
:103FE000D8BF40007FF79BAE9AE61F980428DCBF3D
:103FF00008201F90CE48B0F90A008EF0FAFD9FED20
:10400000CE1B53EC112B8EF0A1FE41EC1A0BB0EE3F
:104010004A0AF0EE6A0A1FF027F89FEDC91B51EC1F
:10402000100B53EC112B8EF055FE24BFB0EE4A0A54
:10403000F0EE6A0A2AD253EC1D2B51EC1A0B8EF0CB
:1040400083FF0BD853EC1D2B51EC1A0B8EF024FB85
:1040500041EC100B1FF014F818E074E09FEDBA0B60
:1040600051EC1A0B53EC102B8EF06EFF3CBFB0EEF0
:104070004C0AF0EE6C0A09D353EC1D2B51EC1A0BD1
:104080008FF0CAF841EC100B1EF056FE51EC100BED
:104090008EF052FD00B2AE4A40F6AC51A0420FDBAA
:1040A00019EE100AB042C4BF19EE900AB04204DD06
:1040B00018EE900AA74B984202DC239850BB9DE073
:1040C00018EE100AA44B83420DDB19EE100AB84219
:1040D000C4BF19EE900AB84276DD18EE900A9042FD
:1040E000C8BF8C4270DDD5F83801404512DD18EEAE
:1040F000100A98420EDC19EE100A8742BCBF19EE76
:10410000900A87427ADA18EE900A944B9842C8BF18
:104110008C4273DD924BD5F83801984215DD18EECC
:10412000100AB0F17E5F10DC19EE100A8742BCBFA6
:1041300019EE900A874261DA18EE900A9042C8BFE1
:104140008C425BDD01E02598F0B38649D5F8380153
:10415000884225DD18EE100A8349884220DC19EEDA
:10416000100A8742BCBF19EE900A874207DA18EEA0
:10417000900A7E498842C8BFB4F5FA6F10DC19EE88
:10418000100A7B498842C4BF19EE900A884235DD87
:1041900018EE900A77498842C8BFB4F5FA6F2DDD52
:1041A00095F846101F9881420DD195ED4D0A38EED5
:1041B000400AB0EEC00A10EE100AB0F17A5FA4BF58
:1041C000002185F8461000E018E095ED4D0A1F9893
:1041D000C9B238EE400A8142B0EEC00A10EE100AB1
:1041E00013DAB0F17B5FA4BF002085F8460085EDAF
:1041F0004D8A95F84600401C85F846005E48017FD0
:10420000E9B390F8480070B140E0B0F17B5FA3BF24
:10421000002085F8460085ED4D8A0120BCBF219025
:1042200085F84800EAE7544C207F94F83F10421A82
:104230000A32142A00D811BB00EE100A0121219184
:10424000F8EE400A0D4684F848109FED4C0A80EEC7
:10425000808A9FED4B0AF6EE080A38EE400A1EF0FF
:10426000F7FF84ED330A94ED400AB5EEC00AF1EE93
:1042700010FA09DD00EE2F8AB0EE080A00E005E032
:10428000C8EE000AB0EE608A84F83B503A49B1F8B3
:104290008A0078280FD191ED400A0846B5EEC00A91
:1042A000F1EE10FA07D10122219280F84820B7EEF2
:1042B000048A81F83B20002681F83D6091F83E0099
:1042C000219A024304BF0027CE7600F0AD86234B2F
:1042D000D1F8F420DFED2B8A9A42C6BF9FED2A0A5F
:1042E00081ED3C0AC1ED3C8A0D46B1F89010B1F564
:1042F0007A7F3CBF491CA5F8901000281CBF21986C
:10430000002879D0B5EEC08AF1EE10FA3EE0000048
:104310006666A63FCDCC0C400000F0410000C040D6
:10432000000048433333F33F000000000000E03F4B
:104330006868031000000000333333333333FB3F2E
:104340000000000000003043000000000000E0BF5B
:10435000CDCC4C40CDCCEC3F0000603F0000404055
:1043600000803B4500803B460000D03F9A991940B1
:104370000000A0406666E63FB021001000007042D9
:10438000CDCCCC3D3D0A773F48E17A3FDCBF85F894
:104390003E6085F840602FDD95ED550AFD4A2946BF
:1043A00030EE480AB0EEC00A10EE100A904203DC6C
:1043B000B1F89000502801D981F8406091F8400090
:1043C000401CC0B281F8400005280FD3012081F8BD
:1043D0003B0018EE100AB0F1804F07DAAA7B28469E
:1043E000022A04BF80F83B6085F8406081ED558A61
:1043F000A1F8906081F83E6095F8230095ED359A1C
:10440000401C10F0FF0085F8230002D068780228D5
:1044100051D2E148382201686E9140686F90DF49BF
:1044200070A802F048FCDE487E90DE487F90DE48AF
:104430008090DE4881906EA814A9102250F8033BAA
:10444000521E1BBA23F0FF0C10F8013B12044CEA79
:10445000030341F8043B120CF0D121A85FF04001A6
:1044600050F81429491E50F8183909045A4050F8D8
:10447000083950F840CB83EA0C035A404FEAF272F5
:1044800040F80829090CEBD15021491E0904090CF8
:10449000FBD1C74B14A9082011F801CB1A5C944535
:1044A0001EBF0DF5037DBDEC108BBDE8F08F401CE9
:1044B00000B21C28F0DBDFF8FC9295F83B00DFF837
:1044C000F88209F1080AE8B395ED2E0A2C4685ED2D
:1044D000430A85F8416085ED49BA474688ED00FA00
:1044E0005FF0020087ED01FA87ED02FA401E07F146
:1044F0000807F7D1B148022180ED01FA80ED02FAF8
:104500000830491EF8D184ED48BA94ED2C0A84EDA8
:10451000460A9FEDAB0A94ED311A68EE000A80EE70
:10452000810A1EF0F9FCF8EE000A20EE200A84ED64
:10453000440A84ED41FA94ED2D0A84ED470A84ED96
:1045400042FA00E031E09F49A1F1080081ED00FA54
:1045500089ED00FA8AED00FA80ED00FA81ED01FAAA
:1045600089ED01FA8AED01FA80ED01FA1FED7C0A6E
:1045700084ED450A84ED40FAA4F886609FED920A26
:1045800084ED4A0A9FED910A914884ED4B0A80ED33
:1045900000FA80ED01FA80ED02FA01F1180080EDD9
:1045A00000FA80ED01FA84ED4CFAB5F88600401C63
:1045B00080B2A5F88600B0F57A7F84BF4FF47A7098
:1045C000A5F8860095F84100401CC0B285F841006E
:1045D0009FED801A9FED800A32283CBFDFED7F0AF5
:1045E000C5ED3B0A0AD3642838BF85ED3B1A05D3D5
:1045F000962834BFC5ED3BEA85ED3B0AC82884BF49
:10460000C82085F84100D5ED331ADFED752AC5EDD8
:10461000392ADFED740AF5EEC01ADC24F1EE10FA47
:10462000C5ED3A0A85ED3B0AD8BF2D2708DD1FED01
:10463000AD2A61EE821AFCEEE11A11EE900AC7B2C1
:10464000A87B00219FED683ADFF8A0C1DFED683A52
:10465000DFED681A9FED682A052880F09582DFE873
:1046600000F00355FD98FC00B5F86C1028461E2993
:1046700024BFC17B012926D0C17BFF291AD200BFEC
:10468000B0F86410782915D290F83A2041F27B43B3
:10469000C2EB0212C2EBC2025A43D40C0146822C76
:1046A00038BF822481ED3B1A91ED451A21EE000AB4
:1046B00080ED450AB0F86610B1F5967F20D8C17B31
:1046C000FF2966D11CE0B5F8662029463C2AD7D2DE
:1046D00091F838205A2A0AD9C2EB0212C2EBC20260
:1046E00041F27B435A43D40C822C38BF8224C1ED63
:1046F0003B3AD1ED451A61EE801AC5ED451ABFE788
:10470000B0F88200062838BF82243DE2B5F86C007C
:104710001E2802D3EA7B2846B2B1EA7B2846FF2A4C
:104720006CD200BFB0F86430782B68D290F8382093
:10473000962A22D94FF0670C12FB0CF241F27B4C07
:1047400002FB0CF2D40C6CE0B0F866203C2AE9D2F3
:10475000C0ED3B3AD0ED451A61EE801AC0ED451A26
:1047600090F83820642A38BF1746D0F8F42012F1A8
:10477000814F88BF85ED3B0AD4E78C2A40D94FF0A2
:104780006A0C12FB0CF241F27B4C02FB0CF2D40CD3
:1047900047E0D2E0ABAA2A3E04000240FAD70C0060
:1047A0009979825AA1EBD96EDCBC1B8FD6C162CA43
:1047B000225F031038230010B8670310C867031086
:1047C000DB0FC940302300108FC2753D8FC2F53D0D
:1047D000DC6703108FC2753FF6287C3F3333733F8D
:1047E0003333333FCDCCCC3F52B87E3F0000C0BF07
:1047F0009A99793FA4707D3FE17A743F34E03AE0C2
:10480000822A09D902EB420C0CEBC20240F6CD4CD5
:1048100012FB0CF2D40B04E002F10A04782C38BF2E
:104820007824B0F86820153A132A3CBF142B0A34B8
:1048300080ED3B1A90ED3D1AB5EEC01AF1EE10FA7C
:1048400038BFC0ED3BEA11EE102AB2F1404F88BFED
:10485000C0ED3B3A90ED451A01E033E136E021EE40
:10486000000A85ED450A03E0B5F86400782802D215
:10487000E87BFF280FD195F83F20A0243C275A2A37
:1048800009D9D5F8F40010F1814F88BF0121B0F1AA
:10489000404F88BF8C24284695ED3D0AB5EEC00AEE
:1048A000F1EE10FA02DDA02C38BFA024B0F8702081
:1048B000B2F5967F02D9B0F8722002B1E9B390ED5B
:1048C000450A20EE030A85ED450A5DE1B5F86C0066
:1048D0002B461E2802D3DA7B82BB01E01A7C72BB16
:1048E000B3F866203C2A30D295F838002A4600F109
:1048F000460478283CBF074682ED3B2A0AD3872826
:1049000038BF82ED3B1A05D3962834BFC5ED3B8AEC
:10491000C5ED3BEAD2F8F400B0F1804FC8BF82ED9C
:104920003B2A10F1814F05D9D2ED3B3A73EE8E3A16
:10493000C2ED3B3AD2ED453A02E015E107E00AE06C
:1049400063EE803AC2ED453A50E01E2803D3D87B8F
:1049500001283AD102E0187C012836D1B5F866006A
:104960002A463C2831D292F8380000F146047828D3
:104970003CBF074682ED3B2A1CD387280AD2642716
:1049800010FB07F044F605677843C0F3475782ED04
:104990003B1A0FE0962828BFC5ED3BEA0AD200EB90
:1049A0008000400040F6A33710FB07F0C0F3C73784
:1049B000C5ED3B8AD2F8F400B0F1804FC8BF82ED5C
:1049C0003B2A10F1814FB5D9AEE7B3F870005A27F2
:1049D000B0F5967F0AD9B3F872009B4630B9DBED8B
:1049E000453A012163EEA13AC3ED453AD87BFF2851
:1049F0002ED1B3F866001A463C2829D292F83F001F
:104A0000782838BF82ED3B2A0AD3872838BF82ED49
:104A10003B1A05D3962834BFC3ED3B8AC3ED3BEA6E
:104A2000D2F8F40010F1814F05D992ED3B1A31EE26
:104A30000E1A82ED3B1A92ED451AB0F1804F21EE2D
:104A4000000A82ED450AC8BF82ED3B2A5A27A024FE
:104A5000FE48C079B92811D2C82C0FD9C824642FB8
:104A600088BF642793F83F008C287DD993ED3D0AD9
:104A700010EE100A604510D969B906E0642F88BFAE
:104A80006427A02C38BFA024ECE793ED451A21EE53
:104A9000031A83ED451AC3ED3B1A10EE100AB0F16C
:104AA000404F88BFB4246FD8B5EEC00AF1EE10FABB
:104AB00038BFBE2468D310EE100AB0F1804FB8BFE3
:104AC000C82461E0E87B002818BF01282DD1B5F883
:104AD00066102846782928D290ED454A24EE000A2F
:104AE00080ED450A90F83F20782A38BF80ED3B2AB8
:104AF0000AD3872A38BF85ED3B1A05D3962A34BFDF
:104B0000C5ED3B8AC5ED3B3AD0F8F410B1F1804FCA
:104B1000C8BF80ED3B2A11F1814F05D990ED3B0ACA
:104B200030EE0E0A80ED3B0AB42495F83F1028467B
:104B30008C2925D990ED3D0A10EE101A614507D950
:104B4000C5ED3B1A95ED451A21EE031A80ED451A85
:104B500010EE101AB1F1404F88BFB42410D89FED69
:104B6000BC1AB4EEC01A00E00EE0F1EE10FAC8BFB5
:104B7000BE2405DC10EE101AB1F1804FB8BFC82476
:104B8000B0F86600782801D8642F00D9642700EEB9
:104B9000104AB8EE400ADFEDAF8AAF49C0EE281ADE
:104BA00000EE107AB8EE400A80EE288A11EE900AE4
:104BB00088427DDC18EE100AB0F17D5F79DBDFF80A
:104BC0009CB29BF80200401C8BF8020095ED430A52
:104BD00060EE009A98ED030A88ED040A98ED020A47
:104BE00088ED030A98ED010A88ED020A98ED000AA3
:104BF00088ED010A88ED009A95ED470AB5EEC00AE6
:104C0000F1EE10FA0BDD95ED321A95ED482A21EE02
:104C1000022A3BEE411A01EE002A85ED482A95ED65
:104C2000480A22EE80AA20EE800AF0EE610A1EF009
:104C30000FFBB0EE409AF0EE480AB0EE4A0A1EF0C2
:104C4000E3FAB0EE40AA39EE4A0A9FED858A20EEDB
:104C500008CAB0EE4C0A1EF05FF9F0EE40AA3AEE38
:104C6000090A20EE080A1EF057F980EE2A8AB0EEF3
:104C70004C0A20F095F8CAEE800AB0EE4B0A00EE1E
:104C8000A00A9FED781A20EE811A70EE6F1A70EE6E
:104C9000410A61EEAF3A71EE001A8BEE211A28EE4E
:104CA000412A62EE232A22EE2F2AB0EE623A01E078
:104CB000E2E1E4E102EE213AF1EE001A42EE202AAE
:104CC000B0EE614A98ED042A10EE214A20EE810AE6
:104CD000D8ED000A644868EE084A70EE820A98ED42
:104CE000022A44EE843A42EE6F0A63EE811A20EE05
:104CF000818AD0ED030A00EE608A90ED020A80ED11
:104D0000030A02EEC08A90ED010A80ED020A01EE6C
:104D1000C08A90ED000A80ED010A03EE408A80ED22
:104D2000008AD5ED450A95ED420AD5ED461A4F4861
:104D300060EE202AB0EE611A20EE802A00F1080110
:104D400002EE801AC2EE012AB0EE602A22EE801A2C
:104D500001EE602A82EE211A85ED451AD5ED490A49
:104D600021EE000A71EE601AD5ED3B0A41EECE0A43
:104D7000C5ED460A85ED491A95ED412AD5ED440A5F
:104D8000D9ED012A62EE601A49EEE21A31EE883A54
:104D9000D0ED011A33EE213A40EE030A31EE880AD3
:104DA000C5ED440A95ED431A9AED003A61EE011AF9
:104DB00001EEE20ADAED011A02EE600AB0EE482ACC
:104DC000F0EE402A49EEE12A63EE011A41EEE02AB4
:104DD000D1ED011A09EEE12AD1ED001AFEEE00AA8A
:104DE00061EE813A03EEE02AF0EE483A51EE003AE5
:104DF000C5ED413AF0EE423A51EE223AC5ED423A63
:104E0000D9ED003AC9ED013A89ED000A8AED013A7F
:104E1000CAED002A90ED000A80ED010A80ED008ABB
:104E2000C1ED011A81ED002A95ED2F0AD5ED301A5A
:104E300010EE900A20EE011A3BEE400AB0F1804FCE
:104E400000EE211A85ED431A17DC11E0182300103B
:104E50000000008000007042ABAA6A400E230010E0
:104E6000DB0FC93EF304B53FCC67031028230010C5
:104E700010EE900AB0F1404F07D9BBF80000F0EEF9
:104E80004B9A401CABF8000011E020EEAA0A1DF07E
:104E900003FAD5ED310ADFEDFE1A80EEA11AF6EE27
:104EA000000A61EE200A60EE209AC5ED479A29EECD
:104EB000280ABCEEC00A10EE100A2AEE280A8BF867
:104EC0000300BCEEC00A10EE100A8BF804008BF849
:104ED00005408BF80670C5ED409A95ED4C0A60EEE2
:104EE0002B0A95ED440A9FEDEB1AEB48B6EE009ABB
:104EF00020EE011AD0ED011AC0ED021A41EE490A66
:104F000090ED001A78EE212A80ED011A80ED008ADA
:104F1000E24860EEAF0A90ED002A32EE411A40EE10
:104F2000812ADFEDDF0A90ED011A62EEA00ADFEDC3
:104F3000DD2A20EE2A0A80ED012A41EE620A61EEA6
:104F4000A11AC0ED000A85ED4C0A95ED341A60EE09
:104F5000A00A95ED4A2A3BEE410A60EE200A21EEB6
:104F6000800A42EE010AC5ED4A0AD5ED4B1A01EE60
:104F7000810A85ED4B0A9FEDCC1A70EE810A80EE16
:104F8000201A31EE4B0AB0EEC00A1EF001FCF2EE20
:104F9000040A20EE208AB0EE490A09EEA80A85ED3F
:104FA0003D8A1EF0F9F81FF047FEBCEEC00A10EE75
:104FB000100AC0B2E87695F83B1000291CBFC1006A
:104FC000A5F88810B5F8881000EB400001EB41020D
:104FD000C2EB411101EBC0004009A5F88800C01DDB
:104FE000C0F3C70785F83B6085F83F7095F83C0033
:104FF000401E10F0FF0085F83C0015D14B2F10D952
:1050000095F83E0068B918EE100A10F1814F08D9E2
:10501000082085F83C00012085F83D0085F83E0019
:1050200002E0082085F83C00A048F1EE040AA049FF
:1050300090ED3D0A002F20EE200ABDEEC00A10EED2
:10504000100A487018BF0F700DF5037DBDEC108B72
:10505000BDE8F08FC1ED510AFDF70ABBC1ED520A60
:10506000FDF70EBB934890ED090AFEF7D9BA00BFD1
:10507000B0EE4B0AFEF7DABADFED8F1A9AE5B6EE1C
:10508000088A9CE5811C027800234FF0AB0C12FBD0
:105090000CF2920A002AC6BF4FF0000C874A7047F4
:1050A00030B41478202C24BF30BC704731F8024B48
:1050B000557805EB450502EB4505A5F80340547806
:1050C00031F8025B04EB440402EB4404A4F80550FD
:1050D000557831F8024B05EB450502EB4505A5F87F
:1050E00007405478641CE4B25470202C28BF82F826
:1050F00001C01478641C14700478AB2514FB05F40B
:10510000A40A5B1C9C42CCDC30BC70472DE9F05FEC
:1051100000250A78AC462E468B1C2F464FF0AB0874
:1051200012FB08F2920AAE46002AC8BF634A40DD6D
:1051300092F80080B8F1200F3BD292F8018033F84A
:10514000029B08EB480802EB4808A8F8039092F885
:10515000018033F8029B08EB480802EB4808A8F8E6
:10516000059092F8018033F8029B08EB480802EBA7
:105170004808A8F8079092F8018008F1010808F0A3
:10518000FF0882F80180B8F1200F28BF82F801E003
:1051900092F800804FF0AB0908F1010882F8008016
:1051A00091F8008018FB09F84FEA98287F1CB84551
:1051B000BEDC8278102A05BFC278502A0022022263
:1051C000DFF8FCA08AF882E0037893424BD9831879
:1051D000102D9B7808D0BCF1010F04BF03EB052C08
:1051E0001FFA8CF40AD005E0BCF1020F08BF03F5EA
:1051F000805403D0BCF1FF0F02D02AE04FF0FF0C27
:105200000EB30026B4F5004F08BF002404F5004497
:10521000A4B2B4F57A5F86BFA4F57A54A4B2002490
:105220009AF880500AEB4505A5F840409AF880505E
:105230006D1C8AF880509AF882707F1C8AF8827000
:105240008AF8815005E09AF8805001260AEB45055E
:105250002C801D46521C03780CF1010C92B20CF00C
:10526000FF0C9342B3D88278DFF858B0102A04BFFD
:10527000C078502800F049810B7801F102004FF00E
:1052800000024FF0AB0C13FB0CF39B0A39D01BE070
:10529000DB0F4940CDCC4C3EDC67031048230010A7
:1052A00058FF5C3FB1FE393F00008025B02100105F
:1052B000A05F03103C670310ABAA6A404062031072
:1052C000ED6003107D6103109BF80030202B18D295
:1052D00003EB430C5B1C0BEB4C0C8BF8003050F8D1
:1052E000043BCCF8033030F8023BACF80730521CDA
:1052F0000B7892B24FF0AB0C13FB0CF39B0A9A4263
:10530000C5D3FB4ABBF8030001211080BBF80500A0
:105310005080BBF807009080A2F5AC70002580F8A3
:1053200025E080F824109AF880700C46002F84BF86
:105330005B469BF800607CD990F82610491C80F8E9
:10534000261090F824C0B4450FD3FF2180F8251013
:10535000BFE000BF90F825C0BCF1000FECD10129DF
:1053600084BF491C80F82410E6E7E2490AEB4504B3
:1053700091F80180B4F8409008EB880801EB4808E8
:10538000A8F80590B4F800804C7804EB840401EB95
:105390004404A4F803800CEB4C0403EB4404B2F97E
:1053A0000090B4F90380C84408EBD8784FEA680944
:1053B00091F8018008EB880801EB4808A8F80790ED
:1053C000B4F90580B2F90290C84408EBD8784FEAE6
:1053D000680991F8018008EB880801EB4808A8F8F3
:1053E0000990B4F90740B2F90480444404EBD47442
:1053F0004FEA64084C7804EB840401EB4404A4F8FD
:105400000B804C78641CE4B24C70202C28BF81F8CF
:1054100001E00C78202C3CBF641C0C7090F8251027
:10542000002903BF012180F8251064460CF1010119
:1054300000E022E01CBFCCB280F825E004EB440180
:1054400003EB4101B1F80380A2F80080B1F80580B8
:10545000A2F80280B1F8071091800CF1010105F16A
:10546000010CC9B21FFA8CF580F82410AF423FF648
:1054700071AF90F82510FF292BD08AF880E090F8C2
:105480002610102922BF80F826E08BF800E0BDE846
:10549000F09F9BF80000411EA14236DD001B401E1C
:1054A00000EB4000420004EB44000BEB400000F135
:1054B00009010BF1030001F0FEFB9BF8000000283E
:1054C00008BFBDE8F09F001B401E8BF80000BDE840
:1054D000F09F0AEB470030F8021CAAF80010C08FBA
:1054E00006EB4601AAF8400003EB41020120824985
:1054F0008AF8800052F803CCC1F808C3B2F8012042
:10550000A1F80C231870BDE8F09F8BF800E0BDE80F
:10551000F09F7A4870477A4870477A4870477A48CF
:1055200090F82F0070477848407A70472DE9F05F77
:10553000764E044600252E22B11C304601F0BBFBFE
:10554000714AF48592F82700C04310F0FF0082F8FA
:10555000270040F0BB8106F1320026464168016019
:105560008368C0E90134002904BF466006604168D1
:105570000068314408446649012781FB0010A0EB14
:10558000E07C92F82E10002000291CBF491E82F8F2
:105590002E1040F0F7805F494FF4FA7E0B785A499D
:1055A00091F82F101BB3DFF86081B2F87AA0B2F83F
:1055B000563098F804600AEB0309022398F8038038
:1055C000E14501DB082977D2012E18BFA2F854006B
:1055D0001771D171B2F854604FF00809761CB6B259
:1055E000A2F85460464538D8082958D3CAE041F299
:1055F0007073A2F87A304FF47A63A2F87C3044F6E4
:1056000020639C4507DD0B2970D9C91E82F82F1035
:1056100082F82E70B3E041F288339C4566DAD1718E
:10562000332963D2A3EB0C0393FBFEF3002B00F0B2
:105630005081032B00F24F810F2902D2022B00F27E
:105640004C811944C9B282F82F1082F82E70332988
:1056500024BF332182F82F1091E008291ED982F847
:105660002E30D370ACEB0A0303F1FA0393FBFEF385
:10567000A2F85600A2F85800022B88BF03230F2976
:1056800002D2022B00F22B8103F10808414526BF0C
:10569000C91A82F82F1082F82F9009E008D282F8F8
:1056A0002F9082F82E30D370A2F85600A2F858003E
:1056B000642E61D95DE0FFE7B2F87CA0B2F858B083
:1056C000AAEB0B0AE24501DC33297BD3002E18BF7D
:1056D000A2F854001071D171B2F85460761CB6B2C1
:1056E000A2F85460B04517D3332936D84AE00000F9
:1056F00008230010AA5F0310785E0310DAD70C00AD
:10570000E6D70C00CED70C00B02100104A5F031082
:1057100056555555A05F031033291DD2A9EB0C082F
:1057200008F1FA0898FBFEF8B8F1020F88BF4FF0B5
:1057300003080F2902D2B8F1020F7CD84144332963
:1057400028BF332182F82F10A2F85600A2F8580083
:1057500082F82E30D3700AE009D9332182F82F1055
:1057600082F82E30D370A2F85600A2F85800642EAA
:1057700002D96421A2F8541092F82E1011B1A2F8A7
:1057800054000125FE49DFF8F8934FF00B0A0B880F
:10579000B9F80260194600BF39F8048F9E4288BFED
:1057A00033468E4298BF3146B9F80260984588BFAB
:1057B0004346884598BF4146BAF1010AECD19C4264
:1057C0007DD800E041E08C427AD35B1A9BB241F273
:1057D0008838434588BF884503D900291CBF102657
:1057E0001676E84EBCF5004F3381A8BF47F6FF7C24
:1057F000A6F804C0062B28BF82F8310005D292F823
:1058000031C00CF1010C82F831C00F2B88BF82F837
:10581000320004D892F832305B1C82F8323092F8B1
:105820003130402B2CD892F832C0BCF1F00F88BF39
:10583000444525D800E054E0B1F5FA5F46D992F826
:105840002FC0BCF1080F41D11AE0022E18BFA2F8F8
:1058500054001371B2F854104FF47A73491C89B292
:10586000A2F85410102905D91826D670A2F858307D
:10587000A2F85630B1F57A7F38BFA2F8543081E7EC
:1058800082F82F00012582F830704FF0030C82F867
:105890002BC0402B84BF042182F82B100CD892F827
:1058A0003230F02B88BF052104D8B1F5FA5F88BFEC
:1058B000092101D982F82B105071507001E013E0DA
:1058C00014E092F82B00B07082F82C002846BDE856
:1058D000F09F0123B0E60323AEE60223B1E60223E4
:1058E000D2E64FF0020829E723466AE721466CE733
:1058F0002DE9F05FA44D0024264695F82F80274619
:10590000FFF704FCDFF884B29BF88210002904BF83
:105910000020BDE8F09F11F001001CBFBBF8006043
:10592000BBF8407081420FDD0BEB4002801C1388F6
:1059300003EB060C5688B2F84030B2F842203B44E4
:10594000D71866448142EFDCB6FBF1F0B7FBF1F10A
:105950004FF40062A5F852208D4A80B20026508094
:1059600091806978491CC9B26970042924BF6E709E
:105970006E7295F83310834F802980F01F8195F85F
:1059800030104FF0010E99B195F8350032289CBFC8
:10599000B5F88000642840F23181282085F82F0076
:1059A00085F8306085F82B600124AE7100F026B9CF
:1059B00078494FF00209497901292AD1B0F5487F89
:1059C00003D295F82F10332906D0B0F57A7F20D274
:1059D00095F82F0010281CD995F82B0078B100BF3E
:1059E00085F82F6085F830E085F82B9085F82C90AD
:1059F00087F802906E7101246E7000F001B9687929
:105A0000401CC0B26871082888BF85F82B90E7D881
:105A1000F4E06E7195F82C0008B30B2085F82B008C
:105A200085F82C60BE70BBF80000A5F87E00E87910
:105A300095F82D10884298BF084685F82F00302130
:105A40004F4801F0F9F90D21534801F017FA85F894
:105A5000316085F8326085F82E900124D3E04E48FD
:105A600085F82B60A0F226220178002975D0D28D0E
:105A7000B5F87E309B1A3233642B06D9A0F80B6040
:105A8000A0F80960A5F87E200BE0B0F80B20521CAE
:105A900092B2A0F80B20B42A03D90124132285F86E
:105AA0002B20642900D944B1A0F80360A0F8056058
:105AB000A0F80760A0F809603FE0B0F80320521C8E
:105AC0001FFA82F9A0F80390B0F80520521C1FFAC3
:105AD00082FCA0F805C0B0F80720521C93B2A0F8D1
