:020000040006F4
:10E000007878002069E4060071E4060073E40600F5
:10E0100075E4060077E4060079E4060000000000DD
:10E0200000000000000000000000000055E40600B1
:10E030007DE40600000000007FE4060081E40600A5
:10E04000D9F9060083E40600B9FD060055FA06007A
:10E0500083E4060083E40600B9F7060083E40600C3
:10E0600083E4060083E4060083E4060083E40600FC
:10E0700083E4060083E4060083E4060083E40600EC
:10E0800083E4060031FA060083E4060083E4060018
:10E0900099FA060083E406009DFA060083E4060070
:10E0A00083E4060083E4060083E4060083E40600BC
:10E0B00083E4060083E40600000000000000000086
:10E0C00083E4060083E4060083E4060083E406009C
:10E0D00083E4060083E4060083E4060000000000F9
:10E0E0000000000000000000000000000000000030
:10E0F0000000000000000000000000000000000020
:10E10000000000000000000000000000000000000F
:10E1100000000000000000000000000000000000FF
:10E1200000000000000000000000000000000000EF
:10E1300000000000000000000000000000000000DF
:10E1400000000000000000000000000000000000CF
:10E1500000000000000000000000000000000000BF
:10E1600000000000000000000000000000000000AF
:10E17000000000000000000000000000000000009F
:10E18000000000000000000000000000000000008F
:10E19000000000000000000000000000000000007F
:10E1A000000000000000000000000000000000006F
:10E1B000000000000000000000000000000000005F
:10E1C000000000000000000000000000000000004F
:10E1D000000000000000000000000000000000003F
:10E1E000000000000000000000000000000000002F
:10E1F000000000000000000000000000000000001F
:10E20000DFF80CD000F082F900480047551D0700E8
:10E2100078780020056885F308884068FF2464B298
:10E22000EFF30585002D07D1EFF31481022291430E
:10E2300081F31488A64600472546064621273FBAA3
:10E24000F0B40024002500260027F0B4F92040B2E5
:10E250000047000030B450E8012F93B2C489234432
:10E260008489A34228BF1B1B0489A34202BFBFF3BA
:10E270002F8F002007E0C3EA020340E80134002C9E
:10E28000E9D14FF001000A6030BC704750E8012F1F
:10E29000C2EA024240E801210029F7D1704730B4B8
:10E2A00050E8022F1FFAA2F3C488A34202BFBFF3B3
:10E2B0002F8F00200DE0C48923448489A34228BF06
:10E2C0001B1BC2EA034340E80234002CE8D14FF0A4
:10E2D00001000A6030BC704750E8022FC2EA2242B7
:10E2E00040E802210029F7D17047034653E8022F86
:10E2F000D988B2EB324F4FF0000017BF92B241EA1B
:10E30000014142EA014104E05A68B2EB324F08BFD2
:10E31000012043E80212002AE8D1704730B40446D5
:10E3200054E8000F0D4644E80053002BF8D1156067
:10E3300030BC704730B4044654E8000F40EA010591
:10E3400044E80053002BF7D1156030BC704730B45F
:10E35000044654E8000F00EA010544E80053002B8E
:10E36000F7D1156030BC704730B4044654E8000F54
:10E3700080EA010544E80053002BF7D1156030BC5A
:10E38000704730B4044654E8000F00EB010544E840
:10E390000053002BF7D1156030BC704730B40446F1
:10E3A00054E8000FA0EB010544E80053002BF7D11F
:10E3B000156030BC7047000030B4044654E8000FCC
:10E3C0000D4644E80053002BF8D1156030BC70476F
:10E3D00030B4044654E8000F40EA010544E8005315
:10E3E000002BF7D1156030BC704730B4044654E8B8
:10E3F000000F00EA010544E80053002BF7D1156037
:10E4000030BC704730B4044654E8000F80EA010580
:10E4100044E80053002BF7D1156030BC704730B48E
:10E42000044654E8000F00EB010544E80053002BBC
:10E43000F7D1156030BC704730B4044654E8000F83
:10E44000A0EB010544E80053002BF7D1156030BC68
:10E45000704700001EF0040F0CBFEFF30880EFF3CD
:10E46000098005F0DBBC00000648804706480047ED
:10E47000FEE7FEE7FEE7FEE7FEE7FEE7FEE7FEE774
:10E48000FEE7FEE7BDFA060001E20600202A04DBF3
:10E49000203A00FA02F1002070479140C2F12003B7
:10E4A00020FA03F319439040704740EA01039B07A9
:10E4B00003D009E008C9121F08C0042AFAD203E0F9
:10E4C00011F8013B00F8013B521EF9D27047D2B25D
:10E4D00001E000F8012B491EFBD270470022F6E74D
:10E4E00010B513460A4604461946FFF7F0FF2046CA
:10E4F00010BD30B504460020034600E05B1C93428B
:10E5000003D2E05CCD5C401BF8D030BD064C074D1B
:10E5100006E0E06840F0010394E8070098471034F3
:10E52000AC42F6D3FFF770FE88640700A8640700CA
:10E530002DE9F0438BB08046129D15F9046B0096CF
:10E5400014461F4689462B4602A81146424600F053
:10E55000B8FC02A80146129A00F0A3FC40464146CE
:10E5600002AA129B00F08DFC2046214602AA129BB3
:10E5700000F087FC2B46384639464A46009600F0A4
:10E58000A0FC02A83946129A00F08BFC02A80146B2
:10E5900042462B46009600F094FC02A80146224613
:10E5A0002B46009600F08DFC2046214642462B4625
:10E5B000009600F086FC484649462246129B00F031
:10E5C00060FC2046414602AA2B46009600F079FCEA
:10E5D000384639462246129B00F053FC38463946ED
:10E5E0004A462B46009600F06CFC204602A93246B3
:10E5F00000F031FE0BB0BDE8F083F0B589B01C46E9
:10E6000007460E461546684611461A4600F049FC74
:10E61000384639466A46234600F033FC6846694668
:10E620002A46234600F02DFC304631466A462346F2
:10E6300000F027FC09B0F0BD1AB1013A8B5C83549D
:10E64000FAE770472DE9F0478846B3F902101F46F4
:10E650000825CB1D202493FBF5F51F31954291FB36
:10E66000F4F44FFA84F928BF15460646494600F0EF
:10E6700073FA2A4630464146FFF7DEFFB7F902300B
:10E68000ED009D4220D9ED1A06EB840100228E4256
:10E690000AD251F8040D20FA05F313430B60C5F1BB
:10E6A000200300FA03F2F2E72437384631464A469F
:10E6B00000F05EFA012807D0304631463A464B4614
:10E6C000BDE8F04700F01CBFBDE8F0872DE9F0473A
:10E6D00093F9006092B004468946104631461546CB
:10E6E000984600F06FFA002840F0978002A849464B
:10E6F000424600F0D6FB43460AA8214602AA00F093
:10E70000C0FB02A80146424600F0CBFB4346484608
:10E7100049462A4600F0B5FB08F104072846294679
:10E72000424600F0BEFB204621462A463B46009664
:10E7300000F0F6FA284629462A463B46009600F0A5
:10E74000EFFA284621462A463B46009600F0B9FBE0
:10E75000204621462A46434600F093FB28462146A0
:10E7600022463B46009600F0DBFA20463B460096E8
:10E7700021462A4600F0D4FA2368DB07204613D549
:10E78000334621463A4600F0BBF9314682462046E0
:10E7900000F054FD06F18043013B54F8230040EAA9
:10E7A000CA7044F8230002E0314600F047FD2846D5
:10E7B0002146424600F075FB284629460AAA3B46F8
:10E7C000009600F07EFB284629460AAA3B460096A2
:10E7D00000F077FB0AA801462A463B46009600F067
:10E7E00070FB204621460AAA434600F04AFB02A8D5
:10E7F00002463B462146009600F063FB2046294630
:10E80000324600F028FD28464946324600F023FDF6
:10E81000484602A9324600F01EFD12B0BDE8F0875E
:10E8200000487047D86307002DE9F04FEFB01E464F
:10E83000789C059023780493B4F9023092461F33F4
:10E84000202293FBF2F3DBB206939DF9187094F942
:10E85000012007F1FF3926AB002543F829506EABA4
:10E8600003EB89034EA88B46314643F8805C43F89E
:10E87000605CFFF7E1FE94F9012056A8B118FFF79C
:10E88000DBFE9DF910604EA8314600F09BF98046F2
:10E89000002840F02F8156A8314600F093F9054634
:10E8A000002840F0258104F1240840464EA93A464C
:10E8B00000F05EF9012840F01D81404656A93A4615
:10E8C00000F056F90128089040F014813B461EA83C
:10E8D00056A9424600F03DFA0DF1380C6046594603
:10E8E000524623464CF82950CDF80CC0FFF7AAFE3B
:10E8F000DDF80CC00097604661461EAA4346CDF87D
:10E9000024C00DF5BC7900F0AAFA4346009716A87A
:10E910004EA91EAA00F0A3FA48463246059900F017
:10E920009AFCB300039309EB030B039A059B58462B
:10E930009918324600F08FFC04F144031946324620
:10E9400036A8079300F087FC04EB860132463EA808
:10E95000443104F1040A00F07EFC494600961EA8EA
:10E9600036AA534600F0ADFA4A465B4636A83EA9A1
:10E970000094FFF7DDFD1EA801463346524600F025
:10E98000E8F91EAA484659462346FFF736FEDDF849
:10E9900024C0079B0B936046059B0C933946CDF82A
:10E9A00014C00A95CDF8349000F026FC394605468F
:10E9B00016A800F021FCA842B8BF284685B2DDF8B1
:10E9C00014C06F1E3FB26046394600F0C9FD39469B
:10E9D00010F1000916A818BF4FF0010900F0C0FDA2
:10E9E000002814BF0223002343EA09090DF1280B74
:10E9F00032465BF8297026A8394600F02CFC039BB0
:10EA00003246F9182EA800F026FC31461EA800F068
:10EA1000A3F8023D089B1E93AEB237B2002F44DB31
:10EA200023461EAAD4F8A45026A82EA9A8473946E2
:10EA30000EA800F095FD3946051C16A818BF012543
:10EA400000F08EFD002814BF022300231D430AABF3
:10EA500053F8257037B39DF9105036A839462A4629
:10EA600000F0F9FB039B3EA8F9182A4600F0F3FBDF
:10EA700036A83EA91EAA2346FFF7BFFD46A826A931
:10EA800036AA5346009500F01CFA36A83EA926AADD
:10EA90002EAB0094FFF74CFD1EA8014646AA234664
:10EAA00000F0EFF9013EB6B2B7E79DF910501EA88D
:10EAB000014652462B4600F04CF9234626A82EA9C3
:10EAC0001EAAFFF79AFD9DF91840404626A9224646
:10EAD00000F04EF8012805D026A8014642462346FC
:10EAE00000F00EFD26A84EA92A4600F056F802E0D6
:10EAF000404600E028466FB0BDE8F08F00000000FF
:10EB0000C3F10803DB0070B501330446002003A500
:10EB10005B1920C940CAAD1920C4184720C940CA92
:10EB2000754120C420C940CA754120C420C940CACB
:10EB3000754120C420C940CA754120C420C940CABB
:10EB4000754120C420C940CA754120C420C940CAAB
:10EB5000754120C4404170BD10B5002253B28B42B4
:10EB600005DA1BB2002440F823400132F6E710BD5D
:10EB700010B5013AD2B253B2002B09DB1BB250F8E8
:10EB8000234051F823309C4204D8F2D2FF2002E007
:10EB9000002000E0012040B210BD013A30B5D2B2F1
:10EBA000002453B2002B09DB1BB2013A51F8235069
:10EBB00050F823306B401C43D2B2F2E7B4FA84F031
:10EBC000400930BD10B500231A465CB28C4204DA0D
:10EBD00050F8244001332243F7E7B2FA82F04009AB
:10EBE00010BD00002DE9F043A3B09846019112AB8F
:10EBF0004146074610469146009300F0FDFAC0EBEF
:10EC0000881086B2454C33B21C40002CBEBF04F1C4
:10EC1000FF3464F01F040134202593FBF5F5EDB2B9
:10EC20006DB2A4B202A8294624B2FFF795FF28B21C
:10EC300002AB002C03EB800010DD0022134643459D
:10EC400010D259F8235005FA04F10A4340F8232062
:10EC5000C4F1200225FA02F20133F0E749464246A8
:10EC600000F0F9FA0FFA88F502AB4FEA45090124E2
:10EC700003EB8505330444D40022114653B24B45BF
:10EC800022DA0DF1880E0EEB840E0DF1880C18B20D
:10EC90005EF888EC0CEB83035EF820E053F8803CD0
:10ECA000C3EB0E035B1A734502D08CBF0121002118
:10ECB000C4F1010E0DF1880C0CEB8E0E01325EF8E2
:10ECC00088EC4EF82030D9E7621A544202A8414637
:10ECD000544100F0B3FA22AA08F1FF3302EB830398
:10ECE00002EB8802284652F8801C53F8802C013E23
:10ECF00042EAC172414643F8802CB6B200F09EFA57
:10ED0000B8E722AB03EB8404384654F8881C42462B
:10ED100000F0A1FA23B0BDE8F08300BF1F0000801F
:10ED200070B59DF910401D4623460646FFF7E8FEE4
:10ED300030B9284631462246FFF71AFF012807D08E
:10ED4000304631462A462346BDE8704000F0D8BB25
:10ED500070BDF0B50646A1B00F46084619461546E7
:10ED60001C46FFF72FFF20B130462146FFF7F4FE87
:10ED700073E068463946224600F06DFA08A8294635
:10ED8000224600F068FA10A82146FFF7E5FE0123AD
:10ED900018A821461093FFF7DFFE684608A922460F
:10EDA000FFF7E6FE002853D0009BDA0704D468463C
:10EDB000214600F043FA26E0089BDB0704D408A8AC
:10EDC000214600F03BFA3DE000281EDD08AA23465C
:10EDD0006946684600F094FB6846214600F02EFA2A
:10EDE00010A818A92246FFF7C3FE002805DA10A8CC
:10EDF00001462A462346FFF783FE10A8014618AABB
:10EE0000234600F07DFB10A81DE008A86A462346B3
:10EE1000014600F075FB08A8214600F00FFA18A87B
:10EE200010A92246FFF7A4FE002805DA18A801461B
:10EE30002A462346FFF764FE18A8014610AA234677
:10EE400000F05EFB18A82946224600F06BFCA4E700
:10EE5000304610A9224600F0FEF921B0F0BD70B591
:10EE600090B006469DF950401D466846234600F086
:10EE70003AF8304669462A462346FFF7B3FE10B0FB
:10EE800070BD30B51C4691B0054693F90030684618
:10EE900000F029F8D4F8AC3028466946984711B0FC
:10EEA00030BD30B5144691B0054692F90020684651
:10EEB00000F0DEF9D4F8AC3028466946984711B026
:10EEC00030BD70B59DF910401D462346064600F042
:10EED00017FB38B1304631462A462346BDE870401C
:10EEE000FFF70EBE70BD2DE9F04F08B4F8CA04B4A8
:10EEF00051F8042BA3FB028940F8048B4FF0000A61
:10EF0000E4FB629A4FF0000BE5FB62AB4FF0000CA4
:10EF1000E6FB62BC4FF0000EE7FB62CE51F8042B1B
:10EF20004FF00008E3FB628940F8048BE4FB629A2F
:10EF3000E5FB62ABE6FB62BCE7FB62CE51F8042B5B
:10EF40004FF00008E3FB628940F8048BE4FB629A0F
:10EF5000E5FB62ABE6FB62BCE7FB62CE51F8042B3B
:10EF60004FF00008E3FB628940F8048BE4FB629AEF
:10EF7000E5FB62ABE6FB62BCE7FB62CE51F8042B1B
:10EF80004FF00008E3FB628940F8048BE4FB629ACF
:10EF9000E5FB62ABE6FB62BCE7FB62CE40F8049B9C
:10EFA00040F804AB40F804BB40F804CB40F804EB55
:10EFB0000CBC052B00F01E810C68A0F11400A1F11F
:10EFC0001401A2F1140252F804EB4FF0000550F8BE
:10EFD000046BE4FB6E5652F804EB50F8047BE4FB40
:10EFE0006E6752F804EB50F8048BE4FB6E7852F82D
:10EFF00004EB50F8049BE4FB6E8952F804EB50F8E4
:10F0000004ABE4FB6E9AA0F1140052F8044B51F8E3
:10F0100004EB4FF0000CE4FB6EC540F804CB51F854
:10F0200004EBE4FB6E5640F8045B51F804EBE4FBA0
:10F030006E6740F8046B51F804EBE4FB6E7840F81F
:10F04000047B51F804EBE4FB6E8940F8048B51F823
:10F0500004EBE4FB6E9AA0E80006062B00F0CA80E1
:10F060000C68A0F11800A1F11801A2F1180252F8E1
:10F0700004EB4FF0000550F8046BE4FB6E5652F8B9
:10F0800004EB50F8047BE4FB6E6752F804EB50F895
:10F09000048BE4FB6E7852F804EB50F8049BE4FB1D
:10F0A0006E8952F804EB50F804ABE4FB6E9A52F808
:10F0B00004EB50F804BBE4FB6EABA0F1180052F86F
:10F0C000044B51F804EB4FF0000CE4FB6EC540F824
:10F0D00004CB51F804EBE4FB6E5640F8045B51F8A6
:10F0E00004EBE4FB6E6740F8046B51F804EBE4FBBF
:10F0F0006E7840F8047B51F804EBE4FB6E8940F82D
:10F10000048B51F804EBE4FB6E9A40F8049B51F831
:10F1100004EBE4FB6EABA0E8000C072B6AD008B44C
:10F120000C68A0F11C00A1F11C01A2F11C0252F814
:10F1300004EB4FF0000550F8046BE4FB6E5652F8F8
:10F1400004EB50F8047BE4FB6E6752F804EB50F8D4
:10F15000048BE4FB6E7852F804EB50F8049BE4FB5C
:10F160006E8952F804EB50F804ABE4FB6E9A52F847
:10F1700004EB50F804BBE4FB6EAB52F804EB50F820
:10F1800004CBE4FB6EBCA0F11C0052F8044B51F818
:10F1900004EB4FF00003E4FB6E3540F8043B51F8FC
:10F1A00004EBE4FB6E5640F8045B51F804EBE4FB1F
:10F1B0006E6740F8046B51F804EBE4FB6E7840F89E
:10F1C000047B51F804EBE4FB6E8940F8048B51F8A2
:10F1D00004EBE4FB6E9A40F8049B51F804EBE4FB6B
:10F1E0006EAB40F804AB51F804EBE4FB6EBCA0E856
:10F1F000001808BCBDE8F08F0139C9B24BB2002B32
:10F200000BDA013111F0FF0315D059B201F180433F
:10F21000013B50F82320002304E050F82330002B5A
:10F22000EAD0EEE712B152080133FBE7481E03EBC8
:10F23000401080B200E0184600B2704700EB810138
:10F240000023884206D251F8042D43EA52030B6092
:10F25000D307F6E7704730B5002463B2934206DA6D
:10F260001BB2013451F8235040F82350F5E730BD6C
:10F270002DE9F04FB1E8005E06B4AAFB09124FF089
:10F280000003EBFB69234FF00004ECFB69344FF003
:10F290000005EEFB69454FF00006EBFB6A63ECFBF3
:10F2A0006A344918524176415B41A9FB09784FF015
:10F2B000000949F1000918EB0108A0E88001AAFB48
:10F2C0000A78574158EB0608A0E88001EEFB6A4532
:10F2D0004FF0000A4AF1000A4FF00001ECFB6B14FA
:10F2E000EEFB6B454FF00002EEFB6C255FEA59091F
:10F2F0004941644152416D4149F10009EBFB6B3AD0
:10F300001AEB010AA0E80804ACFB0C6A66415AEB50
:10F31000020AA0E84004AEFB0E6A6E415AEB090AED
:10F32000A0E8400406BC052A00F0E680A0F1140025
:10F33000A1F11401B1E8E043A5FB0E344FF0000544
:10F34000E6FB6E454FF00006E7FB6E564FF00007F8
:10F35000E8FB6E674FF00008E9FB6E784FF000099C
:10F36000DB1864416D4176417F4158EB080859F143
:10F37000000950F804CB13EB0C0350F804CB54EB0A
:10F380000C0450F804CB55EB0C0550F804CB56EBAD
:10F390000C0650F804CB57EB0C0758F1000859F154
:10F3A0000009A0F11400EEFB0E89A0E8F803062A7C
:10F3B00000F0A280A0F11800A1F11801B1E8E04727
:10F3C000A5FB0E344FF00005E6FB6E454FF000063E
:10F3D000E7FB6E564FF00007E8FB6E674FF0000842
:10F3E000E9FB6E784FF00009EAFB6E894FF0000AE6
:10F3F000DB1864416D4176417F4158EB080859EBB9
:10F4000009095AF1000A50F804CB13EB0C0350F829
:10F4100004CB54EB0C0450F804CB55EB0C0550F81E
:10F4200004CB56EB0C0650F804CB57EB0C0750F806
:10F4300004CB58EB0C0859F100095AF1000AA0F16D
:10F440001800EEFB0E9AA0E8F807072A54D0A0F1A6
:10F450001C00A1F11C01B1E8E04FA5FB0E344FF0F8
:10F460000005E6FB6E454FF00006E7FB6E564FF0D9
:10F470000007E8FB6E674FF00008E9FB6E784FF07D
:10F480000009EAFB6E894FF0000AEBFB6E9A4FF021
:10F49000000BDB1864416D4176417F4158EB080851
:10F4A00059EB09095AEB0A0A5BF1000B50F804CB3F
:10F4B00013EB0C0350F804CB54EB0C0450F804CBC2
:10F4C00055EB0C0550F804CB56EB0C0650F804CB6A
:10F4D00057EB0C0750F804CB58EB0C0850F804CB52
:10F4E00059EB0C095AF1000A5BF1000BA0F11C006A
:10F4F000EEFB0EABA0E8F80FBDE8F08F00000000B7
:10F50000C3F10803DB0070B50133002403A500BF7D
:10F510005B1920C940CAAD1B20C0184720C940CA8A
:10F52000B54120C020C940CAB54120C020C940CA49
:10F53000B54120C020C940CAB54120C020C940CA39
:10F54000B54120C020C940CAB54120C020C940CA29
:10F55000B54120C06441B4FA84F0400970BD00BFD9
:10F560004A11012301F01F0150F822008B4018407E
:10F5700070470000F0B50C4689B008220646FFF738
:10F580006AFEE36A0393236B0493636B0593A36B97
:10F590000693E36B0793002769466A46082368468B
:10F5A000029701970097FFF7ABFA314605466A4686
:10F5B00008233046FFF7A4FA236B0393636B04938D
:10F5C000A36B0593E36B0693054469466A460823DB
:10F5D00068460797FFF794FA314605446A460823C0
:10F5E0003046FFF78DFA236A0093636A0193A36A9A
:10F5F0000293A36B0693E36B0793054431466A4677
:10F6000008233046059704970397FFF779FA636A52
:10F610000093A36A0193E36AA26B0293636B039363
:10F6200004920693E26B236A0592054407933146E0
:10F630006A4608233046FFF763FAE36A0093236BB8
:10F640000193636B0293236A0693A36A07930544AD
:10F6500031466A4608233046059704970397FFF71B
:10F660004FFF236B0093636B0193A36B0293E36BD8
:10F670000393636A0693E36A07932D1A31466A4639
:10F680000823304605970497FFF73AFF636B009312
:10F69000A36B0193E36B0293236A0393636A04935E
:10F6A000A36A0593236B07932D1A31466A460823F4
:10F6B00030460697FFF724FFA36B0093E36B01939B
:10F6C000636A0393A36A0493E36A0593636B0793E6
:10F6D0002D1A314630466A46082302970697FFF7EF
:10F6E0000FFF2D1A16D5304631460D4A0823FFF775
:10F6F00007FA4519F7D410E0094831460822FFF708
:10F7000037FA012809D030463146054A0823FFF769
:10F71000F7FE2D1A002DEFD0F5E709B0F0BD00BFC0
:10F72000DC630700F8B5036813F0010506460F46D1
:10F73000144605D001463A462346FFF7E1F905464F
:10F7400030462146FFF77AFD45B104F18042013A87
:10F7500056F8223043F0004346F82230F8BD2DE938
:10F76000F04115468AB00446884602A800212022AE
:10F77000FEF7B6FE2E780323204641462A462F1D6B
:10F7800076B20293FFF78DFB2046214602AA3B4644
:10F790000096FFF796FB2046214642462B46FFF790
:10F7A00070FB00962046214605F184023B46FFF798
:10F7B000B7FA0AB0BDE8F0812DE9F04700268CB019
:10F7C000DFF86091B0464FF4807501243746069605
:10F7D000284604F0EDF938B1D9F80403204203D0EB
:10F7E000284604F0DBF926432D1D64007F1CADB2D2
:10F7F000082FEDD34FF4BE74204604F0D9F948B178
:10F80000204604F0CBF946F0004606AA012100206C
:10F8100004F0B0F9444D16F0FF0F15D00127002475
:10F8200037420DD009EB8401D1F81005D1F810153D
:10F83000C0F3042055F82420C1F3014102B19047E0
:10F840007F00641C082CEBD3002E67DA4FF0FF30EA
:10F85000CDE9088000263446281910F8547F90F925
:10F86000000027F0C008401C44D009A9404602F01F
:10F87000CDFA58B34FEA9719404600F0D9FF55F832
:10F8800020701FB1B9F1030F03D00FE0B9F1030FDE
:10F8900030D108A84FEAD80208F00703815C4FF086
:10F8A000010C0CFA03FC41EA0C0181544FF0A04119
:10F8B00001EB8800D0F8000706A9C0F3014A4046D2
:10F8C00002F0A4FA18B1BAF1020F03D012E0BAF1B3
:10F8D000030F0FD1B9F1030F08D1BAF1020F1BD0FA
:10F8E0000221404604F012F9761CF6B217B14946DF
:10F8F0004046B847641C052CAED3002E0ED06A4695
:10F900000121002004F036F906990098884205D0BC
:10F910000690089809909DE70321E2E70CB0BDE846
:10F92000F087000000600040C455002000F01F0276
:10F93000012191404009800000F1E020C0F88012D0
:10F94000704700F01F02012191404009800000F142
:10F95000E020C0F80011704700F01F020121914023
:10F960004009800000F1E020C0F80012704749070C
:10F97000090E002806DA00F00F0000F1E02080F800
:10F98000141D704700F1E02080F80014704700005B
:10F99000BFF34F8F05480168054A01F4E061114348
:10F9A0000160BFF34F8F00BFFDE700000CED00E0EA
:10F9B0000400FA05BFF34F8F05480168054A01F4BA
:10F9C000E06111430160BFF34F8F00BFFDE700000E
:10F9D0000CED00E00400FA052DE9F0414FF48077CA
:10F9E000384602F091FA0124104EA50748B1384676
:10F9F00002F091FA0120C5F808037470002000F0AD
:10FA000051FF4FF48277384602F07EFA00280BD07F
:10FA1000384602F080FA0220C5F80803B470BDE849
:10FA2000F041012000F03EBFBDE8F0816C550020A0
:10FA300007480021C0F84011C0F84411C0F848112F
:10FA4000C0F84C11C0F80011C0F8041105F0D2BD87
:10FA50000010014038B50F480D4C0025C0F8085182
:10FA6000D0F808110091214605F012FE00280ED1B1
:10FA7000A07FFF2801D004F076F865772572D4E9DD
:10FA8000002101B004F10800BDE83040104738BD46
:10FA9000A05500200030004005F0FABC10B5002150
:10FAA000054A084600F080FA002803D0BDE810405F
:10FAB00000F046BA10BD000041040700F0B5AE48A2
:10FAC0000023021D01780125101D4FF080540629E6
:10FAD0000BD11678360708D10678C6F30316032E25
:10FAE00006D0042E04D0052E02D0062907D00EE041
:10FAF000B4F82463A14FC6F304263E6002E01678F2
:10FB0000360704D10678C6F30316032E02D0062961
:10FB100004D00FE09B4F9A4E7E670EE016783607B2
:10FB200008D10678C6F30316032E06D0042E04D09F
:10FB3000052E02D0062907D00EE0D4F84462924F79
:10FB4000C6F342363E6002E01678360704D10678E6
:10FB5000C6F30316032E02D0062906D011E08B4E01
:10FB6000376827F0807737600EE01678360708D1BF
:10FB70000678C6F30316032E06D0042E04D0052EF5
:10FB800002D006290AD011E04FF08046C6F80C31A9
:10FB9000C6F810317C4E361F336002E01678360707
:10FBA00004D10678C6F30316032E02D0062905D029
:10FBB0000CE0754F032664373E600AE0167836077E
:10FBC00004D10678C6F30316032E02D006290DD001
:10FBD00014E06F4F05263E606D4E783635606C4EF2
:10FBE000083633603F263F1D3E6002E01678360738
:10FBF00004D10678C6F30316052E02D0062957D085
:10FC000062E0644E3668644F3E60624E361D366870
:10FC10003F1D3E605F4E083636683F1D3E605D4EBC
:10FC20000C3636683F1D3E605A4E103636683F1D12
:10FC30003E60584E143636683F1D3E60554E1836AD
:10FC40003668554F20373E60524E1C3636683F1D91
:10FC50003E60504E203636683F1D3E604D4E243685
:10FC600036683F1D3E604B4E283636683F1D3E606D
:10FC7000484E2C3636683F1D3E60464E303636685C
:10FC8000454F40373E60434E343636683F1D3E6038
:10FC9000404E383636683F1D3E603E4E3C36366834
:10FCA0003F1D3E603B4E403636683F1D3E6002E0E1
:10FCB0001678360708D10678C6F30316032E06D049
:10FCC000042E04D0052E02D0062907D019E0D4F85E
:10FCD0005812324A01F04F01116002E01178090711
:10FCE0000FD10078C0F30310032803D0042801D0FB
:10FCF000052806D12A480168C90702D06FF0010122
:10FD0000016022487438016841F470010160BFF35A
:10FD10004F8FBFF36F8F4FF01021D1F800020028F2
:10FD200003DBD1F80402002822DA1E4A15601E48BF
:10FD30000468002CFCD01524C1F800420568002D91
:10FD4000FCD0C1F8044201680029FCD013600168AE
:10FD50000029FCD0BFF34F8F0C48F0380168134ADC
:10FD600001F4E06111430160BFF34F8F00BFFDE775
:10FD700010490F480860F0BDE00F00F04035014029
:10FD80000DF0ADBA00C007403C050040FCED00E0BE
:10FD9000105600400404001020C50040E40E00404E
:10FDA0000004004004E5014000E401400400FA05BD
:10FDB0000090D003242200200448017F0448002939
:10FDC000024901D005F0C5BD05F034BD80550020C5
:10FDD0000020004002E008C8121F08C1002AFAD122
:10FDE00070477047002001E001C1121F002AFBD1BB
:10FDF000704700000121202803DA814005480140B6
:10FE000003E0402802DA2038814009B10120704720
:10FE100000207047FC06FFBD082806D228B1012843
:10FE200003D0042801D001207047002070478007CC
:10FE300001D00020704701207047C3688B4206D86C
:10FE400011440069491E814201D8012070470020F9
:10FE5000704700001C4B8EB00DF1240C0FCB8CE8CA
:10FE60000F001621ADF8201002218DF8001001229C
:10FE700006208DF801208DF8020003208DF8030084
:10FE80008DF8041059208DF80500FE208DF806002D
:10FE900008A90DF109007DDF68B9BDF82000411CFB
:10FEA0008DF80710092109308DF80810C1B2002320
:10FEB0001A46684672DF002803D174DF012109A8C1
:10FEC00073DF0EB0704700002061070030B50346B5
:10FED00000200246064D07E09C5C521C84EA106438
:10FEE00055F8244084EA00208A42F5D330BD000052
:10FEF000185D070070B50023074E146807E0C55C65
:10FF00005B1C85EA146556F8255085EA04248B426B
:10FF1000F5D3146070BD0000185D0700BFF34F8F6C
:10FF200005480168054A01F4E06111430160BFF32F
:10FF30004F8F00BFFDE700000CED00E00400FA0564
:10FF40000EB500210091CDE901106A4644F201008E
:10FF5000FFF7E4FF0EBD10B58268C368934203D07B
:10FF600001F0FAFC002010BD052010BD29B112B12E
:10FF7000531E134203D0092070470E2070470160C2
:10FF8000838000218160C1600846704710B5826897
:10FF9000C3689A1A83889A4203D801F0E7FC0020CC
:10FFA00010BD042010BD00002DE9F84F254C8146FE
:10FFB000924660880E46814241D800274FF6FF786E
:10FFC0008DF80070684600F0A1F922786078A18869
:10FFD000884201DA401C00E00020C0B2904204D107
:10FFE0009DF8000000F0B6F927E065786078884257
:10FFF00001DA401C00E0002060709DF8000000F075
:020000040007F3
:10000000A9F9454519D0A068B9F1000F40F835A00D
:100010000DD066B16188E068324605FB01004946B3
:10002000FEF743FAA06800EBC500868002E000EB13
:10003000C50087800020BDE8F88F0420FBE7092079
:10004000F9E70000E021002010B50E4C03E0401C51
:1000500000E00020207020786178814210D0227862
:100060006188E068A36802FB010003EBC20153F85A
:100070003220898890472078A1888842E9DAE6E72B
:1000800010BD0000E021002030B5CB0008339DB248
:1000900093074FF0000401D0072030BD044B9A6055
:1000A0002A44DA605C701C7058809980002030BD52
:1000B000E0210020084B9B7823B12AB120B10068D1
:1000C000037C1BB10820704707207047002303748E
:1000D00041744261184670472056002070B504F004
:1000E000C3FE104800240B21047044700E4D817033
:1000F00014206C602C706C70FFF718FC0721142022
:10010000FFF735FC1420FFF71CFC084804600721AA
:100110001120FFF72CFC0548001F0068A860002094
:1001200070BD000020560020F0210020081501407D
:100130002DE9FC47DFF8789099F8023073B368B383
:10014000052902D20720BDE8FC87436933B3437C0D
:10015000012B25D0002704460025884616468DF839
:100160000050684600F0D2F801A805F08BFCC8B139
:10017000012101700F4944600968C0E90218C0E913
:1001800004769DF8040089F801009DF8000000F055
:10019000E1F81420FFF7E0FB2846D4E70820D2E777
:1001A0000F46D8E704259DF8000000F0D3F8F3E7E8
:1001B00020560020041501400649897839B130B134
:1001C000416921B100210174022105F0EFB9082035
:1001D000704700002056002010B5024803F01EFBB7
:1001E000002010BD1822002070B50A4E01460A48B2
:1001F000B578FFF7B0FE04464DB10020B070711C19
:100200000122C81D03F05CF908B1FFF799FE2046F2
:1002100070BD00001022002058580020F0B5284E74
:1002200089B01F460D00044672603BD0A88829683B
:1002300082B22448FFF79AFE002834D1A889A96821
:1002400082B220481030FFF791FE00282BD12022E7
:100250001D496846FEF729F960690690207C00B1C7
:1002600001208DF814008DF81C70607C00B10E2008
:100270008DF81500E0680290A06803902068019056
:10028000606800900E48114A6946083003F0E4F8AF
:10029000002808D1B0702068401C04D09DF81D00D3
:1002A00018B106E0072009B0F0BD0548083003F09A
:1002B0005FF903490122491CC81D03F001F9F2E767
:1002C0001022002058580020F062070095570700C0
:1002D00010B501460B48FFF759FE040010D10A483B
:1002E00003F090FA60B9084906480839FFF733FE71
:1002F00030B9054901220839034803F0FDF90446E5
:10030000204610BD685800201822002030B5EFF3B9
:10031000108172B60D4A9468012324B1037000293C
:1003200000D162B630BD93604FF0E023D3F8805126
:10033000074C25401560C3F88041D3F884415460D0
:100340005A17C3F8842100220270E8E72C570020D6
:10035000FC06FFBD0B498A68002A11D000280FD186
:10036000EFF3108072B60B684FF0E022C2F8003154
:100370004B68C2F8043100228A60002800D162B6BE
:10038000704700002C5700202DE9F0410646086810
:100390000C46411C4FF0A0474FF0010506D005FA6E
:1003A00000F1C7F80815206803F0A6FB6068411C3F
:1003B00002D0002103F08DFB3079204901EB401081
:1003C000A169007F00283068C0F8241525D0607D21
:1003D000227D31681043C1F86C05D4E90012306801
:1003E000C0F80C15C0F8142524E0A068411C02D008
:1003F000002103F06EFBE068411C05D08540C7F882
:100400000855E06803F078FBD4E902123068C0F8C0
:100410000825C0F81015BDE8F081607D217D3268A7
:100420000843C2F86C05D4E900123068C0F81425FE
:10043000C0F80C15207D0128D7D0ECE780550020AE
:1004400003F080BC30B50546154C85B04FF6FF7003
:10045000208001208DF812004FF65960ADF8100091
:100460002A4604A90120A0DF002817D10D4B0FCB8D
:100470008DE80F00A91C684662DF00280ED12846CF
:1004800000F08EFD002809D1284600F03FFC00282E
:1004900004D1A06840F00100A060002005B030BD8C
:1004A000CC210020306107000B4810B502880024E1
:1004B000A2F57F41FF390CD0816841F004018160D1
:1004C0001321104676DF040005D1044801F0E6FE52
:1004D00000E074DF204610BDCC210020400D030059
:1004E00010B5012000F0E8F8002818D102F05CFDFA
:1004F00038B10B4802F04CFD0A48816841F0020116
:10050000816001F03DFA002809D105482838FFF73D
:1005100099FF002803D1BDE81040FFF79BBC10BD38
:1005200090500020CC2100203EB54A4C018800228A
:10053000238800F10805232973D021DC13292FD04B
:1005400011DC012953D0102924D011290AD1207A95
:10055000400704D4FFF77EFC08B1FFF7F1FC4FF62B
:10056000FF7020803EBD142955D01A295AD01F296A
:100570002DD02129F6D10092808869468FDF21E0B5
:1005800050390829EED2DFE801F053364D04045A01
:100590002607E7E78088E4E7BDE83E4002F040BC7C
:1005A0002D486A4642F605210068009002A8019095
:1005B0001846A5DF08B1FFF7C3FC00231A468521C2
:1005C00020887FDF0028CDD0FFF7BAFC3EBD29464A
:1005D000184675DF05E080790028F7D11321184609
:1005E00076DF0028F2D0BDE83E40FFF7A9BC00212D
:1005F000184666DFF5E781790029E7D001461748FC
:1006000003F0F4FC0028E1D003B02946BDE83040F7
:10061000124803F04DBC00210A4680880B4686DF55
:10062000DFE710E0002380881A461946A9DFD8E7E3
:1006300003B00146BDE83040084803F07FBD808824
:100640001721ADDFCDE70092019280880022694634
:1006500090DFB7E7CC210020186107006850002028
:100660001FB50A0001460DD000290BD010460A889C
:10067000502A17D007DC102A12D0112A02D14FF6C7
:10068000FF7181831FBD532AFCD0572AFAD1002164
:100690000091029103910190416A684688471FBD0D
:1006A0008988EEE704B0BDE8104003F0E9BC0078AB
:1006B00000F00100704700007FB500240094019411
:1006C0000294039418B102F085FA00282CD117483F
:1006D00013DF002828D103F0FFFA08B1FFF730FC40
:1006E000684603F0A7FA00281ED1012501948DF871
:1006F00004508DF80540029403948DF8064001A93A
:100700004020009A69DF01948DF804501720ADF85D
:1007100006000294039401A92320009A69DF0028AF
:1007200002D1684603F090FA04B070BD00E0060004
:1007300030B589B000F0E6FA00F0D4FF2421684615
:10074000FDF7CCFE0122184801A900F0DDFA9DF862
:100750000440042204F5E000401D0DF1090100F001
:10076000D3FADDF8090004F5E00400BA1334CDF83B
:100770000900051948220D49284600F0C5FA00F085
:10078000A5FF00F0BDFA094C4421201DFFF79EFB98
:100790002168814202D0032009B030BD05F5806593
:1007A00000202562F8E7000004007000683A00208D
:1007B00010B543689C18446021B905E013F8010B9B
:1007C00001F8010B521EF9D2012010BD05494FF06E
:1007D000FF32082841F8202002D3084480F84C203A
:1007E00070470000C4550020F0B54FF0FF3512B13E
:1007F0000023082601E008230D260C4C05E000BF6D
:1008000054F823707F1C04D05B1CB342F8D32846F5
:10081000F0BD26185DB286F8345044F82310002A43
:10082000F5D1E11881F84C00F1E70000C455002033
:100830000249084490F9340070470000C455002074
:100840002DE9F041ADF5027D8046002014460D46AD
:100850004FF40076809018E031468C4200D2214659
:100860000F4600F04FFA00F03DFFBAB26946284645
:1008700000F04AFA00F02AFF00F042FA80AA394656
:100880006846FFF737FB3D44E41B002CE4D1809918
:10089000884504D101200DF5027DBDE8F0810020DE
:1008A000F9E7000070B5084C050009D01034216844
:1008B000002907D008682060496828468847F6E77D
:1008C0000834F4E770BD00006C5500202DE9F05F9E
:1008D00026484168F1B3DFF898B00E688146DBF82E
:1008E000004087688078E11B21F07F45ED1CB0B99E
:1008F000DFF880804FF48030C8F84403C8F8040360
:100900001120FFF713F81120FFF71BF84FF0010A31
:10091000C8F800A02F2001F04DFD89F802A0B542D3
:1009200000D23546124BE8193C3320F07F40186066
:10093000DBF800105A46091B21F07F41001B20F014
:100940007F40C91C81420FD9106818602F2001F028
:1009500031FD00E004E0BDE8F05F1120FEF7FCBFD0
:10096000BDE8F05F04F080BABDE8F09FF021002000
:100970000415014000100140F0B54FF0FF3622B1E0
:100980001268D24300230A4D0DE03246FAE7C45CF8
:1009900062400824D70700D037462F4087EA52022A
:1009A000641EF7D15B1C8B42F1D3D043F0BD000035
:1009B0002083B8EDF0B5146906468DB02068154661
:1009C000271DE0B1022920D00A2000906B4609AA19
:1009D000304604F011F900280FD009A901A8009AA7
:1009E00003F02CFF01AE96E80F0005AE86E80F007D
:1009F000236869683A4605A898470DB0F0BD0DB068
:100A00003046BDE8F04003F08DBF6946304603F044
:100A10001FFF0028F1D0236869683A466846984766
:100A20000028EAD002980028F5D1019870600120D2
:100A3000E3E753685B7813F0C00303D0402B03D087
:100A40000020704700F002B8FFF7B4BF2DE9FF4166
:100A50000B465168064614464878334D00F00F02A5
:100A600010F0300055F8225006D0102806D020286B
:100A700008D0302856D13EE022694DE0616901205E
:100A8000087047E0022B28D1042A26D84FF001082D
:100A900069463046676903F0DBFE00281AD009E09A
:100AA0000B79226913FB00226846A84770B1387899
:100AB000401C3870029820B1616838784A799042B9
:100AC000EED301987060029860BB02E04FF000081E
:100AD000F7E7404604B0BDE8F081D4E904300F796F
:100AE000027817FB023349798A421BD2521C0270EA
:100AF0001A46616810E008786169072A087009D110
:100B0000606801792069FDF7E9FC60682169806807
:100B100003F0B9FE2269616804B03046AC46BDE816
:100B2000F04160470020D5E7B463070010B50446E4
:100B30004FF4DC724FF4FE210E48FDF7B6FC0E4870
:100B400020600C4841686160C168A1608068E06015
:100B50004FF44050808920614FF01020D0F8800081
:100B60004FF08051606151F8A40F4968C4E9060153
:100B700010BD000094530020A5A101001CB524491C
:100B800022480860002002F043FA02F0BBFA08B1E4
:100B9000FFF7D6F9002002F0EFFA0B2002F087FFF2
:100BA000022002F084FF042002F081FF032002F003
:100BB0007EFF002401221420009423461146019454
:100BC00002F025FF4FF0A0414FF48010C1F80C0552
:100BD000104A10210013FFF757FA08B1FFF7B0F9D8
:100BE00000F020FA0C4928B1022008600B4801F0FF
:100BF0000FFB09E007200860002214200323009463
:100C00001146019402F003FFFEF7D4FE3546526E02
:100C100000060140B03A00201C050040A0860100FB
:100C2000054686B0002002F0F3F902F06BFA08B135
:100C3000FFF786F9002002F09FFAFFF74FFA08B19C
:100C4000FFF77EF9264A01212648FFF733FA08B15B
:100C5000FFF776F9234C00224FF4F0112068FFF7DC
:100C600067FA08B1FFF76CF90B2002F018FF0220B9
:100C700002F015FF042002F012FF032002F00FFF24
:100C80001021194A0801FFF7FFF908B1FFF758F9D9
:100C9000164800F0FFFB012D19D1E06800901448C0
:100CA000019014480290002005900C20CDF80CD043
:100CB00003244FF44875049002E0284601F05CFAE2
:100CC00003A800F07BFC10B1641EE4B2F5D20A4C1C
:100CD0000A4D2C60FFF7B8F920BF40BF20BFF8E7EE
:100CE000B55A0700E85C0700E02800201918070043
:100CF000150BE30716380F003546526E000601400B
:100D000000F090BC00F0B0BC00F0F8BC10B58EB0A4
:100D100004461C216846FDF7E1FB142108A8FDF7F5
:100D2000DDFB9DF80010002041F0180107908DF8C0
:100D30000010A1788DF836100121ADF834109DF81F
:100D40001C1004F10C0321F0FF018DF81C109DF81C
:100D50001D1008AA21F00F01491C21F0F0011031EB
:100D60008DF81D109DF81E1021F00601891C41F020
:100D700011018DF81E100DA9089107A909911721DD
:100D8000ADF82C100C9020886946A2DF0EB010BD83
:100D90001FB50E4800F15C01826B684603F04EFD02
:100DA0000B489DE80E0080E80E00094909480B4AEF
:100DB000C86009490020086048600949044803F0F8
:100DC000D7FA002800D0012004B010BD94530020B1
:100DD000C8270020A5460700902100203C220020C3
:100DE000785C070005490A6812B10A68521E0A6059
:100DF0000169002900D0084770470000D821002071
:100E00002DE9F04799461600054600F104044FF01D
:100E1000000110D0B9F1000F0DD094F88F0018B177
:100E200094F89000012854D0207A20B1E06834284A
:100E300003D006203AE0042038E094F85520032A35
:100E400011D000204FF44057237C08E004EB800CC5
:100E5000B7F80C80DCF814C0C44504D0401C8342B1
:100E6000F4DC072022E04A487AB1012A07D0022A9E
:100E700001D0032ADFD121780029DCD0C1684AB132
:100E8000022A0CD0032A0DD109E021780029D2D002
:100E90008168F4E76068884204D2052006E0606853
:100EA0008842FAD995F8A00020B10B20BDE8F047A0
:100EB00000F04CBD374F384B4A463146386801F098
:100EC000C7F830B9344895F8A120083841689142F4
:100ED00002D00A20BDE8F087006805F1A201FDF705
:100EE000E4FA2D4B2C4AD7F80200083BA2F110017E
:100EF00001F064F808B10520ECE7274D0020283DFB
:100F0000E86094F85510C9B1012924D0234802297A
:100F1000C0F5FC2018D003298DD194F85C1000296D
:100F200089D094F85610002985D0A26D216E5318EF
:100F3000EB6042B339B3814223D812E094F86400E5
:100F400000289AD0A06E0BE094F85C10002994D091
:100F5000216EE960EFE794F8560000288DD0A06D6F
:100F6000E8600D482022083004F16F010068FDF7A9
:100F70009CFAE86838B1084A0021203A01F022FDC5
:100F800018B10420A6E70320A4E70120A2E700008F
:100F9000945300209C5C0700A821002000E006007C
:100FA00010B58EB004461C216846FDF797FA14214F
:100FB00008A8FDF793FA9DF80010002041F0040105
:100FC00007908DF80010A1788DF836100221ADF849
:100FD00034109DF81C1008AA21F0FF018DF81C1098
:100FE0009DF81D1021F00F01491C21F0F001103176
:100FF0008DF81D109DF81E1021F00601891C41F08E
:1010000001018DF81E100DA9089107A9099114215D
:10101000ADF82C100C902088231D6946A2DF0EB07D
:1010200010BD000010B5FFF783FBE0B900F00AFD2A
:10103000C8B90E4CE06902280ED10D49A069C860FC
:10104000002002F00FF808B1FEF77AFF4FF4B62047
:10105000216901F0A1FD30B9002002F003F8002859
:1010600002D0FEF76DFF032010BD0000683A00209B
:10107000945300202DE9F74FDFF8B4A0ADF5805D63
:101080000E46DAF83000022805D0002003B00DF536
:10109000805DBDE8F08F4FF4405B4FF48059DBF882
:1010A000088034464D46AC4200D825460022012136
:1010B000404601F0BFFC0028E8D1FFF723FE0DF504
:1010C00080506F46AAB239460068FFF71DFEFFF751
:1010D00017FE00232A463946404601F0C9FC0700A6
:1010E000D4D10DF580500DF580510068A8442844F6
:1010F0000860641BD6D15C463146DBF80800FEF779
:10110000E5FE0DF580518968884201D00820BDE7D1
:10111000084DDAF82C100022A96001212962DAF8C2
:101120002410A961A068FFF727FCE8613846ADE705
:1011300098280020945300202DE9F74FDFF8BCA039
:10114000ADF5805D0E46DAF83000022805D00020AB
:1011500003B00DF5805DBDE8F08F4FF4405B4FF4B8
:101160008059DBF8088034464D46AC4200D825460D
:1011700000220121404601F05DFC0028E8D1FFF784
:10118000C1FD00F0AFFA0DF580506F46AAB23946A6
:101190000068FFF7B9FD00F099FAFFF7B1FD0023F1
:1011A0002A463946404601F063FC0700D0D10DF5D0
:1011B00080500DF580510068A84428440860641BE5
:1011C000D2D15C463146DBF80800FEF77FFE0DF514
:1011D00080518968884201D00320B9E7084DDAF8C8
:1011E0002C100022A96001212962DAF82410A961DB
:1011F000A068FFF7C1FBE8613846A9E7683A00201C
:10120000945300202DE9F74F2448ADF5805DC06967
:10121000022805D0002003B00DF5805DBDE8F08FF9
:101220004FF4B62A88464FF4805956460C46EB4692
:101230004D46AC4200D8254600220121304601F03F
:10124000F9FB0028E7D1FFF75DFD0DF58050AAB24C
:101250005F4659460068FFF757FDFFF751FD002331
:101260002A463946304601F003FC0700D3D10DF57C
:1012700080502E44006841190DF58050641B0160B8
:10128000D6D141465046FEF721FE0DF580518968C2
:10129000884200D004273846BDE700009828002087
:1012A0002DE9F74F2648ADF5805DC069022805D0CD
:1012B000002003B00DF5805DBDE8F08F4FF4B62A35
:1012C00088464FF4805956460C46EB464D46AC4294
:1012D00000D8254600220121304601F0ABFB002852
:1012E000E7D1FFF70FFD00F0FDF90DF58050AAB230
:1012F0005F4659460068FFF707FD00F0E7F9FFF782
:10130000FFFC00232A463946304601F0B1FB0700B6
:10131000CFD10DF580502E44006841190DF5805055
:10132000641B0160D2D141465046FEF7CFFD0DF55A
:1013300080518968884200D003273846B9E7000009
:10134000683A00202DE9F74F83462648ADF5805DC9
:10135000406C022805D0002003B00DF5805DBDE88B
:10136000F08F89460C464FF440514FF48055896800
:101370002846A1F58051A846090B002201F05AFB2E
:1013800008B1FEF7DDFDEA46AC4201D92E4600E089
:101390002646FFF7B7FCB2B2574651465846FFF70C
:1013A000B3FCFFF7ADFC2A463946404601F000FC8D
:1013B0000028D1D12A463946404601F0DFFB07001C
:1013C000CAD1B044B344A41BDED149462846FEF737
:1013D0007DFD0DF580518968884201D01020BBE762
:1013E0003846B9E7982800202DE9F74F834628486A
:1013F000ADF5805D406C022805D0002003B00DF5EE
:10140000805DBDE8F08F89460C464FF440514FF4A3
:10141000805589682846A1F58051A846090B00220D
:1014200001F008FB08B1FEF78BFDEA46AC4201D99A
:101430002E4600E02646FFF765FC00F053F9B2B2F5
:10144000574651465846FFF75FFC00F03FF9FFF75B
:1014500057FC2A463946404601F0AAFB0028CDD168
:101460002A463946404601F089FB0700C6D1B04400
:10147000B344A41BDAD149462846FEF727FD0DF5F3
:1014800080518968884201D00320B7E73846B5E724
:10149000683A002038B50F49C86001F0CBFF20B989
:1014A00001F09AFF08B1FEF74BFD03240A4A694692
:1014B0000720009401F02AFF08B1FEF741FD012149
:1014C000072001F0D1FE0548C0F80047082002F0CF
:1014D0002EFB38BDBC210020091A07002000005057
:1014E0000E4810B502780221012A10D00278002A95
:1014F00012D1017004F02AF9082002F026FB08201E
:1015000002F015FBBDE81040082002F01EBB017080
:10151000BDE8104003F0E0BD10BD0000BC2100207C
:1015200070B50D4C20780025022808D020780328BB
:1015300010D02078012801D10220207070BD04F065
:10154000FBF8082002F0F3FA082002F0FEFA082067
:1015500002F0EDFA257070BDBC21002010B504F03A
:10156000EBF8074903200870082002F0E0FA082091
:1015700002F0EBFABDE81040082002F0D8BA0000F3
:10158000BC21002070B505460A480C4600780228A8
:1015900001D0082070BD4FF480710748FCF79EFF12
:1015A000224629460448FCF780FF03F095FD002001
:1015B00070BD0000BC210020384E002070B5174DD2
:1015C0000446287818B9072001F0FCFE20B1072056
:1015D00001F0F8FE112070BD012028700020686025
:1015E000A06800B168604FF480710D48FCF776FF89
:1015F0000B496068C1F800010846D4E90012FCF705
:1016000054FF04F0A3F8082002F09FFA082002F02B
:101610008EFA082002F099FA002070BDBC2100204B
:10162000384E002010B50B2002F04AFA022002F0DA
:1016300047FA042002F044FA032002F041FA084974
:101640004FF0FF300860091D0860091D086005495A
:101650000020C1F8080102490839086010BD0000E7
:1016600008350040003000401CB5022002F03AFA74
:10167000042002F037FA0024032000942346224677
:101680002146019402F0D5F90B2002F02BFA0B2031
:1016900002F062FA0B49022008600420091D08606C
:1016A0000320091D0860880606491C3108600548AA
:1016B0004C3004600448C0F8084102490120083950
:1016C00008601CBD083500400030004010B50B20FC
:1016D00002F034FAB92003F0C7FFBDE810400B2038
:1016E00002F03ABA10B50B2002F028FAAB2003F052
:1016F000BBFFBDE810400B2002F02EBA70B50546C6
:1017000016460C460B2002F019FA032003F0ACFF3A
:10171000C5F3074003F0A8FFC5F3072003F0A4FFBB
:10172000E8B203F0A1FF04E0A52003F09DFF04F858
:10173000010B761EB6B2F7D2BDE870400B2002F066
:101740000BBA00000E4910B50A784C780023A2426B
:1017500012D0521CD2B20A70022A00D10B70084A71
:101760000B780C3252F8232002608868104420F075
:101770007F408860012010BD0360002010BD000084
:10178000F02100202DE9F84380461F4615460E46FD
:1017900000240D4800F034FB38B11120BDE8F88377
:1017A00006EB043002F00CFA641CAC42F8D1064897
:1017B00000F01FFB2B46324602214046009700F006
:1017C00079F80020EAE70000042200202DE9F84320
:1017D000104D0F4680461E4691466946286800F027
:1017E000DCFA040014D01C21FCF778FE01202071E3
:1017F000C4F81490380BC4F80080C4E9026069464C
:10180000286800F0EBFA03F0D5F90020BDE8F88372
:101810000420FBE7C061070008B5A0B1052812D07D
:1018200003280FD002280DD001280BD0062809D19B
:101830000090074A04216846FEF7B6FB002801D055
:10184000FEF77EFB08BD034801600020F0E70000C2
:10185000114F0700B821002070B50078134C002606
:1018600038B1012803D0022801D0032800D1A66096
:1018700070BD0F4DA0682844FEF7B6FC2878A52857
:10188000F6D1A268521CA260FF2AF1D9C5F8002146
:10189000A660636813B1294600209847D5F8002157
:1018A000E368BDE87040024900201847BC210020D1
:1018B0003C4F00202DE9F04186B004468068DDF8F9
:1018C00030801D4616460F4600280CD0142168466D
:1018D000FCF704FECDE902658DF80070CDF81080AC
:1018E000A1686846884706B0BDE8F08130B5044677
:1018F000006885B00D46806800281CD01421684619
:10190000FCF7ECFD0195A0680490207910B1012846
:101910000DD104E001208DF80000206904E00220D0
:101920008DF80000E0680003029060690390206871
:1019300081686846884705B030BD00000249002232
:1019400008780A7070470000DC2100200149087007
:101950000B207047DC210020826883881A400368CE
:101960009A5C0A708168491C81607047C2688388EC
:101970001A4003689954C168491CC160704700004F
:1019800010B586B000249DF80000019420F00F00EF
:10199000401C20F0F00010308DF80000029403A8E5
:1019A0006DDF002825D19DF80D00401C8DF80D003D
:1019B00003A86CDF00281CD10F48007A800703D5EC
:1019C0000E48011D806901E00DA1072082B2684622
:1019D0007CDF00280DD10620ADF804001820ADF8FA
:1019E0000600ADF808404FF4C870ADF80A0001A831
:1019F0007ADF06B010BD0000CC21002090500020FE
:101A00004466755461726700024B00221146DB6820
:101A100006201847BC21002010B502F0A5F908B136
:101A200040DF10BD054901200860012000F07CFA6C
:101A30000028FAD10249487010BD0000040000409F
:101A40006C55002070B5224C224DE069022810D15F
:101A5000A069E968884239D3D4E90420E168FEF737
:101A6000EFFE90B304F10C0007C8FFF719FC002843
:101A70002AD1206B022810D1E06AA968884225D3B8
:101A8000D4E90920216AFEF7DBFEF0B104F1200061
:101A900007C8FFF751FB002816D1606C022812D14D
:101AA0004FF44051206C898988420FD3D4E90E202D
:101AB000616BFEF7C5FE40B1343494E80700FFF7D0
:101AC00093FC002800D1002070BDFFE70320FBE756
:101AD000683A00209453002010B50A4C2068FEF7A5
:101AE0006BFB08B1FEF72CFA00224FF4701120684E
:101AF000FEF71EFB002803D0BDE81040FEF720BA19
:101B000010BD00004061070001494160002070479E
:101B10009461070038B504460A4801216A46FCF77B
:101B200057FC68B90848606002F01EF905491C239B
:101B3000FC2208740448FC39001F006800F01AF900
:101B4000002038BD34580020C461070070B50E462F
:101B50000446007918494FF4A27501EB4010017F4B
:101B60002068A1B14FF4887102F09CF94FF4907194
:101B7000206802F097F94FF49271206802F092F910
:101B80002946206802F08EF90C49206809E04FF4DC
:101B90008E7102F076F92946206802F072F9084940
:101BA0002068C0F80413206801F05BFB3146BDE8F3
:101BB000704001F03ABB0000805500201003020085
:101BC0008000020002480068002800D00120704711
:101BD000042200200248007A002800D0012070472B
:101BE00034580020800701D0002070470120704742
:101BF0000268134602E08A4204D01268002AFAD131
:101C00000B600160704770B5054608680C464A686D
:101C100086682846314602F057FD6068286104F165
:101C20000C00686170780221B1EB901F01D1241D76
:101C30002C6170BD06490120086006480168C1F3A7
:101C400000410029FAD10449002088707047000043
:101C50000C000040180400406C5500202DE9F047AE
:101C6000394E002780463D46DFF8E090D6F804A0C4
:101C700057E003D00446D0F81C8035E099F80020E6
:101C800002EB4201521CD2B289F8002009EBC101DB
:101C900099F80230091D9A4201D189F8005048682C
:101CA0000A780446012A12D0022A02D0032A3BD124
:101CB00008E003F04BFC00B10127257434E0057403
:101CC000C06900E070680028F9D170602CE0207CC9
:101CD00050BB88686060C868A0600869E0604869B7
:101CE000A061F07800B165606268B168184B501A65
:101CF00020F07F40984202D2A168084406E0881A8A
:101D0000A16820F07F40814202D9081A206000E0DB
:101D1000256065600120A56020742046E56103F020
:101D2000F7FBB8F10000A4D199F8001099F8010070
:101D30008142A3D117B97168514502D00120BDE895
:101D4000F0870020FBE70000F02100202056002053
:101D5000FFFF7F0010B500F079F808B1FEF7F0F84A
:101D6000002010BD10B5FCF7C0FA08B1002010BD6E
:101D7000112010BD10B531B1B2FBF3F403FB1424F4
:101D80001CB1092010BD0E2010BD01600021416072
:101D900081608281C381084610BD70B50C4605463E
:101DA000FCF758FA002802D021882868084470BD42
:101DB00010B50A8849888A4203D1FCF78DFA0120C0
:101DC00010BD002010BD70B50C460546FCF767FA43
:101DD000002802D061882868084470BD10B50A88C0
:101DE00049888A4203D1FCF751FA012010BD002036
:101DF00010BD08B500216A46FCF7A9FA009808BD95
:101E000008B501216A46FCF795FA08BDC20800F042
:101E100007030120895C98400840704710B50446CC
:101E200000F0D8FE00280FD14FF0E021401EC1F88D
:101E30008001C1F88002204613DF002804D120462B
:101E4000BDE81040FCF7E6B910BD000070B5294CA4
:101E5000002520684FF44056C1B2042908D001295A
:101E60000CD006290ED0022912D0B12915D018E0C5
:101E700000202060B068FFF7D1FF12E00020206052
:101E8000012002E0002020600620FEF7C9FE08E0E5
:101E900000202060FEF772FE03E000F0FBFD05006D
:101EA00009D1002001F0B4F800F018FB20B1B068AF
:101EB000FFF7B4FF284670BD002001F0A9F80E49D5
:101EC00000208860C86001F0CDF808B1FEF738F84E
:101ED00006202060094800F027FABFF34F8F08481A
:101EE0000168084A01F4E06111430160BFF34F8FBC
:101EF00000BFFDE71C05004094530020A0860100B0
:101F00000CED00E00400FA0500F1804000680028B4
:101F100000D00120704708B500F180400021016029
:101F20000068009008BD00000549096840F4803051
:101F300001F00111814201D101207047002070475A
:101F40000C0400402DE9F00300F0FF0C00231825DD
:101F500030221C26382420274FF04009BCF10A0FFC
:101F600025D2DFE80CF024051D0B2015181D0B20D1
:101F700014224A60282211E08A6002E0C1E900468A
:101F80008C60BDE8F003C0F307200C3100F0D1B83D
:101F90004A60602202E042224A6084220A60EBE743
:101FA000C1E90025E8E7C1E900974A46E4E74B604C
:101FB0000B608B60BDE8F003062070472DE9F0410F
:101FC00086B01C4615460E468046FCF729FC07469F
:101FD00046B33DB334B3306830B3296821B32168C8
:101FE00011B3FFF7FFFDF8B12868FFF7FBFDD8B18B
:101FF0002068FFF7F7FDB8B101A94046FFF7A2FF3F
:1020000000280CD170680199884207D16A68049849
:10201000824203D160680399884207D0092006B044
:10202000BDE8F0810E20FAE71020F8E708F0FF0085
:10203000042801D00620F2E7009723682968306859
:10204000FCF7F2FB08B10020E9E70B20E7E700000E
:10205000F0B506461A48A1B01C004068029004A8DA
:1020600017460D46019008D03DB1206838B1F0B256
:10207000052806D0062021B0F0BD0E20FBE7102079
:10208000F9E7694600F055F80028F4D16068009936
:10209000884201D00920EEE701A9304600F035F86A
:1020A0000028E8D13A46294601A800F059F800284E
:1020B000E1D1224601A9304600F004F8DBE7000038
:1020C00088610700F8B51446054621B11CB148687F
:1020D00070280DD101E00720F8BD0E68E8B269460E
:1020E00000F027F80028F7D160680099884201D0F5
:1020F0000920F8BDC5F3072028B100223046216829
:1021000003F00AF8F8BD0122F8E731B10A6832B1EC
:102110004968702905D2092070470E2070471020A9
:102120007047C0B2052801D006207047104603F062
:102130007BB81422082811D2DFE800F01004100444
:1021400006080C0E0A6003E01C2000E02020086056
:10215000002070473020FAE74020F8E7062070475B
:1021600028B121B14368702B03D2092070470720A2
:102170007047006803F018B94FF47A71484300F0D3
:1021800001B8000000283ED01F49204A096800BF5E
:1021900000BF00BF00BF00BF00BF00BF00BF914233
:1021A0002FD000BF00BF00BF00BF00BF00BF00BFF7
:1021B00000BF00BF00BF00BF00BF00BF00BF00BF27
:1021C00000BF00BF00BF00BF00BF00BF00BF00BF17
:1021D00000BF00BF00BF00BF00BF00BF00BF00BF07
:1021E00000BF00BF00BF00BF00BF00BF00BF00BFF7
:1021F00000BF00BF00BF00BF00BF00BF00BF00BFE7
:1022000000BF0138C3D17047242200200024F4000D
:1022100000283ED01F49204A096800BF00BF00BF08
:1022200000BF00BF00BF00BF00BF91422FD000BF62
:1022300000BF00BF00BF00BF00BF00BF00BF00BFA6
:1022400000BF00BF00BF00BF00BF00BF00BF00BF96
:1022500000BF00BF00BF00BF00BF00BF00BF00BF86
:1022600000BF00BF00BF00BF00BF00BF00BF00BF76
:1022700000BF00BF00BF00BF00BF00BF00BF00BF66
:1022800000BF00BF00BF00BF00BF00BF00BF0138DC
:10229000C3D17047242200200024F40000283ED03F
:1022A0001F49204A096800BF00BF00BF00BF00BF30
:1022B00000BF00BF00BF91422FD000BF00BF00BFD2
:1022C00000BF00BF00BF00BF00BF00BF00BF00BF16
:1022D00000BF00BF00BF00BF00BF00BF00BF00BF06
:1022E00000BF00BF00BF00BF00BF00BF00BF00BFF6
:1022F00000BF00BF00BF00BF00BF00BF00BF00BFE6
:1023000000BF00BF00BF00BF00BF00BF00BF00BFD5
:1023100000BF00BF00BF00BF00BF0138C3D170477E
:10232000242200200024F40000283ED01F49204A27
:10233000096800BF00BF00BF00BF00BF00BF00BFF3
:1023400000BF91422FD000BF00BF00BF00BF00BF41
:1023500000BF00BF00BF00BF00BF00BF00BF00BF85
:1023600000BF00BF00BF00BF00BF00BF00BF00BF75
:1023700000BF00BF00BF00BF00BF00BF00BF00BF65
:1023800000BF00BF00BF00BF00BF00BF00BF00BF55
:1023900000BF00BF00BF00BF00BF00BF00BF00BF45
:1023A00000BF00BF00BF0138C3D170472422002006
:1023B0000024F40000283ED01F49204A096800BFCD
:1023C00000BF00BF00BF00BF00BF00BF00BF914201
:1023D0002FD000BF00BF00BF00BF00BF00BF00BFC5
:1023E00000BF00BF00BF00BF00BF00BF00BF00BFF5
:1023F00000BF00BF00BF00BF00BF00BF00BF00BFE5
:1024000000BF00BF00BF00BF00BF00BF00BF00BFD4
:1024100000BF00BF00BF00BF00BF00BF00BF00BFC4
:1024200000BF00BF00BF00BF00BF00BF00BF00BFB4
:1024300000BF0138C3D17047242200200024F400DB
:102440002DE9F05F244C4FF440594FF48058216B34
:10245000666AD9F80830771A03EB010B01EB000A22
:102460004546AF4200D83D4600220121584600F0C3
:10247000E1FA00282ED100232A465146584600F0A2
:10248000F7FA002826D12A465146584600F076FB36
:1024900000281FD1206B28442063002000F0E2FDBB
:1024A000AB44AA447F1BDBD100223146D9F8080097
:1024B000FEF762FAA16A814203D10121A661C4E953
:1024C00007010548243000F04DFBBDE8F05F002017
:1024D00000F0C8BDBDE8F09F9453002010B50A4C31
:1024E000206A01280BD1E06958B14FF44050A1692E
:1024F00080680022FEF740FAE169814201D00020A5
:1025000010BD012010BD00009453002070B5064698
:102510000C4608681049496B451AA068AC2806D1DA
:102520002A46A6F580410D4800F028FB58B12A46FE
:1025300031460A4800F022FB28B129463046BDE862
:10254000704000F029BB204600F00CFBBDE8704055
:10255000034800F087BD00009453002000E006000F
:10256000954C07002DE9F041454C0B780F46164677
:102570000125D4E90E102A02DFF80881072B7DD24D
:10258000DFE803F07C04213C1D7C7700B86820B1B3
:10259000904204D90420BDE8F0810320FBE73A48CB
:1025A0000068FDF709FE3648002688F80360202100
:1025B0003830FBF793FF2663B868A06355E070607E
:1025C000206CB06053E0BA6813188B4203D9706076
:1025D000206CB060E1E72A4B79685C331844FBF764
:1025E00064FFE06BB968264A0844E063D7E901015B
:1025F0004032FEF7C1F92064E06BE0E7884201D089
:102600000820C8E798F80300444608B10120C2E753
:10261000FEF7BEFB012824D11C4890F8A410B1B1EC
:1026200000F28C5190F8AA20A830012A01D0052090
:102630000BE0144A10320CCAFEF7E2FB012804D169
:10264000002000F00FFD70B10A2005460DE0007873
:1026500038B10320FFF77AF90546012803D004E0DA
:102660000CE0052097E70120E070FFF735FA2846D7
:1026700091E77060206C3260B060F8E70225F6E701
:102680009453002080210020846107003C22002018
:1026900030B40B4B02464FF440501C69816803F183
:1026A0001800012C08D05C6934B19B690C3003F62A
:1026B000FF736FF30B03194430BC00F003B8000044
:1026C000945300202DE9F04116460C468268002103
:1026D000DFF87C800546012A09D040460127806C3E
:1026E000A52A0CD0AA2A1BD0AC2A1ED120E0D8F8EB
:1026F0001400012819D12046FFF7A2FE14E000B112
:1027000004462946204600F0A7FB010006D12846D2
:1027100000F028FA0F4800F0A5FC16E0376004E04E
:1027200029462046FFF7F2FE01460846BDE8F08143
:1027300000B104462946204600F08EFB28B9D8F89F
:10274000340029462044FFF7E1FE0146E6E7000099
:1027500094530020954C07002DE9F05F8A4E91F8C4
:1027600000C0884F0C461546D6E91410FA78B36CB1
:102770004FF0010B4FF4805A4FF00009BCF1070FE6
:102780007ED2DFE80CF0FB0433D8D4FBF600A1685E
:10279000B9B37C4B0D05DB6802D045189D4238D19A
:1027A00051452CD8002A6CD00144994269D8F16C6B
:1027B000B164A168306571643063716909B9C6F8A4
:1027C0002090B978491C01F00301B970A7F8069070
:1027D000A168BA6801F6FF711044090B002200F0ED
:1027E00029F900287ED00520BDE8F09F6960B06C13
:1027F000A860002A45D0A168B1F5807F02D90420E5
:10280000F2E706E0306D726D0844801A726C9042F7
:1028100001D90320E8E75C4A60684832FEF7ACF86B
:10282000B064306DA268B046104430656860B06C2A
:10283000A860F888A268DFF854A111183E46FF2965
:1028400005D8B77861680AEB0723184436E0C0F56D
:102850008071B3788FB20AEB032210443A46616864
:10286000FBF723FEF088384482B2F280A068C01BD8
:10287000A0606068384460604746D8F8300001E0E6
:102880007CE05CE0B168B37808440AEB03210023E4
:1028900000F0EEF838B3F86CB864786D38656860AD
:1028A000F86CA860B078401C00F00300B070A6F887
:1028B0000690A26882B30AEB00206168FBF7F5FD81
:1028C0002089F18808440204F080120C4ED0D8F818
:1028D0005410D8F83000D8F84430411A1144444616
:1028E000994201E040E018E040D3B168B378084471
:1028F0000AEB0321002300F0BBF898B1E06CA06460
:10290000606D20656860E06CA860B078401C00F0E5
:102910000300B070A6F8069028E0F188386B0844F0
:102920003863BFE7F188206B08442063EDE76960F6
:10293000B06CA8601AE0726C081A904201D00820AE
:1029400052E7C6F84490F3640020716500F08AFBFA
:1029500008B10A2048E7306DF968884204D10B4875
:10296000E03800F043F98346FFF7B6F858463BE7F6
:10297000FFE7AB60306DC5E900A0F7E74FF0020B51
:10298000F4E700008021002094530020C823002099
:102990000A4810B50068C0B2B1280DD00848816D52
:1029A000012901D0002010BD00218165084600F0FA
:1029B00059FB08B1FDF7C4FA012010BD1C05004009
:1029C00094530020F0B54FF010235C694FF440534E
:1029D0009B68E61AA6F5405682B186421BD3144C7A
:1029E0001360A4F1180300251F6A012F08D01D6190
:1029F0005D616560A56020600020F0BD0720F0BD2E
:102A0000276807F6FF776FF30B07A6EB070C012685
:102A1000604505D909B10420F0BDC3E90465E8E7C4
:102A2000C3E904561168024C39440C341160E0E7E4
:102A3000AC530020054B30B41C68641C1C6013466A
:102A40000A46014630BC024800F012BFD8210020DF
:102A50002822002008B1034900E00349002203486E
:102A600000F02DBFD0610700A061070028220020E0
:102A700038B5064C25686D1C2560009313460A4640
:102A80000146034800F090FF38BD0000D821002027
:102A90002822002038B50020009000F0B9FA00F09C
:102AA00031FB08B1FDF74CFA002000F065FB284827
:102AB0000168C1F300410029FAD0FDF70FFB08B10E
:102AC000FDF73EFA234A00212348FDF7F3FA08B147
:102AD000FDF736FA6846FFF7DBFD012400B10094EC
:102AE000FFF756FF00B100941C49002008600098D1
:102AF00090B9FFF7F3FC78B100F030FA00280AD162
:102B0000FFF7ECFC30B100F06BFB4FF440508068F5
:102B1000FFF784F9002038BD114A10210820FDF785
:102B2000B3FA08B1FDF70CFA0B4800224FF470110C
:102B30000068FDF7FDFA0028EDD100F0CDFA00287D
:102B4000E9D100F023F900BFFDF77EFA3EDFFBE795
:102B500018040040352E0700406107001C050040A6
:102B6000CC50002000210160416081600248016377
:102B70004163016141617047945300201FB5054BCB
:102B800001AC92081B6A009384E80700684618DFCE
:102B900004B010BD446107001FB58908002201ABD5
:102BA000009283E80700684618DF04B010BD0000FB
:102BB0001FB59208930502D0092004B010BD044B44
:102BC0001B6800930392CDE90110684618DFF4E713
:102BD000446107001FB5044B0FCB8DE80F0068461A
:102BE00018DF04B010BD0000546107002DE9F04764
:102BF000064690F86D000127DFF87C81032801D09C
:102C0000092013E05D485C4BD8E9021200683033BC
:102C1000FFF71EFA00B10A2757482022303006F18C
:102C20006F010068FBF765FC18B10C20FEF78EFE03
:102C30000746534D6A6922B1012A05D00A20BDE832
:102C4000F0874F4C183401E04D4C243496F8553041
:102C50004FF0010A4FF00009ABB34A494FF440501E
:102C6000012B05D0022B38D0032B19D00A2736E0D0
:102C70000278142A01D9406900E00020D8F8082021
:102C8000B0FBF1F002F500521378142B01D9526910
:102C900000E00022B2FBF1F188421ED005271EE0C1
:102CA0000378142B01D9406900E00020D8F80830DF
:102CB000B0FBF1F003F5005393F800C0BCF1140F22
:102CC00002D95B6901E008E00023B3FBF1F188421F
:102CD00003D0012A01D1C5F82090012F05D0C4F8F6
:102CE00008904846C4F804902FE096F8550088B143
:102CF000012817D0022817D0032818D00420FEF787
:102D000025FE074696F85500B0B1022817D00328D3
:102D100017D114E0C4F808A068690128F2D1C5F8F9
:102D20002090EFE7A52003E0AA20A060EAE7AC200E
:102D3000A060B06D6863E5E77068A86001E0706846
:102D4000E860A86C6060D8F80C0020600C48202176
:102D50003830FBF7C3FB0A48FF22FC215C30FBF74D
:102D6000B6FBC5F8309088F805A0074800F07AF95E
:102D700000B10A27384662E7802100209C5C0700EA
:102D80009453002040420F00A93F070070B5012076
:102D9000FFF760FE00281DD10F4CA06B78B1FDF746
:102DA000F7FF60B10D4D206A68B9A06958B10B4AB0
:102DB00000210832E860FFF705FE0120E8700020DE
:102DC000FEF7C4FD05E0E06A18B9A06908B1606AC1
:102DD000EDE7002070BD000094530020802100200A
:102DE00030B40C780D4B012C01D0062C08D10C7995
:102DF000012C04D0022C02D0072030BC70475C703C
:102E00005B78012B03D0022B04D00520F5E730BC02
:102E1000FFF7A8BB30BCFFF79FBC0000802100205B
:102E200003484179002901D0012101717047000058
:102E300080210020BFF34F8F05480168054A01F447
:102E4000E06111430160BFF34F8F00BFFDE7000059
:102E50000CED00E00400FA052DE9F041204A03469C
:102E600040F6FF76106B516B00F580550C1A04F696
:102E7000FF746FF30B0406EB94066FF30B06C71891
:102E800021B1884202D10020BDE8F081904608B906
:102E9000C8F84870A64203D904F6FF70060B360343
:102EA000324639462846FFF783FE0028ECD13246E9
:102EB00039462846FFF762FE0028E5D135443744FD
:102EC000A64201D9002400E0A41BD8F83410002049
:102ED000091BC8F8301000F0C5F8002CDAD1D3E790
:102EE0009453002038B10549016005494160012132
:102EF0000172002070470E2070470000052F070068
:102F0000372F070030B40246112039B10B78052B5A
:102F100005D2DFE803F00E060C0E0E000E2030BCCA
:102F200070470220087030BC104600F04DB81120E8
:102F3000F5E70820F3E70246112041B10B78022B98
:102F400004D1022A05D0032A00D1082070470E20A0
:102F50007047002003220A707047000070B50B48CC
:102F60000024D0F85C11491C03D1D0F89C01401C0E
:102F700009D04FF4FE25284600F022FE57220349CF
:102F8000284600F035FE204670BD00009453002016
:102F900010B528B11C220349FBF787FA002010BDA9
:102FA0000E2010BD9CF1070010B5064C0022182120
:102FB000201DFDF7E1FC2168814201D1012010BDF7
:102FC000002010BD9CF1070070B50C4D0400D5F831
:102FD0009C0105F5CE7503D0401C03D0082070BDC0
:102FE0000E2070BD00221821201DFDF7C5FC2060B9
:102FF00007222146284629DF70BD000000F00700A7
:10300000002258210148FDF7B7BC0000985300206A
:1030100070B5FFF71FFD08B1FCF792FF4FF4DC75A8
:103020002A460E490E48FBF740FA0D4C2068401C1A
:1030300004D0FFF7E5FF216881420ED029460848F9
:10304000FBF74CFA01206060002000F00BF800282C
:1030500003D0BDE87040FCF773BF70BD00F00700FF
:103060009453002070B50446002201210C48FFF75C
:10307000E1FC90B9FFF7C4FF0A494FF4DC752A461A
:103080000860A1F5DC70FBF710FA23462A460649D2
:103090000348FFF7EDFC002800D0032070BD0000BE
:1030A00000F0070094530020DC51002070B5084860
:1030B000084D401BC6080020044606E005EBC4008E
:1030C00040688047002802D1641CB442F6D370BD2A
:1030D000B0640700A864070070B50848084D401B9D
:1030E000C6080020044605E055F834008047002853
:1030F00002D1641CB442F7D370BD0000B064070075
:10310000A864070070B50F4C0025207808B185250C
:1031100016E00021A16061602161E1604FF0E020D4
:10312000D0F80001012610F0010F03D10721002083
:1031300000F07BF800F018FE08B90348066026701E
:10314000284670BD6C5500201805004008B50020C9
:103150008DF800006846FDF7D9F80648C168491E99
:10316000C160C06808B9FEF765FD9DF80000FDF775
:10317000F1F808BD6C550020F8B5174D0446A87845
:10318000002648B114B16168012088478DF80060BD
:103190006846FDF7BBF817E08DF800606846FDF75C
:1031A000B5F824B10C4821461030FEF721FDE8683F
:1031B00050B94FF48270FEF7AEFE02204107C1F80D
:1031C0000403064901200860E868401CE8609DF897
:1031D0000000FDF7BFF8F8BD6C5500200800004066
:1031E00010B500F011F84FF080414FF0FF30C1F8FA
:1031F0000803FEF71FFDFEF70FFC024900200870D0
:1032000010BD00006C5500204FF0E0210120C1F8F6
:103210008001704700F01F020121914040098000A9
:1032200000F1E020C0F8801170474907090E00281E
:1032300006DA00F00F0202F1E02282F8141D03E02A
:1032400000F1E02282F8001400F01F0201219140F9
:103250004009800000F1E020C0F88012C0F80011A1
:103260007047000B40B270472DE9F0418846054693
:1032700001F086FB234E002828461AD0FDF7D8FA25
:10328000304490F84C008009032802D001280ED069
:1032900007E04FF0A040D0F81005E84010F0010F13
:1032A00005D003212846BDE8F04100F02FBC0221E3
:1032B000F8E701F071FB002822D02846FDF7B8FAA4
:1032C00004464FF4807000EB84000F4F81B207EB8F
:1032D0008400D0F8102542F00102C0F810250846FD
:1032E00000F05CFCB8F1000F0AD02846FDF7A0FA08
:1032F00056F82000002803D00120A040C7F804039E
:10330000BDE8F081C4550020006000402DE9FC417B
:10331000DFF8A480044608EB0400002790F934008D
:103320001346C0170E46401C01D0082741E0F27832
:1033300019462046FDF758FA0546401C38D0B078AB
:1033400050B14FF0A04000EB8400D0F8001721F0FE
:103350000201C0F8001707E00021737820460091B1
:103360000A46019100F089FBF078C0B1134831782A
:1033700000EB8500D0F81025114B1A40C0F810253D
:103380004FF4F8524FF4403302EA042203EA0141B9
:103390000A43D0F810150A43C0F8102509E008EBDD
:1033A0000500327810F84C1F41EA8211017000E0EC
:1033B00004273846BDE8FC81C45500200060004069
:1033C000FFE0FCFF4FF0A041D1F81015C14011F013
:1033D000010000D00120704770B5144D95F85900D8
:1033E00008B1082070BD0020411E2A18401CC0B240
:1033F00082F834102028F8D300242046FDF7E6F99F
:10340000641CE4B20D2CF8D307210620FFF70DFF52
:103410004FF4BE7000F0C2FB05494FF00040C1F808
:103420000403012085F85900002070BDC455002018
:1034300000600040034890F85900002800D00120A7
:1034400070470000C45500200121B1EB507F01D12D
:1034500001207047002070472DE9F04105460079B2
:10346000164F904607EB40140E46E07E10B1082040
:10347000BDE8F081707F20772846FCF785FF5FEA82
:10348000080060603169216003D0317F2846FEF773
:103490005DFB287907EB4010007F0028286801D0E9
:1034A000082100E00421C0F800150020E075207616
:1034B000A0750121E176A076DAE7000080550020B2
:1034C0002DE9F04105460079284E904606EB401460
:1034D0000F46207F18B10846FFF7B6FF80B162683B
:1034E00000234FF404704FF4017172B12A7906EB96
:1034F0004212127F002A2A6805D0C2F8080304E0AD
:103500001020BDE8F081C2F80813E27DB2B1227E3E
:103510007AB162685AB12A7906EB4212127F1AB167
:103520002968C1F8040302E02868C0F804131120D8
:10353000E7E72761012384F8188005E084F8178005
:103540000020E760607620762879424606EB40103E
:103550003946007F0028284603D0BDE8F04100F03E
:1035600073B8BDE8F04100F01BB8000080550020A2
:1035700070B504460079094D05EB4010017F002924
:103580000AD1807E002807D1204601F0B0FC2179C5
:10359000012005EB4111887670BD000080550020A8
:1035A0002DE9F05F04460079264901EB4015A87E1D
:1035B000184302D1204601F09AFC68680028206870
:1035C00006D04FF40171C0F804130020BDE8F09F4D
:1035D0004FF4A276314600F054FCB1464FF4927A93
:1035E0004FF4847B5146206800F046FC064659465D
:1035F000206800F041FC80464946206800F03CFC11
:10360000074648EA07003043ECD056EA070007D1E6
:103610002946206801F046FCE87D697E8842E1D8B1
:103620000020E8750EB10320D0E70FB10F20CDE7E1
:10363000A97E01200029216801D00860C5E7486003
:10364000C3E70000805500202DE9F05F894604465D
:103650004FF488759A46904600260068294600F087
:1036600021FC4FF4A2773946206800F01BFC20684B
:10367000C0F83495C0F838852068BAF1000F14D02E
:10368000D0F8001241F02001C0F800122179DFF8D3
:10369000648008EB4110406850B120684FF4047119
:1036A000C0F804133046BDE8F09F01210160EDE74A
:1036B000AA46B9464FF4927B5146206800F0EDFBD4
:1036C00007464946206800F0E8FB05465946206851
:1036D00000F0E3FB014647EA05000843ECD02379FC
:1036E000002208EB4310C27501B10326002DD9D08A
:1036F0000F26D7E7805500202DE9F04705460079D1
:103700003F4E904606EB40140F46207F18B1084606
:10371000FFF79AFE30B1284600F074F820B111206E
:10372000BDE8F0871020FBE784F81680A76000272B
:10373000A78228794FF0010806EB40143E46207F0F
:103740000028286825D04FF49079494600F0AAFB5C
:103750004FF4AC7A5146286800F0A4FB2868A17D9C
:10376000A268C0F84425C0F848152868C0F8088049
:103770006068F0B94946286800F08FFB80465146E2
:10378000286800F08AFB58EA0001F3D058BBA775FF
:103790000FE04FF48E7A514600F073FB2868C0F8B2
:1037A00008802146286801F0A9FF61684FF4807005
:1037B00089B13046B4E75146286800F05DFB10B986
:1037C000A08A4845F7D1A08A484505D021462868F7
:1037D00001F094FF00E08146A08AA17D8842EAD3EF
:1037E000A08A484501D10F26D1E75146286800F04C
:1037F00043FB0028F9D02868C0F80C80C7E7000018
:10380000805500200079044901EB4010807D00289C
:1038100000D00120704700008055002070B504469C
:1038200000791149002601EB401520682A7FC0F875
:103830000065686888B1207901EB4010007F00289E
:10384000206801D0094901E008498C39C0F8081303
:103850002068FFF706FDFFF7DDFC204601F0A8F821
:10386000EE766E6070BD00008055002010030200EF
:103870002DE9F0411F46154604000E4616D020687B
:10388000B8B1C5B160680268501E304215D16A43B4
:103890002046FCF7D2FA80B120683B462A46D0F891
:1038A00010C031462046BDE8F04160470E20BDE81B
:1038B000F0810820FBE70920F9E71020F7E720B1A5
:1038C00019B101600B68114618470E2070470000BF
:1038D000044801214174007A08B10020704701209A
:1038E0007047000034580020012801D0032808D177
:1038F0000449002201284A7400D00020087401F015
:103900000FB970473458002070B5244C0246207A15
:10391000012835D002283FD121480023022A00681F
:1039200002D0032A2CD119E0E360017911B10129F9
:1039300026D10BE0D0E90565711B142900D31421B1
:10394000294481614569A9420ED019E00169491CE9
:1039500001614269914213D1237217E0E168491C69
:10396000E16008290CD9E3602372022A0ED00D21F0
:10397000FDF7BCFF0B480A49091D0068FEF718FA5D
:10398000607C28B1BDE8704000F0F4B90021EFE799
:10399000BDE8704001F0C4B870BD0000345800208C
:1039A00008220020C06107002DE9F8431D46089F4A
:1039B0001646884604000DD066B1206860B135B166
:1039C00060684068B5FBF0F100FB115030B1092090
:1039D000BDE8F8830E20FBE70820F9E74046FCF736
:1039E00026FA90B13046FCF722FA70B12A464146D9
:1039F0002046FCF722FA40B1009720682B46324659
:103A0000C76841462046B847E2E71020E0E770B5B6
:103A100041EA4201DDE904564FF0A04441EA830146
:103A200041EA052104EB800041EA0641C0F8001795
:103A300070BD70B541EA4201DDE904564FF0A04483
:103A400041EA830141EA052104EB800041EA064195
:103A5000C0F8001770BD70B541EA4201DDE90456B7
:103A60004FF0A04441EA830141EA052104EB8000C4
:103A700041EA0641C0F8001770BD70B541EA420145
:103A8000DDE904564FF0A04441EA830141EA0521F3
:103A900004EB800041EA0641C0F8001770BD4FF00A
:103AA000A04202EB80000221C0F8001770471CB54D
:103AB000002100910B4601220191FFF7A8FF1CBDD8
:103AC0001CB5002100910B4601220191FFF7B1FFC7
