:020000040002F8
:10300000D0F0002051350200593502005B35020036
:103010005D3502005F3502006135020000000000EE
:103020000000000000000000000000001532020057
:1030300065350200000000005932020069350200C7
:10304000B14302006B3502002D4802009544020096
:10305000C54402006B350200613C02006B35020082
:103060006B3502006B3502006B3502006B350200D8
:103070006B3502006B3502006B3502006B350200C8
:1030800049480200094402006B3502006B3502001A
:10309000F94402006B350200FD4402006B3502006A
:1030A0006B3502006B3502006B3502006B35020098
:1030B0006B3502006B3502000000000000000000CC
:1030C0006B3502006B3502006B3502006B35020078
:1030D000714402006B3502006B35020000000000F5
:1030E00000000000000000000000000000000000E0
:1030F00000000000000000000000000000000000D0
:1031000000000000000000000000000000000000BF
:1031100000000000000000000000000000000000AF
:10312000000000000000000000000000000000009F
:10313000000000000000000000000000000000008F
:10314000000000000000000000000000000000007F
:10315000000000000000000000000000000000006F
:10316000000000000000000000000000000000005F
:10317000000000000000000000000000000000004F
:10318000000000000000000000000000000000003F
:10319000000000000000000000000000000000002F
:1031A000000000000000000000000000000000001F
:1031B000000000000000000000000000000000000F
:1031C00000000000000000000000000000000000FF
:1031D00000000000000000000000000000000000EF
:1031E00000000000000000000000000000000000DF
:1031F00000000000000000000000000000000000CF
:10320000DFF80CD000F0EEFC00480047091D030079
:10321000D0F00020264B19680868B0E8F04F80F322
:103220000988BFF36F8F4FF0000080F3118870475B
:10323000000000000748006880F3088862B661B6A5
:10324000BFF34F8FBFF36F8F4FF4F07080F311888F
:1032500000DF000000300200EFF30980BFF36F8F42
:10326000134B1A681EF0100F08BF20ED108A20E9DA
:10327000F04F106008B44FF0A00080F31188BFF346
:103280004F8FBFF36F8F16F09BFD4FF0000080F360
:10329000118808BC19680868B0E8F04F1EF0100FDC
:1032A00008BFB0EC108A80F30988BFF36F8F7047B6
:1032B000FC66002030B4044654E8000F0D4644E894
:1032C0000053002BF8D1156030BC704730B4044671
:1032D00054E8000F40EA010544E80053002BF7D101
:1032E000156030BC704730B4044654E8000F00EA63
:1032F000010544E80053002BF7D1156030BC70473E
:1033000030B4044654E8000F80EA010544E8005355
:10331000002BF7D1156030BC704730B4044654E838
:10332000000F00EB010544E80053002BF7D11560B6
:1033300030BC704730B4044654E8000FA0EB0105E0
:1033400044E80053002BF7D1156030BC70470000F3
:1033500030B450E8012F93B2C48923448489A34236
:1033600028BF1B1B0489A34202BFBFF32F8F00207D
:1033700007E0C3EA020340E80134002CE9D14FF032
:1033800001000A6030BC704750E8012FC2EA0242D7
:1033900040E801210029F7D1704730B450E8022FEE
:1033A0001FFAA2F3C488A34202BFBFF32F8F0020ED
:1033B0000DE0C48923448489A34228BF1B1BC2EAB1
:1033C000034340E80234002CE8D14FF001000A60CA
:1033D00030BC704750E8022FC2EA224240E8022186
:1033E0000029F7D17047034653E8022FD988B2EB82
:1033F000324F4FF0000017BF92B241EA014142EA5A
:10340000014104E05A68B2EB324F08BF012043E8A3
:103410000212002AE8D1704730B4044654E8000F85
:103420000D4644E80053002BF8D1156030BC7047BE
:1034300030B4044654E8000F40EA010544E8005364
:10344000002BF7D1156030BC704730B4044654E807
:10345000000F00EA010544E80053002BF7D1156086
:1034600030BC704730B4044654E8000F80EA0105D0
:1034700044E80053002BF7D1156030BC704730B4DE
:10348000044654E8000F00EB010544E80053002B0C
:10349000F7D1156030BC704730B4044654E8000FD3
:1034A000A0EB010544E80053002BF7D1156030BCB8
:1034B0007047000030B4044654E8000F0D4644E85D
:1034C0000053002BF8D1156030BC704730B404466F
:1034D00054E8000F40EA010544E80053002BF7D1FF
:1034E000156030BC704730B4044654E8000F00EA61
:1034F000010544E80053002BF7D1156030BC70473C
:1035000030B4044654E8000F80EA010544E8005353
:10351000002BF7D1156030BC704730B4044654E836
:10352000000F00EB010544E80053002BF7D11560B4
:1035300030BC704730B4044654E8000FA0EB0105DE
:1035400044E80053002BF7D1156030BC70470000F1
:103550000648804706480047FEE7FEE7FEE7FEE72D
:10356000FEE7FEE7FEE7FEE7FEE7FEE73145020085
:10357000013202002DE9F05F0546002092469B468D
:1035800088460646814640241BE028464146474679
:10359000224600F040FA53465A46C01A914110D3D1
:1035A00011461846224600F027FA2D1A67EB01084B
:1035B0004F4622460120002100F01EFA17EB0009B9
:1035C0004E41201EA4F10104DFDC484631462A4664
:1035D0004346BDE8F09F40EA01039B0703D009E0A2
:1035E00008C9121F08C0042AFAD203E011F8013BEF
:1035F00000F8013B521EF9D27047D2B201E000F848
:10360000012B491EFBD270470022F6E710B5134686
:103610000A4604461946FFF7F0FF204610BD30B5B4
:1036200005462A460B4612F8010B13F8014B08B168
:10363000A042F8D01CB1002802D06D1CF1E728464A
:1036400030BD421C10F8011B0029FBD1801A7047C5
:1036500030B504460020034600E05B1C934203D2D1
:10366000E05CCD5C401BF8D030BD2DE9FE4F8046BC
:1036700081EA0300C00F0C46009021F0004123F0C6
:103680000045B8EB0200A94105D2404621469046CC
:103690001C460B46024623F00040104347D0270D3E
:1036A000C7F30A00C3F30A510290401A0190402860
:1036B0006BDAC3F3130040F4801B0098924620B1EC
:1036C0000023D2EB030A63EB0B0B01985946C0F1C0
:1036D0004002504600F090F906460D4650465946C5
:1036E000019A00F0A8F910EB08006141002487EA74
:1036F000115284EAE7731A4340D0009A62B3019AE8
:10370000012A4FEA075215DC001B61EB02014FF062
:10371000004202EA0752CDE90042001C41F5801147
:1037200032462B4600F0DFF903B0BDE8F08F40468B
:103730002146F9E7001B61EB0201001C41F58013F3
:1037400000185B412018A2F5001747EB030140EA7F
:10375000D570B6196D4111E06D084FEA360645EA9D
:10376000C0754FEA0752001B61EB0201001C41F5D6
:10377000801149084FEA30000019514132462B466A
:1037800003B0BDE8F04F00F09FB90098012240005F
:103790000023D0EB020263EBE073009821464FEA6E
:1037A000E074B8EB000061EB0401E9E783F000434B
:1037B0005BE781F0004158E72DE9FE4F81EA030401
:1037C00004F0004421F0004100944FF0000B23F07E
:1037D000004350EA01045ED052EA03045BD0C3F315
:1037E0000A54C1F30A552C44A4F2F3340194A0FB0B
:1037F0000254C1F3130141F48011C3F3130343F4E2
:10380000801301FB024400FB034E840A970A44EA3A
:10381000815447EA8357A4FB076802958D0A05FB8C
:1038200007854FEA932C04FB0C542705029D4FEAB1
:10383000065847EA1637B5EB08056EEB070C870EFE
:10384000920E47EA811742EA8312A7FB0201B6EB08
:103850000B0164EB00042B0D43EA0C335E1844EBC0
:103860001C50DA465146E7FB0201C5F313044FEA48
:103870000B3343EA14534FEA0432019C43EA060334
:10388000A4F10C040294009CCDE900B400F02BF9E3
:1038900003B0BDE8F08F00200146F9E72DE9F04DB7
:1038A00081EA030404F0004B21F0004514464FF078
:1038B000000A23F0004150EA050220D054EA010238
:1038C0001DD0C5F30A570246C5F31303C1F3130015
:1038D000C1F30A5640F4801543F48013A7EB0608A1
:1038E000101BD64608F2FD3873EB050002D308F131
:1038F000010801E092185B41B8F1000F03DA0020E3
:103900000146BDE8F08D00204FF480110646844644
:103910000EE0171B73EB050705D3121B63EB0503C2
:1039200006434CEA010C49084FEA300092185B410B
:1039300050EA0107EDD152EA030012D082EA0400F6
:1039400083EA0501084305D0101BAB4106D20122D2
:10395000002306E000224FF0004302E06FF0010276
:1039600053101AEB06004CEB085110EB0A0041EB28
:103970000B01BDE8F04D00F0A7B80EB540F23341A1
:1039800002910021CDE900110A460B4600F0ABF888
:1039900003B000BD01F0004330B421F0004150EA13
:1039A000010206D00A0DA2F56072C1F31301002ACC
:1039B00002DC30BC00207047440F44EAC104C1005F
:1039C000E01830BC00EBC25000F047B830B50B46F1
:1039D000014600202022012409E021FA02F59D423F
:1039E00005D303FA02F5491B04FA02F52844151E13
:1039F000A2F10102F1DC30BD202A04DB203A00FAFA
:103A000002F1002070479140C2F1200320FA03F335
:103A1000194390407047202A04DB203A21FA02F033
:103A20000021704721FA02F3D040C2F120029140F8
:103A3000084319467047202A06DBCB17203A41FA83
:103A400002F043EAE07306E041FA02F3D040C2F12B
:103A5000200291400843194670470029A8BF7047CB
:103A6000401C490008BF20F00100704710B4B0FAB4
:103A700080FC00FA0CF050EA010404BF10BC70474F
:103A800049B1CCF1200421FA04F411FA0CF118BF69
:103A9000012121430843A3EB0C01CB1D4FEA006138
:103AA0004FEA102042BF002010BC704700EBC3500B
:103AB00010440029A4BF10BC7047401C490008BF37
:103AC00020F0010010BC704710B5141E73F1000403
:103AD00008DA401C41F1000192185B411A4301D100
:103AE00020F0010010BD2DE9F04D92469B4611B12A
:103AF000B1FA81F202E0B0FA80F220329046FFF78C
:103B00007BFF04460F4640EA0A0041EA0B01534698
:103B10005A46084313D0114653EA010019D0C8F1A0
:103B200040025046FFF777FF05460E46504659467D
:103B30004246FFF761FF084305D0012004E020461C
:103B40003946BDE8F08D0020054346EAE0762C4377
:103B500037430A986305E40AA0EB08000022FD0A37
:103B600044EA47540A3002D500200146E9E701053E
:103B700010196941DDE9084500196941BDE8F04DBA
:103B8000A2E7C1F30A52C1F3130140F2FF3341F43B
:103B900080119A4202DA00200146704740F2334316
:103BA0009A42A2F2334202DC5242FFF734BFFFF7DF
:103BB00023BF000030B5041E71F1000404DB4FF098
:103BC0000044404264EB0101141E73F1000405DB64
:103BD0001C464FF00043524263EB0403994208BF76
:103BE000904230BD064C074D06E0E06840F001030E
:103BF00094E8070098471034AC42F6D3FFF704FB73
:103C000068BF030088BF030070B58C1810F8015B13
:103C100015F0070301D110F8013B2A1106D110F865
:103C2000012B03E010F8016B01F8016B5B1EF9D169
:103C30002B0705D40023521E0DD401F8013BFAE7EF
:103C400010F8013BCB1A921C03E013F8015B01F85A
:103C5000015B521EF9D5A142D8D3002070BD0000EF
:103C60002DE9F04700268CB0DFF86091B0464FF4A4
:103C7000807501243746069628460FF0C5FC38B1FA
:103C8000D9F80403204203D028460FF0B3FC2643A2
:103C90002D1D64007F1CADB2082FEDD34FF4BE7410
:103CA00020460FF0B1FC48B120460FF0A3FC46F0CF
:103CB000004606AA012100200FF088FC444D16F0B2
:103CC000FF0F15D00127002437420DD009EB8401E6
:103CD000D1F81005D1F81015C0F3042055F82420B0
:103CE000C1F3014102B190477F00641C082CEBD363
:103CF000002E67DA4FF0FF30CDE908800026344609
:103D0000281910F8547F90F9000027F0C008401CD3
:103D100044D009A940460EF0B7FB58B34FEA9719B3
:103D2000404605F07BFD55F820701FB1B9F1030F37
:103D300003D00FE0B9F1030F30D108A84FEAD80241
:103D400008F00703815C4FF0010C0CFA03FC41EA18
:103D50000C0181544FF0A04101EB8800D0F800071E
:103D600006A9C0F3014A40460EF08EFB18B1BAF125
:103D7000020F03D012E0BAF1030F0FD1B9F1030F14
:103D800008D1BAF1020F1BD0022140460FF0EAFB26
:103D9000761CF6B217B149464046B847641C052C5C
:103DA000AED3002E0ED06A46012100200FF00EFC8B
:103DB00006990098884205D00690089809909DE7DA
:103DC0000321E2E70CB0BDE8F0870000006000408E
:103DD00040BC002000F01F020121914040098000FA
:103DE00000F1E020C0F88012704700F01F020121AE
:103DF00091404009800000F1E020C0F88012704737
:103E000000F01F02012191404009800000F1E020F4
:103E1000C0F80011704700F01F02012191404009D5
:103E2000800000F1E020C0F800127047BFF34F8F10
:103E300005480168054A01F4E06111430160BFF3E0
:103E40004F8F00BFFDE700000CED00E00400FA0515
:103E500070B5FB490026FB4D4C68C0B04FF4807232
:103E6000208800F47F40B0F53A4F7DD058DCB0F5A3
:103E70001A4F7AD029DCB0F5F64FF6D010DCB0F549
:103E8000C24F73D005DC904271D0B0F5045F6FD1A2
:103E90009EE0B0F5C44F6CD0B0F5E24F68D1EAE1D6
:103EA000B0F5174F66D009DCB0F5114F75D0B0F5FD
:103EB000124FDAD0B0F5164F5AD1B0E0B0F5184F26
:103EC0006CD0B0F5194F7ED1EAE0B0F52B4F71D030
:103ED00014DCB0F51E4F76D009DCB0F51B4F6AD06C
:103EE000B0F51C4F68D0B0F51D4F6CD1FEE0B0F5B9
:103EF0001F4F76D0B0F5204F65D103E1B0F5374FB5
:103F000070D006DCB0F52C4F6DD0B0F5364F5AD1DD
:103F10002AE1B0F5384F67D0B0F5394F53D148E1B9
:103F2000B0F5554F7AD017DC10F0FF0F4BD14FEAA8
:103F30002020A0F1BB001A2845D2DFE800F0FD44A4
:103F4000FCFB4444FAF9F8F7444444F6F54444448D
:103F500044444444F4F3F2F1B0F5744F7ED01EDCD7
:103F6000B0F5594F7BD006E015E2A0E03DE1EFE16E
:103F700029E040E15FE009DCB0F5564F70D0B0F5C4
:103F8000574F6ED0B0F5584F1DD1ABE1B0F5724F21
:103F90008FD0B0F5734F16D1FDE126E079E0B0F592
:103FA000774F72D009DCB0F5754F6FD0B0F5764F12
:103FB00009D1B3E1B2E084E08CE0B0F5794F7CD078
:103FC000B0F57A4F7AD040B0BDE870400BF050BCED
:103FD00068460BF08DFA342168460BF05DFC40B06A
:103FE00070BD8AE0CCE0B0E0D1E021466846FFF742
:103FF000F2FA0BF03DFC92481C2269462030FFF794
:10400000EAFA8F4820300189008ACBB2C1F3072237
:10401000C1B2C0F3072007F033FAE0E74DE1A5880D
:104020000BF026FCC5F30724E9B2204607F0F9F9A6
:1040300085480470D3E7D4E902540BF019FCE8B2C8
:1040400000F5FA60ADF80000280A8DF80200280C8F
:104050008DF803008DF80440200A03E050E148E1A8
:1040600032E138E18DF80500200C8DF80600280EAD
:104070000DD0401E8DF807008DF8086020168DF8D1
:104080000900684607F017FBA9E74EE13FE106206B
:10409000F0E70BF0EDFB40B0BDE870400AF033B93B
:1040A0000BF0E6FB40B0BDE870400AF074B90BF0CD
:1040B000DFFB40B0BDE8704001E053E158E10AF099
:1040C00036B924790BF0D4FB40B0E0B2BDE87040C3
:1040D00007F0D0BB64680BF0CBFB0CB1012000E013
:1040E000002040B0BDE8704007F0CBB80BF0C0FB3B
:1040F00040B0BDE870400AF0E9B840B0BDE870409B
:1041000005F060B924790BF0B3FB40B0E0B2BDE834
:10411000704000231A4619460AF028B824790CE0AA
:10412000C4E0BCE0B4E0ACE09EE096E08EE07FE06E
:1041300077E06AE054E04CE044E00BF099FB40B0DB
:10414000E0B2BDE870400AF01AB90889611C001F8E
:1041500085B22A466846FFF73EFA0BF089FB2946EE
:1041600068460AF0BCF83AE764680BF081FB0CB1D2
:10417000012000E0002040B0BDE870400AF0EBB83C
:104180000BF076FB40B0BDE870400AF00EB96468F1
:104190000BF06EFB8DF80040200A8DF80100200C1A
:1041A0008DF80200200E8DF80300684607F0ACFA87
:1041B00015E721466846FFF70EFA0BF059FB0AF0A7
:1041C000D4F80CE70BF054FB40B0BDE870400AF0A7
:1041D000B8B80BF04DFB40B0BDE8704007F0FEBA38
:1041E00040B0BDE8704005F055B90BF041FB00222E
:1041F0001146032004E00BF03BFB00221146072090
:1042000040B0BDE8704013F073BE64680BF030FB43
:10421000200C00D0012040B0A1B2BDE8704007F0F2
:104220000FB8B0216E4601A8FFF7EEF9686882E08A
:10423000B0216E4601A8FFF7E7F9A8687BE000000F
:10424000586B002038AC03006E660020B0216E462B
:1042500001A8FFF7D9F9E8686DE0B0216E4601A822
:10426000FFF7D2F9286966E0B0216E4601A8FFF792
:10427000CBF968695FE00196029603960496A869F7
:104280007BE0B0216E4601A8FFF7BEF9E86952E075
:10429000B0216E4601A8FFF7B7F9286A4BE0B021BC
:1042A0006E4601A8FFF7B0F9686A44E0B0216E4697
:1042B00001A8FFF7A9F9A86A3DE0B0216E4601A860
:1042C000FFF7A2F9E86A36E0B0216E4601A8FFF7D1
:1042D0009BF9286B2FE0B0216E4601A8FFF794F9F7
:1042E000686B28E0B0216E4601A8FFF78DF9A86B36
:1042F00021E0B0216E4601A8FFF786F9E86B1AE0CD
:10430000B0216E4601A8FFF77FF9A86C13E0B02139
:104310006E4601A8FFF778F9E86C0CE0B0216E4614
:1043200001A8FFF771F9286D05E0B0216E4601A8DC
:10433000FFF76AF9686D0090211DB422701CFFF729
:104340004AF90BF095FAB421684602F009F946E6FD
:1043500021466846FFF73FF90BF08AFA019802F010
:1043600085F83CE60196029603960496A86D04E053
:104370000196029603960496E86D0090211D142282
:104380000DF10100FFF727F90BF072FA14216846CE
:1043900002F06EFA23E6154621466846FFF71BF940
:1043A0000BF066FA2946684602F06AF917E6000043
:1043B0002DE9F0414FF4807738460EF081F9012461
:1043C000104EA50748B138460EF081F90120C5F816
:1043D00008037470002005F047FB4FF482773846DD
:1043E0000EF06EF900280BD038460EF070F902205E
:1043F000C5F80803B470BDE8F041012005F034BBF6
:10440000BDE8F0812CBC00202DE9F041164E4FF4A0
:10441000A07130460FF02AF90025EFF31184A02097
:1044200080F31188D6F80475B11530460FF01EF9E7
:1044300016F064FA381A20F07F46012E07D916F0DC
:104440004FFA022803D0002616F064FA0543761EC0
:10445000FAD225B105494FF08050086040BFE0B264
:1044600080F31188BDE8F0810010014004ED00E008
:1044700007480021C0F84011C0F84411C0F84811A5
:10448000C0F84C11C0F80011C0F8041114F056BD6A
:104490000040024038B50A48084C0021C0F8081115
:1044A000D0F808110091214614F096FD002804D19F
:1044B0002046BDE838400CF0D7B938BDBCBC002060
:1044C0000030004038B54FF040200A4D04464FF40C
:1044D0008C710FF070FA00280AD00020C4F818017F
:1044E000D4F8180100902846BDE838400CF0BCB95B
:1044F00038BD0000E0BC002014F0D8BB08B5002097
:10450000009009486946006815F056FB009800289D
:1045100008D006494FF08050086040BFBFF34F8F6E
:10452000BFF36F8F08BD00004068002004ED00E07D
:10453000F0B5AE480023021D01780125101D4FF093
:10454000805406290BD11678360708D10678C6F3B1
:104550000316032E06D0042E04D0052E02D0062901
:1045600007D00EE0B4F82463A14FC6F304263E60E2
:1045700002E01678360704D10678C6F30316032E38
:1045800002D0062904D00FE09B4F9A4E7E670EE0C2
:104590001678360708D10678C6F30316032E06D020
:1045A000042E04D0052E02D0062907D00EE0D4F840
:1045B0004462924FC6F342363E6002E016783607F8
:1045C00004D10678C6F30316032E02D0062906D0BE
:1045D00011E08B4E376827F0807737600EE0167851
:1045E000360708D10678C6F30316032E06D0042E2C
:1045F00004D0052E02D006290AD011E04FF08046E3
:10460000C6F80C31C6F810317C4E361F336002E01C
:104610001678360704D10678C6F30316032E02D0A7
:10462000062905D00CE0754F032664373E600AE08A
:104630001678360704D10678C6F30316032E02D087
:1046400006290DD014E06F4F05263E606D4E78367A
:1046500035606C4E083633603F263F1D3E6002E0F9
:104660001678360704D10678C6F30316052E02D055
:10467000062957D062E0644E3668644F3E60624E51
:10468000361D36683F1D3E605F4E083636683F1D5A
:104690003E605D4E0C3636683F1D3E605A4E103609
:1046A00036683F1D3E60584E143636683F1D3E60EA
:1046B000554E18363668554F20373E60524E1C36E0
:1046C00036683F1D3E60504E203636683F1D3E60C6
:1046D0004D4E243636683F1D3E604B4E28363668B8
:1046E0003F1D3E60484E2C3636683F1D3E60464EAC
:1046F00030363668454F40373E60434E3436366874
:104700003F1D3E60404E383636683F1D3E603E4E8F
:104710003C3636683F1D3E603B4E403636683F1D96
:104720003E6002E01678360708D10678C6F3031615
:10473000032E06D0042E04D0052E02D0062907D061
:1047400019E0D4F85812324A01F04F01116002E02A
:10475000117809070FD10078C0F30310032803D0A4
:10476000042801D0052806D12A480168C90702D0CB
:104770006FF00101016022487438016841F4700152
:104780000160BFF34F8FBFF36F8F4FF01021D1F84F
:104790000002002803DBD1F80402002822DA1E4AB6
:1047A00015601E480468002CFCD01524C1F8004296
:1047B0000568002DFCD0C1F8044201680029FCD036
:1047C000136001680029FCD0BFF34F8F0C48F0380C
:1047D0000168134A01F4E06111430160BFF34F8F98
:1047E00000BFFDE710490F480860F0BDE00F00F082
:1047F000403501400DF0ADBA00C007403C05004017
:10480000FCED00E0105600400404001020C50040FC
:10481000E40E00400004004004E5014000E40140D3
:104820000400FA050090D003486800200448017F86
:1048300004480029024901D014F07FBE14F0EEBDF7
:104840009CBC002000200040094882B0D0F804033E
:104850004FF0000110F0010F07D00648016000681A
:1048600000900548406802B0004702B07047000061
:104870000000014000010140E06700200FB4084B38
:1048800010B504A902AA039800F0B6F9044602A9DB
:10489000002000F053FD204610BC5DF814FB000022
:1048A0003D5302007CB5044600201D4616460029F3
:1048B0000BD0491ECDE90041044B6A4629463046DB
:1048C00000F09AF9009A002111707CBD2753020074
:1048D00010B5044634B910A218A1032000F098F8CE
:1048E000002010BD207A00F00F000F2806D015A27E
:1048F00012A1042000F08CF80020F2E7207A00F0EA
:10490000F000F02806D01EA20CA1042000F080F8D0
:104910000020E6E70120E4E75F5F636F645F6C6996
:1049200073745F636865636B206661696C65642C92
:10493000206C69203D3D204E554C4C006C697374D1
:10494000000000005F5F636F645F6C6973745F6396
:104950006865636B206661696C65642C206E6F749A
:10496000206E65772061206C697374206279206302
:104970006F645F6C6973745F6E657728290000004F
:104980005F5F636F645F6C6973745F636865636BBB
:10499000206661696C65642C206E6F742063616CA5
:1049A0006C20636F645F6C6973745F696E697428EF
:1049B0002900000002E008C8121F08C1002AFAD12D
:1049C00070477047002001E001C1121F002AFBD18F
:1049D000704700000121202803DA8140054801408A
:1049E00003E0402802DA2038814009B101207047F5
:1049F00000207047FC06FFBD082806D228B1012818
:104A000003D0042801D00120704700207047000027
:104A10000FB42DE9F843074688461448007818B9C2
:104A2000BDE8F8035DF814FB0CF046FA044694F870
:104A300000900BA80090C8210D48009B0A9AFFF730
:104A400031FF05464F2D01D94F2600E02E46324654
:104A500007492046FEF7BFFD0020A05500902246E2
:104A60004146384611F04AF800BFD9E76068002097
:104A70002CCE00202DE9FF5F82B00021DDE904305B
:104A8000020DDDF840B0034318D044F61050A2F2F6
:104A9000FF3242431514119801281FD0A5EB0B00DB
:104AA000401C5FEA000A4FF000064E4FDFF83891D5
:104AB000B046504615D5CAF1000413E01198012400
:104AC0004AA3012801D16FEA0B010298119AC0E9AB
:104AD0000031C0E9024206B0BDE8F09FCBF1000012
:104AE000DFE704460021404A491842EB0450CDE973
:104AF000001012E0E00707D032463B4640464946E8
:104B0000FEF75AFE8046894632463B461046194615
:104B1000FEF752FE06460F466410002CEAD1DDE98E
:104B20000401DDE90023BAF1000F06DAFEF744FEC6
:104B300042464B46FEF740FE05E0FEF7AFFE42461A
:104B40004B46FEF7ABFE04460E460022284BFFF70D
:104B500031F803D84FF0FF30014607E00022254B23
:104B600020463146FEF781FDFFF70BF8102409E0DF
:104B7000002C0ADB0A220023FEF7FCFC039B3032E8
:104B80001A55641E50EA0102F2D1641C039AC4F162
:104B900011031444119A012A03D0012208430DD1B4
:104BA0000AE0084304D000204FF0110B119072E787
:104BB000A3EB0B056D1E0DE05B4504DD4FF000021D
:104BC00005F1010504E003DA4FF00002A5F101054B
:104BD000002AECD002981199C0E90231C0E90045E1
:104BE00079E70000000014400000F03F30000000B2
:104BF0000000F0430000E03F2DE9FF4F95B09B46D9
:104C00008946064600250FE2252877D1002427464D
:104C1000F84A0121059400E0044316F8013F203BC7
:104C200001FA03F01042F7D130782A2811D06FF042
:104C30002F033078A0F13002092A16D8059A44F0E3
:104C4000020402EB820203EB42021044761C059040
:104C5000EFE759F8042B0592002A03DA504244F496
:104C60000054059044F00204761C30782E2816D1AA
:104C700016F8010F44F004042A280DD06FF02F021B
:104C80003078A0F13003092B09D807EB870302EB3A
:104C90004303C718761CF3E759F8047B761C307879
:104CA0006C280FD006DC4C2817D068280DD06A2855
:104CB00014D104E0742810D07A280FD10DE044F408
:104CC00000140AE044F4801401E044F440147278C3
:104CD000824202D104F58014761C761C3078662856
:104CE0000BD013DC582877D009DC002875D0452874
:104CF000F6D04628F4D047281AD19DE118E0632861
:104D000035D0642879D0652812D195E1702873D008
:104D100008DC6728F1D069286FD06E280DD06F2885
:104D200006D1B5E073282CD0752875D0782874D0BA
:104D30005A46179990476D1C75E1C4F3025002283A
:104D400009D003280DD0D9F8001004280DD00D602B
:104D500009F1040967E1D9F80010EA17C1E9005226
:104D6000F6E7D9F800100D80F2E70D70F0E719F8BA
:104D7000041B8DF8001000208DF80100EA46012088
:104D800003E059F804AB4FF0FF3061074FF000012A
:104D900002D40DE008F101018846B9420FDA8045DE
:104DA000F8DB1AF808100029F4D108E008F1010135
:104DB00088468142FADB1AF808100029F6D10598D6
:104DC0005B46A0EB080721463846179A00F094FA94
:104DD000284400EB080507E04DE029E10DE01AF852
:104DE000010B5A4617999047B8F10108F7D25B4674
:104DF00021463846179A13E142E00A220092C4F392
:104E000002524FF0000A022A08D059F804CB032AB4
:104E10004FEAEC710AD00DE029E02AE009F1070120
:104E200021F00702F2E802C1914609E00FFA8CFC7A
:104E30004FEAEC71042A03D14FFA8CFC4FEAEC7173
:104E4000002907DA0A460021DCF1000C61EB0201BF
:104E50002D2202E0220504D52B228DF80420012208
:104E600003E0E20701D02022F7E7904659E00A214B
:104E700002E010220DE010214FF0000A00910BE03B
:104E800010224FF0000A44F004040827009203E0C7
:104E900008224FF0000A0092C4F30252022A05D001
:104EA00059F804CB0021032A08D009E009F10701D1
:104EB00021F00702F2E802C1914605E01FFA8CFCDE
:104EC000042A01D10CF0FF0C4FF00008220728D56E
:104ED000702806D0009B83F0100353EA0A0305D024
:104EE0000EE040228DF80420012208E05CEA010275
:104EF00006D030228DF804208DF80500022290465D
:104F0000009B83F0080353EA0A030AD15CEA01021A
:104F100001D1620705D530228DF804204FF0010839
:104F20007F1E582804D034A003900EA802900DE0F4
:104F300036A0F9E753466046009AFEF71BFB84460D
:104F40000398825C0298401E029002705CEA0100A5
:104F5000F0D1029806A9081A00F1200A600702D5CC
:104F600024F4803400E00127574502DDA7EB0A0056
:104F700000E0002000EB0A01009005984144401A2F
:104F80000590E00306D45B462146179A059800F089
:104F9000B3F90544002706E001A85A46C05D1799F9
:104FA00090476D1C7F1C4745F6DBE0030CD55B4644
:104FB0002146179A059800F09FF9054404E0302037
:104FC0005A46179990476D1C0099481E0090002979
:104FD000F5DC08E0029802995A460078491C0291D3
:104FE000179990476D1CBAF10001AAF1010AF1DC92
:104FF00065E100000928010030313233343536379D
:105000003839616263646566000000003031323314
:1050100034353637383941424344454600000000B4
:1050200000F058F90544761C307800287FF4ECAD88
:1050300019B02846BDE8F08F620700D4062709F1B1
:10504000070222F0070CFCE80223E14603F00048C7
:105050005FEA080C02D00FF2702C0DE05FEA045CEE
:1050600002D50FF2682C07E05FEAC47C02D00FF291
:10507000602C01E0AFF2700C4FF0FF3823F00043DA
:10508000CDF850C065280CD006DC452809D046284C
:105090001DD047283DD13DE0662818D067287ED135
:1050A00038E00021112F01DB112000E0781CCDE950
:1050B000000106A90EA8FFF7DDFCDDE90F010E9A3D
:1050C00003910021009207F1010A04914DE04FF095
:1050D00000400097CDE9011006A90EA8FFF7CAFC11
:1050E000DDE90F0203920E9B11990022DDF80CA05E
:1050F0000093049211B9791C00EB010AB7EB0A0086
:1051000004D4C0F1FF3007F1010A0490AAEB0700B4
:10511000019044E0012F00DA01270021112F01DD69
:10512000112000E03846CDE9000106A90EA8FFF7DE
:10513000A1FCDDE90F010E9A039100210491009278
:10514000BA4621070CD40399514500DA8A46BAF1D0
:10515000010F05DD009AAAF10101515C302908D048
:10516000B84202DA10F1040F06DA0121CDE901108C
:1051700015E0AAF10101E9E7002805DC04990144E2
:105180000491AAEB000102E0411C514500DD8A4672
:105190000499401A401C01904FF0004002902007F3
:1051A00004D40198504501DBCDF8048000208DF82F
:1051B0004F0002980DF14F07B0F1004F25D02B2082
:1051C0000E9002984FF0020800280CDA404202903C
:1051D0002D200E9007E00A210298FEF7F7FB3031F0
:1051E000029007F8011DB8F10001A8F10108F2DCF6
:1051F00002980028EFD1791E0E980870307800F0E0
:10520000200040F0450007F8020D12A8C01B00F175
:1052100007081498007800B1012000EB0A010198FA
:1052200001EBE07105984144401A401E0590E003EF
:1052300006D45B462146179A059800F05DF80544B0
:105240001498007818B15A46179990476D1CE003DE
:1052500024D55B462146179A059800F04DF8054481
:105260001CE00498002807DBDDE90301884203DD28
:105270000098405C179901E0179930205A469047F2
:10528000049805F10105401C04900198401E01900E
:1052900004D12E205A46179990476D1CBAF100018F
:1052A000AAF1010ADDDC05E017F8010B5A4617994F
:1052B00090476D1CB8F10001A8F10108F4DC5B46D1
:1052C0002146179A0598ABE62D0000002B00000040
:1052D000200000002DE9F041044600251E46174637
:1052E000880404D405E039462020B0476D1C641EB4
:1052F000F9D52846BDE8F0812DE9F04104460025A6
:105300001E469046C80301D5302700E020278804B8
:1053100004D505E041463846B0476D1C641EF9D5FA
:105320002846BDE8F0814A68002A06D00A68531C66
:105330000B6010704868401E486070470A68531C34
:105340000B601070704700001FB504468BDF0749E3
:105350000123D1E90002CDE90002D1E90201CDE942
:10536000020102AA694620468CDF1FBDB0AC0300D3
:105370000A4930B1002008700949212201F12100B9
:1053800008E008780A2807D2401C08700449212246
:1053900021310348FEF71FB970470000BC650020AB
:1053A000BC6B00202DE9F84305460E4614461F4607
:1053B000DDE908892E48806858B92C222D49102033
:1053C00009F090F82A4988600846806808B9BDE865
:1053D000F8832748407888B125484078A8420DD006
:1053E000002023498968888021480095437822A2BB
:1053F0002C4801680320FFF70BFB23E01C48807852
:1054000088B11B488078B0420DD0002018498968C7
:10541000888017480096837823A2224801680320D9
:10542000FFF7F6FA0EE06CB111488088401CA042EC
:1054300008D00F480094838826A21A4801680320E8
:10544000FFF7E6FAB8F1000F00D007B9BFE7084848
:10545000457086708480C07800EA09000449C870ED
:10546000434600228868394604F0AAFE00BFAEE732
:10547000B4680020D8BA030074656D705F636D6412
:105480002C206D61696E5F636D64206D69736D6161
:105490007463682C206F6C643D25782C206E6577D2
:1054A0003D257800B068002074656D705F636D64A1
:1054B0002C207375625F636D64206D69736D617418
:1054C00063682C206F6C643D25782C206E65773DD9
:1054D0002578000074656D705F636D642C207365C2
:1054E000715F6964206D69736D617463682C206FEE
:1054F0006C643D25782C206E65773D257800000092
:1055000010B560B159B102780B785208B2EB530F65
:1055100005D10622401C491CFEF79AF808B100206C
:1055200010BD012010BD800701D000207047012070
:105530007047C3688B4206D811440069491E8142F6
:1055400001D8012070470020704770B500238D8876
:105550000C680DE0E618E15C7678864206D1E0182A
:10556000801C491E10609180002070BD0B445B1CA4
:105570009D42EFD8052070BD70B500238D880C6862
:105580000DE0E618E15C7678864206D1E018801CD2
:10559000491E10609180002070BD0B445B1C9D4231
:1055A000EFD8052070BD000010B5B0B02DA86DDF9C
:1055B00020B136A240F2746100F018FD374C0DF1B5
:1055C000B5010620401E10F0FF00C0F105030A5C83
:1055D000E254F7D1A0216846FEF716F802208DF8B4
:1055E000000000218DF80210ADF84C0006212B4878
:1055F0008DF803100E3014900D212948FEF704F8A1
:105600002749C020087000200B18225C401CC0B243
:10561000DA710628F8D34FF6FE70ADF8A4000D201D
:10562000ADF8A80029A818901C482B911A38C0681A
:10563000017B01B101218DF87C10B0F80D10229191
:10564000C17B2391017C01B101218DF87D10B0F85F
:1056500011102491C07C2590FC208DF8B0002CA85E
:10566000019010900F4826900D486946D83801F0F7
:1056700043FF20B105A240F2C16100F0B7FC084829
:105680000121D83801F00EFF30B010BD2E2E5C2E57
:105690002E5C2E2E5C6D61696E2E63003A5A0020DE
:1056A0002C6B0020F93903000C4810B5C07838B1D4
:1056B00010F084F9002810D009A240F2626108E0DD
:1056C00003210B4802F017F8002806D004A240F28C
:1056D0001371BDE8104000F089BC10BD205A0020B5
:1056E0002E2E5C2E2E5C2E2E5C6D61696E2E63005C
:1056F000546A002070B58CB015460E4600236C46E7
:10570000C3F10F01415CE1545B1C102BF8D30D2158
:1057100004F11000FDF778FF0020C0F10F02315CAA
:105720002244401C11740328F7D3684643DF00204D
:10573000C0F10F01214491F820102954401C032886
:10574000F6D30CB070BDD0F8D80008B10020704777
:10575000012070470149097902F006BDAC670020BD
:105760002DE9F041ADF5027D8046002014460D463E
:105770004FF40076809014E031468C4200D22146EE
:105780000F4609F0FCFEBAB26946284609F040FF10
:1057900009F0EEFE80AA3946684600F023F83D4441
:1057A000E41B002CE8D18099884504D101200DF537
:1057B000027DBDE8F0810020F9E7000030B5034626
:1057C00000200246064D07E09C5C521C84EA1064EF
:1057D00055F8244084EA00208A42F5D330BD000009
:1057E000E8AD030070B50023074E146807E0C55C00
:1057F0005B1C85EA146556F8255085EA04248B4223
:10580000F5D3146070BD0000E8AD03001AB18B5CE5
:105810001BB1072070470C207047002380F8DC3054
:1058200000F013BB2DE9F843044600200526154679
:10583000884608270090ACE094F8DC10092970D263
:10584000DFE801F005222D406670767CA300421C43
:10585000009218F8000084F8DD0010B1012811D181
:1058600008E0042184F8EC1004F13C00C4E934079A
:10587000012087E084F8EC6004F1BC000121C4E958
:1058800034011BE008207DE000EB0801001DCA7810
:10589000096862F31F61C4F80811009010E0421C0F
:1058A000009218F80010D4F8E82004F5867011541E
:1058B000D4F8E80021B1401CC4F8E800022061E0FF
:1058C00003205FE0421C009218F80000C4F80001B9
:1058D000D4F8D4108842D5D20C22D4F8D01002EBE0
:1058E000001009582046C4F80411FFF72CFF0028C7
:1058F000C8D12046D0E94023D4F8FC1001F054FB75
:1059000020B1D4F8D800401EC4F8D800042039E0F3
:10591000421C009218F80000A4F8FC0084F8DC6037
:1059200037E034E06A464146204601F046FB29E074
:105930006A464146204601F0DDFA23E0B4F8E4105F
:10594000B4F8FC20914204D2491CA4F8E410401C95
:105950000090B4F8E410B4F8FC00814211D1204664
:10596000D0E94023D4F8FC1001F01EFB18B12168E7
:1059700004F1EC0088472046FFF7E5FE00289FD0A1
:1059800080E7072084F8DC0003E0009501E084F85C
:10599000DC700098A842FFF44FAFBDE8F883000028
:1059A0002DE9F04F044600780026EA4DADF5357D2F
:1059B0004FF001094FF48077092875D2DFE800F035
:1059C000057435373A3B45EAE900E3480188E34886
:1059D0000CF098FD297811B1A189814203D1A16809
:1059E0000878A52816D02E70A28968781118B942B7
:1059F0005AD1A168DA4C2044FDF7EDFDC4F80071DE
:105A00006E700DF5357D3A462146BDE8F04F052014
:105A100012F098BC85F80090A2896A700DF5357D6A
:105A2000CF48BDE8F04FFDF7D6BD012100E00021D1
:105A3000012089E1EE706E702E700DF5357D3946CE
:105A4000BDE8F04FC648FDF7DFBDA268C148C54FAD
:105A500092F800C0C0784FF4FE7140F2FF1A4FF484
:105A6000007B04F10803BCF12F0F72D2DFE80CF0C9
:105A700071181D29353B41477171714D53595F7143
:105A8000716572787E8A6B847171717171717171D7
:105A90007193A5C0C7D4F7FDF4F3F2F1F0EFEE0077
:105AA0000021A3890220B1E072E0242870D02528CB
:105AB0006ED029286CD02A286AD00021A38903201F
:105AC000A4E0242864D0252862D0292860D02A2880
:105AD0005ED00021A389042098E06D4601A8FDF75F
:105AE00093FD78681EE16D4601A8FDF78DFDB8684D
:105AF00018E16D4601A8FDF787FDF86812E16D46D3
:105B000001A8FDF781FD38690CE16D4601A8FDF79C
:105B10007BFD786906E16D4601A8FDF775FDB86962
:105B200000E16D4601A8FDF76FFDF869FAE06D46EA
:105B300001A8FDF769FD386AF4E06D4601A8FDF79C
:105B400063FD786AEEE06D4601A8FDF75DFDB86B78
:105B5000E8E0F0E06D4601A8FDF756FDB86AE1E027
:105B60006D4601A8FDF750FDF86ADBE06D4601A81F
:105B7000FDF74AFD386BD5E06D4601A8FDF744FD01
:105B8000F86BCFE06D4601A8FDF73EFD786BC9E0EC
:105B900058E0D7E0D4E04FF433716D4601A8FDF72B
:105BA00033FD386C0090A16840F2CF22281D491CBB
:105BB000FDF711FD4FF4347298E0D2F80140511D09
:105BC00048226948FDF707FD48216748FFF7F6FDC1
:105BD0000546B02101A8FDF717FD786C0090AC4296
:105BE00002D18DF8016001E08DF80190B4216FE0E1
:105BF0000DF5357D1846BDE8F04F03F0BBBF2428F6
:105C000020D02420E870A389002105200DF5357DE2
:105C1000BDE8F04F12F048BC252813D02520E870CD
:105C2000A5208DF80400012101A800F099FC85F859
:105C30000290022000904FF4FA7200230421686859
:105C400014F0BEFF0DF5357DBDE8F08F65E05EE038
:105C500057E050E040E02BE021E006E0FFE76D4632
:105C600001A8FDF7D1FCB86C5CE02720E8703E4845
:105C7000D2F80140511D6C224830FDF7ACFC3A4887
:105C80006C214830FFF79AFD39680091A04202D19B
:105C90008DF8016001E08DF80190022118E02820C4
:105CA000E8700DF5357D1846BDE8F04F03F0F0BE05
:105CB0002928C7D02920E870A9208DF800008DF888
:105CC00001608DF802608DF803608DF80460052195
:105CD000684600F045FCB5E72A28B3D02A20E870D2
:105CE0006D4601A8FDF790FCF86C1BE069460520A5
:105CF00012F028FBA6E76D4601A8FDF785FC386D7C
:105D000010E06D4601A8FDF77FFC786D0AE06D4656
:105D100001A8FDF779FCB86D04E06D4601A8FDF718
:105D200073FCF86D0090A1685246281D491CFDF7D0
:105D300052FC5A46DAE7FF208DF800000121C7E740
:105D4000012100E0002102200DF5357DBDE8F04F76
:105D500003F06ABA38660020265A0020286A00201C
:105D60001C6C0020C0AC0300206D00202DE9F84F12
:105D70000C46DDE90B760968DDF828A01D46904643
:105D80004FF0000912290DD30095418B008923465D
:105D900010F072FAB8F8000021880844A8F8000052
:105DA000C4F8009030682D1DB84207D12068421C0D
:105DB000226000F805903068401C3060B84207D27D
:105DC000421C32601AF800202068411C21604255B4
:105DD0003068B84202D90220BDE8F88F0120FBE705
:105DE0002DE9F84306460868089D984617460C4674
:105DF00012280CD3CDF80080718B3089234610F027
:105E00003BFA3888218808443880002020602968BF
:105E100009B1084612E0304600F086F858B1226811
:105E200008F104002978115456F8CC0F401C30605A
:105E30002068401C20602868401C2860012802D08F
:105E40000120BDE8F8830320FBE72DE9F04F8A46E7
:105E500093B000210D910E91ADF840101191914633
:105E600004460D46C0F8CC1000F05EF800B10125E4
:105E7000242103A80F95FDF7C7FB4FF0010B04ADDC
:105E80000DF144080FAE0EAF05E020B1012807D098
:105E9000022818D10FE00D98421C0D9200F805B0B1
:105EA000CDF800A0CDE9019803AB10AA0DA92046BA
:105EB000FFF75CFF07E0CDE9007603AB10AA0DA960
:105EC0002046FFF78DFF0328DFD103A80090618BE8
:105ED00020890DAB10AA10F0CFF903AEB4F80880FA
:105EE000678B24213046FDF78FFB0020ADF828009A
:105EF000ADF82A00ADF826700521ADF80C8002201F
:105F00008DF824108DF80E000B958DF825B03046D5
:105F100013F0A0F8D4F8CC00C4F8D80013F0EEF8D1
:105F200013B00020BDE8F08F00EB011090F8BC002A
:105F3000012800D00020704710B504460A7819489F
:105F4000012A10D0022A0DD1012202760A79427666
:105F50004A7982768A68C2618A890284CA894284BF
:105F60000A8A828410BD0088A0F57F42FF3AF9D0EA
:105F70000A1D0146204602F095F918B10AA2C42173
:105F800000F034F8204602F061F918B106A2CE21E3
:105F900000F02CF80022BDE810401146082011F056
:105FA000A7BF0000106600202E2E5C2E2E5C2E2E29
:105FB0005C2E2E5C2E2E5C2E2E5C557365725C530F
:105FC0006572766963655C41636365737361727959
:105FD0005C6170705F7372765F61636365732E637B
:105FE0000000000030B430BC00F00CB80EB5ADF8C5
:105FF0000010CDE901206A46002144F20100FFF7BC
:10600000F1FF0EBD30B58DB001238DF824309DF821
:106010002430244C20606160A2606FF480414018FD
:1060200007D001280FD1E260E0680088A061E06835
:1060300007E0226120698068606120690088A061B2
:1060400020694068E06120686068A068E0682069B5
:106050006069A069E0691448009060690190A069D6
:10606000029003A817210546FDF7CEFAE069FDF777
:10607000E8FAE1691638014416222846FDF7ABFA22
:1060800000200C9023200B90CDF828D00AA809F00E
:10609000EDFD72B69DF824000028FBD162B60DB06C
:1060A00030BD000004BD0020A5FE020010B58268CE
:1060B000C368934203D00AF075FB002010BD052091
:1060C00010BD29B112B1531E134203D009207047ED
:1060D0000E2070470160838000218160C160084606
:1060E000704710B58268C3689A1A83889A4203D8A9
:1060F0000AF062FB002010BD042010BD10B504465C
:106100000A781448012A06D0022A03D10122027615
:106110008988418310BD0088A0F57F42FF3AF9D0FD
:106120000A1D0146204602F077FE18B10AA23E2160
:10613000FFF75CFF204602F079FE18B106A2482165
:10614000FFF754FF0022BDE810401146082011F06F
:10615000CFBE0000F46500202E2E5C2E2E5C2E2E6D
:106160005C2E2E5C2E2E5C2E2E5C557365725C535D
:106170006572766963655C416363657373617279A7
:106180005C6170705F7372765F61636365732E63C9
:106190000000000010B504460A781A48012A12D0FF
:1061A000022A0FD1012202760A7942764A79827652
:1061B0008A79C2760A8982838A7A82778A89028476
:1061C0000969416210BD0088A0F57F42FF3AF9D00D
:1061D0000A1D0146204602F079FF18B10AA2772174
:1061E000FFF704FF204602F0B3FF18B106A2822198
:1061F000FFF7FCFE0022BDE810401146082011F018
:1062000077BE0000CC6500202E2E5C2E2E5C2E2E3C
:106210005C2E2E5C2E2E5C2E2E5C557365725C53AC
:106220006572766963655C416363657373617279F6
:106230005C6170705F7372765F61636365732E6318
:1062400000000000012070473EB5194C0025194898
:1062500025606560A56000906946204602F00CFE4E
:1062600018B115A2FF21FFF7C1FEE56025612148A5
:10627000656101900E4801A90C3002F031FF20B198
:106280000DA24FF48471FFF7B1FEA561E5611A48D4
:1062900025620290064802A9183002F00DF8002885
:1062A00004D005A24FF48871FFF7A0FE3EBD0000A8
:1062B0008C710020FD6002002E2E5C2E2E5C2E2E96
:1062C0005C2E2E5C2E2E5C2E2E5C557365725C53FC
:1062D0006572766963655C41636365737361727946
:1062E0005C6170705F7372765F61636365732E6368
:1062F0000000000095610200395F0200014601487C
:1063000001F074BCF06D002000B5C1B000202990F0
:1063100001462A9020232BAA33480CF0BFF820B165
:1063200032A24FF4CC71FFF761FE402319AA01217C
:106330002D480CF0B3F820B12CA24FF4D271FFF726
:1063400055FE602301AA032127480CF0A7F820B1CD
:1063500026A24FF4D571FFF749FE202333AA02216C
:1063600021480CF09BF820B120A24FF4D871FFF720
:106370003DFE04233FAA19461B480CF08FF820B1BC
:106380001AA24FF4DB71FFF731FE10233BAA05215F
:1063900015480CF083F820B114A24FF4DE71FFF71A
:1063A00025FE1F4829901F482A9029A90E4801F070
:1063B00077FB20B10DA24FF4E771FFF717FE1A48E3
:1063C000002300901A464FF47A7118A014F0B8FB1D
:1063D00018490028486004D117A2F0210420FFF7D3
:1063E00005FE41B000BD0000F06D00202E2E5C2E99
:1063F0002E5C2E2E5C2E2E5C2E2E5C2E2E5C55736B
:1064000065725C536572766963655C414E43535CAB
:106410006170705F7372765F616E63732E630000EC
:10642000FD390300FD6D0200C98B0300414E43534B
:1064300000000000506600202E2E5C2E2E5C2E2EBA
:106440005C2E2E5C2E2E5C2E2E5C557365725C537A
:106450006572766963655C414E43535C6170705F41
:106460007372765F616E63732E63000006490128C4
:10647000096805D0022805D1002204480BF080BF2E
:106480000122FAE77047000058660020F06D0020F6
:1064900010B50B4801F052FB20B10AA240F21F11C7
:1064A000FFF7A4FD064801F00BFA002806D0BDE86E
:1064B000104004A24FF49171FFF798BD10BD000089
:1064C000F06D00202E2E5C2E2E5C2E2E5C2E2E5C6F
:1064D0002E2E5C2E2E5C557365725C536572766948
:1064E00063655C414E43535C6170705F7372765FAD
:1064F000616E63732E63000010B50B4801F023FB3F
:1065000020B10AA24FF48871FFF770FD064801F030
:10651000DCF9002806D0BDE8104004A240F21311B7
:10652000FFF764BD10BD0000F06D00202E2E5C2E24
:106530002E5C2E2E5C2E2E5C2E2E5C2E2E5C557329
:1065400065725C536572766963655C414E43535C6A
:106550006170705F7372765F616E63732E630000AB
:10656000F8B5074611480D46018811480BF0CAFFDF
:10657000C01E002486B2ADF8004013E0281BB042D4
:1065800000D93046ADF8000039196A46094801F0D3
:10659000E7FB112806D0132804D0002804D1BDF849
:1065A00000000444AC42E9D3F8BD0000265A0020A4
:1065B000286A0020006C00201CB50F48019001A93A
:1065C0000E4801F0F1FB20B10DA240F22621FFF7A9
:1065D0000DFD1948002300901A4641F2883117A09A
:1065E00014F0AEFA17490028486004D116A2A02181
:1065F0000420FFF7FBFC1CBDA1590200006C002029
:106600002E2E5C2E2E5C2E2E5C2E2E5C2E2E5C2EC4
:106610002E5C557365725C536572766963655C4187
:10662000706F6C6C6F5C6170705F7372765F6170BD
:106630006F6C6C6F2E6300001D8A03004446555238
:1066400000000000386600202E2E5C2E2E5C2E2EC0
:106650005C2E2E5C2E2E5C2E2E5C557365725C5368
:106660006572766963655C41706F6C6C6F5C6170BC
:10667000705F7372765F61706F6C6C6F2E63000079
:10668000F8B5074611480D46018811480BF03AFF4E
:10669000C01E002486B2ADF8004013E0281BB042B3
:1066A00000D93046ADF8000039196A46094801F0B2
:1066B000DBFB112806D0132804D0002804D1BDF834
:1066C00000000444AC42E9D3F8BD0000265A002083
:1066D000286A0020006C0020F8B500240D4606460C
:1066E000ADF8004013E0281BF42800D9F420ADF8E1
:1066F000000031196A46074801F0DAFB112806D07C
:10670000132804D0002804D1BDF800000444AC4292
:10671000E9D3F8BDE872002000B587B0142101A8C4
:10672000FCF772FF9DF8110001A920F00F00401C3A
:1067300020F0F00010308DF811009DF8120020F0CC
:106740000F00401C20F0F00010308DF812009DF872
:10675000130020F00F00401C20F0F00010308DF8E6
:1067600013001348019001208DF8080000200390C9
:1067700064208DF810000F4801F0BEFB20B10EA27E
:1067800040F2B351FFF732FC1848002300901A463C
:1067900041F2883116A014F0D3F91749C86120B925
:1067A00016A280210420FFF721FC07B0002000BDC5
:1067B00033710200E87200202E2E5C2E2E5C2E2EED
:1067C0005C2E2E5C2E2E5C2E2E5C557365725C53F7
:1067D0006572766963655C434F445C6170705F739A
:1067E00072765F636F642E6300000000118C0300FB
:1067F00044465552000000006C6600202E2E5C2E90
:106800002E5C2E2E5C2E2E5C2E2E5C2E2E5C557356
:1068100065725C536572766963655C434F445C6185
:1068200070705F7372765F636F642E6300000000A8
:10683000F8B500240D460646ADF8004013E0281BCD
:10684000142800D91420ADF8000031196A46074811
:1068500002F048FD112806D0132804D0002804D1E6
:10686000BDF800000444AC42E9D3F8BDD46D00206B
:10687000F8B500240D460646ADF8004013E0281B8D
:10688000142800D91420ADF8000031196A460748D1
:1068900002F04CFD112806D0132804D0002804D1A2
:1068A000BDF800100C44AC42E9D3F8BDD46D002013
:1068B0001CB51048019001A90F4802F077FB20B1E8
:1068C0000EA240F2A911FFF791FB1A480023009095
:1068D0001A4641F2883118A014F032F9174948607D
:1068E00028B917A240F216210420FFF77FFB0020F1
:1068F0001CBD000089200300D46D00202E2E5C2ECC
:106900002E5C2E2E5C2E2E5C2E2E5C2E2E5C557355
:1069100065725C536572766963655C4E726635328A
:106920005C6170705F7372765F6E726635322E6373
:1069300000000000B18A030052535400406600205A
:106940002E2E5C2E2E5C2E2E5C2E2E5C2E2E5C2E81
:106950002E5C557365725C536572766963655C4E37
:10696000726635325C6170705F7372765F6E7266EC
:1069700035322E63000000001CB50F48019001A9BC
:106980000E4802F0BBFD18B10DA28F21FFF72EFBC0
:106990001948002300901A464FF4FA7117A014F01A
:1069A000CFF818490028086004D1174A3D21042077
:1069B000FFF71CFB1CBD0000419E03006871002016
:1069C0002E2E5C2E2E5C2E2E5C2E2E5C2E2E5C2E01
:1069D0002E5C557365725C536572766963655C57AE
:1069E00065636861745C6170705F7372765F776510
:1069F000636861742E630000058C0300574543549F
:106A00000000000060660020B49E0300F8B500247A
:106A10000D460646ADF8004013E0281B142800D9A7
:106A20001420ADF8000031196A46074802F0F4FD61
:106A3000112806D0132804D0002804D1BDF8000086
:106A40000444AC42E9D3F8BD68710020F8B50024D5
:106A50000D460646ADF8004013E0281B142800D967
:106A60001420ADF8000031196A46074802F0FBFD1A
:106A7000112806D0132804D0002804D1BDF8000046
:106A80000444AC42E9D3F8BD6871002010B50FF0A2
:106A9000FBFA017B002905D001688268BDE810403F
:106AA0000846104710BD000038B5046800251AB12B
:106AB00010B1207B20B901E0072038BD606808B123
:106AC000082038BD00202060A060E06069B101208E
:106AD000A26008490246009123464FF47A7106A04D
:106AE00014F02EF8606010B102E00020F0E70E25EF
:106AF000284638BD8D6A0200200000002DE9FC41C7
:106B0000466815460F46044656B1207B002809D03A
:106B1000304614F07DF8002804D00020BDE8FC8148
:106B20000820FBE7EFF30580256008B300250195F9
:106B300001AB3A4609213046009514F041F801288E
:106B40002BD113F0E1FE024601AB06213046009541
:106B500014F036F8012820D1019800B311494FF004
:106B60008050086040BFBFF34F8FBFF36F8F16E0B8
:106B7000022500233A4604213046009514F020F8FF
:106B800001280AD113F0BAFE024600230121304643
:106B9000009514F015F8012801D00420BEE701206B
:106BA0002073BAE704ED00E07CB504464068002598
:106BB00000280CD0EFF30581B9B1019501AB00229B
:106BC0000821009513F0FCFF012817D101E00820EF
:106BD0007CBD0198A0B10C494FF08050086040BFC7
:106BE000BFF34F8FBFF36F8F0AE0022100230091A4
:106BF0001A46032113F0E4FF012801D004207CBDD4
:106C0000257300207CBD000004ED00E010B50248B3
:106C10000CF086FA002010BD3468002070B50B4ED1
:106C200001460B48B578FFF741FA04465DB10020F4
:106C3000B070711C0122C81D0CF0C4F818B105A277
:106C4000D521FFF7D3F9204670BD00002C68002045
:106C50005CC900202E2E5C2E2E5C2E2E5C2E2E5C0F
:106C60002E2E5C2E2E5C636F6D706F6E656E74736E
:106C70005C6C69627261726965735C756172745C87
:106C80006170705F756172745F6669666F2E630014
:106C9000F0B5284E89B01F460D00044672603BD007
:106CA000A888296882B22448FFF70BFA002834D15B
:106CB000A889A96882B220481030FFF702FA00289C
:106CC0002BD120221D496846FCF785FC606906909F
:106CD000207C00B101208DF814008DF81C70607CC0
:106CE00000B10E208DF81500E0680290A0680390B6
:106CF00020680190606800900E48114A694608308B
:106D00000CF02CF8002808D1B0702068401C04D08A
:106D10009DF81D0018B106E0072009B0F0BD054838
:106D200008300CF0A7F803490122491CC81D0CF0DB
:106D300049F8F2E72C6800205CC9002028B4030061
:106D40007D93030010B501460B48FFF7CAF9040014
:106D500010D10A480CF0D8F960B90849064808393A
:106D6000FFF7A4F930B905490122083903480CF0AE
:106D700045F90446204610BD6CC900203468002047
:106D800030B5EFF3108172B60D4A9468012324B137
:106D90000370002900D162B630BD93604FF0E0234C
:106DA000D3F88051074C25401560C3F88041D3F8D3
:106DB000844154605A17C3F8842100220270E8E726
:106DC00024BD0020FC06FFBD0B498A68002A11D0B3
:106DD00000280FD1EFF3108072B60B684FF0E0225D
:106DE000C2F800314B68C2F8043100228A600028E2
:106DF00000D162B67047000024BD002002A24FF40B
:106E0000BE71FFF7F3B800002E2E5C2E2E5C2E2EE6
:106E10005C2E2E5C2E2E5C2E2E5C557365725C53A0
:106E20006572766963655C414E43535C6170705F67
:106E30007372765F616E63732E6300002DE9F0411B
:106E4000064608680C46411C4FF0A0474FF001056C
:106E500006D005FA00F1C7F8081520680CF06EFBA3
:106E60006068411C02D000210CF055FB30792049AC
:106E700001EB4010A169007F00283068C0F824159C
:106E800025D0607D227D31681043C1F86C05D4E9BE
:106E900000123068C0F80C15C0F8142524E0A06872
:106EA000411C02D000210CF036FBE068411C05D0EB
:106EB0008540C7F80855E0680CF040FBD4E90212A1
:106EC0003068C0F80825C0F81015BDE8F081607D75
:106ED000217D32680843C2F86C05D4E9001230689D
:106EE000C0F81425C0F80C15207D0128D7D0ECE798
:106EF0009CBC002070B50446D0F8D000D4F80051F6
:106F0000082303EB0515455BB4F8E40085420FD96F
:106F1000B4F8FC50A8420BD21068451C15600A5CFE
:106F2000B4F8E400D4F80451411CA4F8E4102A5445
:106F3000B4F8E400B4F8FC10884209D0D4F8002179
:106F4000D4F8D01003EB0212895A491E814229D18C
:106F5000FC3494E80E00FC3C204600F025F828B1F3
:106F6000B4F8E420D4F8041100208854B4F8E40004
:106F7000B4F8FC10884201D2072070BDFC3494E8BC
:106F80000E00FC3C204600F00FF818B1216804F117
:106F9000EC0088472046FEF7D6FB08B1082070BDFC
:106FA000032070BD062070BDD0F8D00000EB0210A9
:106FB0000078012800D00020704710B50446106802
:106FC000431C1360085CB4F8FC1051EA0020A4F8DC
:106FD000FC004FF00001A4F8E41010D054F8D00FDA
:106FE0000822216B02EB0112825A32B10C2202EB11
:106FF0000111405808B1062010BD072010BDFC3417
:1070000094E80E00FC3C2046FFF7CEFF18B1216843
:1070100004F1EC0088472046FEF795FB08B10820F4
:1070200010BD032010BD00002DE9F0470746008881
:107030008EB0804601F044F8064640460AF044FB14
:10704000824604462E4800252A460178404601F033
:10705000A1F8002E50D07879400734D501254FF69D
:10706000FF7603AB2A46072150460DF00DFE0100C6
:1070700004D040460FF0D8FD00252BE0B146314644
:1070800004980AF075FA064648450FD004460146B2
:1070900040460AF003FB4046FEF75CFB30B9404631
:1070A0000FF094FD4046FEF755FB48B122460721FC
:1070B00050460DF05FFE010003D040460FF0B4FDD6
:1070C00000254E4506D040460DF0C2FF10B1504697
:1070D0000AF0E6FA02208DF81800ADF81A807879E7
:1070E000400701D5012000E002208DF820008DF836
:1070F000215006A809F0FAF80EB0BDE8F0870000AC
:10710000AC6700207CB505460C46802C03D3A4F167
:107110008000C4B202E004F18000C4B201200190FA
:107120000020012301AA21460090284609F0E2FE32
:107130007CBD0878002808D0012806D0022804D198
:107140008A8989681A2011F0FDB870472DE9F0434B
:107150000546007D93B00E460024A0B107949DF82B
:107160001C0020F00F00401C20F0F00010308DF8C3
:107170001C00707B8DF81D009DF81E0020F006009D
:10718000801C8DF81E001C216846FCF73DFA9DF816
:10719000000040F00A008DF80000297D11B140F098
:1071A000100001E020F010008DF80000019403941D
:1071B0000494287D00B107A8CDE9050401278DF8C6
:1071C000427042F61920ADF840000D94B07B8DF866
:1071D0003400F07B8DF835009DF83600142120F046
:1071E0000600801C20F0180040F001008DF83600E9
:1071F000307B8DF8440008A8FCF706FAF420ADF8BF
:107200002C000DF140080DF13409ADF8287011A8DB
:10721000CDE90889ADF82A400C90A888AB1D08AAD2
:107220006946A2DF002838D1B06898B38DF8427063
:1072300042F60810ADF840000D94307C8DF8340013
:107240009DF8350020F0FF008DF835009DF83600E0
:1072500020F00600801C20F019008DF836000EA8E2
:10726000B16802F087F80646142108A8FCF7CCF9AB
:10727000ADF828600EA8CDE90889ADF82A40ADF830
:107280002C600C90E88805F10E0208A9A3DF002805
:1072900003D101E0FFE7EC81002013B0BDE8F083EB
:1072A0002DE9FC47002517880646158090F82D002B
:1072B0001446894630B13A462146484601F0FEF868
:1072C000050009D1B0784FF00C0A18B32088C846E1
:1072D000001DB84202D95046BDE8FC87684679DFF8
:1072E0000028F9D12088032108F8001020881921EE
:1072F000401C80B2208008F800102088401C80B21A
:10730000208000EB0801BDF8000012F08EF9218802
:1073100008442080F0780222C8B1218896F9033011
:1073200001F1030C4846BC45D5D8425421884FF0A2
:10733000010C491C89B2218000F801C02188491C38
:1073400089B2218009F801302088401C20807068B3
:10735000B8B1218890F9003001F1030C4846BC45D2
:10736000B9D8425421880A22491C89B2218042544A
:107370002188491C89B2218009F801302088401CED
:107380002080308950B1CDE900474B4606220221CA
:1073900006F1080012F002FA05009DD1308A50B1C2
:1073A000CDE900474B460722032106F1100012F0F9
:1073B000F5F9050090D1308B50B1CDE900474B462F
:1073C0001522142106F1180012F0E8F9050083D106
:1073D000306A30B13B462246494607F06BFE050055
:1073E000DBD1706A30B13B46224649460AF07EFD49
:1073F0000500D2D196F82C0038B13B4622464946CA
:1074000030460FF08DFC0500C7D1307838B13B46CF
:107410002246494630460AF09BFD0500BDD128466C
:107420005AE7F0B50C4693B01F210726ADF80010BF
:10743000ADF80410002750B1C17849070DD56A4650
:1074400002A9FFF72DFF002808D102AD02E00025B8
:10745000ADF800706CB1E07810B1304613B0F0BDFB
:1074600001AA0AA92046FFF71BFF0028F6D10AAAA5
:1074700002E00022ADF80470BDF80400C3B2BDF80C
:107480000000C1B2284672DFE8E700000149002091
:107490000870704764670020014901200870704738
:1074A0006467002080F824107047000008B59DF83C
:1074B000002022F00F02521C22F0F00210328DF850
:1074C00000200A46014668467CDF20B1084A40F2A7
:1074D000D721FEF78BFD0749A1F13C00FFF7A1FF83
:1074E000002804D0024A40F2D921FEF77FFD08BDF2
:1074F00018BC030030B5002070B50D00044653D011
:10750000F4B3012020700026E670202205F17801F6
:10751000201DFCF760F884F82460D5F89800C4F8C2
:10752000CC00D5F89C00C4F8D0004FF6FF70A4F84A
:10753000C800C4F82560A4F8296084F82B6004F121
:1075400030003C210646FCF75FF8287884F83000CC
:10755000A87884F83200E87884F83300687884F8F2
:107560003100D5E90401C4E91001D5E90201C4E9FB
:107570000E01D5E90601C4E9120195F82D0000E0DD
:1075800012E084F85D00686AD8B104F1780104F172
:107590006C0061676065696A09880180686A616D6D
:1075A00080888880002008E00E2070BD696A22185B
:1075B0008968095C82F87810401C616D8988814275
:1075C000F4D8A86AE8B104F1A400C4F8A0000C380B
:1075D000A065A96A89888180A86AA16D0088088051
:1075E000002006E0A96A22188968095C82F8A410C4
:1075F000401CA16D89888142F4D895F82C0084F84C
:107600005C00286A48B104F1C4002065296A4988F1
:107610004180286A216D00880880686800B1606335
:107620003C2231460848FBF7D6FF074805F13C01EC
:107630003C220C463C30FBF7CEFF21463046BDE8ED
:107640007040FFF7EEBE0000F4B4002010B50388D0
:10765000102B1ED01A4A112B127821D01B2B1ED1B1
:10766000002A1CD0007A0C46002818D1E0780521A9
:10767000401CB0FBF1F201FB1201204600F03BF888
:1076800000280CD0D4F8D010002908D0BDE8104054
:107690000847C27B012A02D18088A1F8C80010BD2A
:1076A0000C46002184F8D410002AF8D08088B4F861
:1076B000C8108842F3D120790028F0D10121DCE7FD
:1076C0006467002010B50C46022801D0032811D1B0
:1076D000607800280ED000206070E178204600F02D
:1076E0000AF8002806D0D4F8D010002902D0BDE84E
:1076F0001040084710BD2DE9FF47044600780F46AB
:1077000038B1E77000200BF0D1FD012628B166707A
:10771000D2E0082004B0BDE8F0870025C4F8255069
:10772000A4F8295084F82B50A07910B1E0780128F2
:1077300006D0E07970B1E078012801D0022809D1A3
:10774000D4F8CC1021B184F82C600820884701E0DF
:1077500084F82C5004F1260100200A5C0AB130465E
:1077600003E0401C0628F8D300204FF002084FF039
:10777000030A4FF00409012F06D0022F09D0032F6E
:107780000CD0042F12D10DE0A17911B108B130460F
:107790000DE0E17911B108B1404608E0207A08B166
:1077A000504604E0607A08B1484600E02846E070A0
:1077B000D4F8CC1041B1032801D0042804D1607959
:1077C00010B194F8D400A8B184F8D5500095029572
:1077D000019503958DF800508DF80850E17804F17B
:1077E000250004F13002052958D2DFE801F0670ACC
:1077F000131F3B0084F8D65084F8D56007208847D3
:10780000E4E7A67001908DF80060ADF80C50ADF87B
:107810000A5043E084F8028001908DF80060208ACD
:10782000ADF80C00A089ADF80A0037E0A08AADF8E9
:107830000A00208BADF80C00607980B194F8D40078
:1078400068B994F8D60050B18DF8088084F8339068
:1078500000211046FFF7E5FD00BB05211AE084F882
:1078600002A01BE0A08BADF80A00208CADF80C0044
:10787000607988B194F8D40070B994F8D60058B102
:107880008DF8088084F8339000211046FFF7C9FD79
:1078900020B90621A17001E084F80290E07830B1AF
:1078A00094F82410684673DF00287FF433AFD4F8CF
:1078B000CC1009B1A078884700202BE7A570F6E727
:1078C000C18E0089002201F04FBFC18E00890122C4
:1078D00001F04ABF2DE9F04701460369614CD1E947
:1078E0000520A060C4E900325F4D00234FF0040979
:1078F00012B3012A75D0022A70D0032A6FD0042A4D
:107900006ED0052A1BD12188002918D0AA78002A18
:1079100015D0AB70102901D9102121808AB20146FF
:1079200050481530FBF757FEBDE8F0474D49DD22C2
:107930000C310E2010F006BD897A11B1AB70BDE894
:10794000F08721880029FAD0DFF82081454F0126F1
:1079500098F800100C3701290AD145A1FBF75FFE0A
:1079600030B1DD213846FBF74FFE05203872AE708E
:1079700098F8010001280CD140A1A068FBF74FFE48
:1079800038B13848DD210C30FBF73EFE022038725A
:10799000AE7098F8020001280CD13BA1A068FBF75B
:1079A0003EFE38B12F48DD210C30FBF72DFE0320C1
:1079B0003872AE7098F803000128C0D135A1A068D4
:1079C000FBF72DFE0028BAD02648DD210C30FBF74E
:1079D0001BFE87F80890AE70B1E702E010E01EE0F1
:1079E0002CE021880029AAD0AA78002AA7D0402913
:1079F00001D9402121808AB201461A4825302CE065
:107A0000218800299BD0AA78002A98D0202901D962
:107A1000202121808AB20146124865301DE021886C
:107A200000298CD0AA78002A89D0602901D9602148
:107A300021808AB201460B4885300EE0218800295A
:107A4000CAD0AA78002AC7D0042902D94946A4F886
:107A500000908AB201460348E530BDE8F047FBF7E5
:107A6000BABD00007070002050660020B46600208F
:107A70006D6F62696C6570686F6E650074656E63CA
:107A8000656E742E78696E0074656E63656E742E13
:107A90006D7171004D6F62696C65534D530000004C
:107AA00070B5040045D0E9B30868D8B3002084F865
:107AB000DC00C4F8E000A4F8E400C4F8E8000868BA
:107AC0002060486860604FF6FF70208142F6021027
:107AD0002087208504F10A0032210546FBF794FD3A
:107AE00011F0B0FA04F10C01134862DF002821D133
:107AF000114804F11401103062DF00281AD10E4839
:107B000004F11E01203062DF002813D10A4804F17D
:107B10002E01303062DF00280CD14FF231406081FD
:107B2000207B00E005E020732846BDE8704000F0AF
:107B30003BBC0E2070BD0000ECB10300C18C00897D
:107B4000002201F011BEC18C0089012201F00CBE9F
:107B500000B502460088E5B0112838D0382814D086
:107B6000392841D10B4602F10A0091881A899142C5
:107B70003AD101889A8C91421ED1828865B0811DCC
:107B800018465DF804EB0CF03ABF088993889842D8
:107B90002AD1108958B14B8B984208D106208DF814
:107BA0000000D088ADF80C0009686846884765B0C9
:107BB0005DF804EB11F0A2BA9A8E914214D182883A
:107BC00065B0811D18465DF804EBFDF72BBE0889F2
:107BD0009288904202D14FF6FF70088107208DF8FD
:107BE000000009686846884765B000BD30B50B786D
:107BF000E5B001F10E02BBBB8B88A3F57444313CA8
:107C000050D18C79037B9C424CD100233CE000BFD7
:107C100003EBC30432F8145005F6F355B5F50055DF
:107C200023D005F62435B5F540450ED005F6F655BA
:107C3000B5F5005F27D102EB440425685A956568C5
:107C40005B952489ADF870411DE002EB4404256882
:107C5000CDF882516568CDF886512589ADF88A51F5
:107C60006489ADF88C410EE01CE002EB4404256809
:107C7000CDF872516568CDF876512589ADF87A5105
:107C80006489ADF87C415B1C0C7A9C42C0D8002210
:107C90008DF800204988ADF80210016868468847D1
:107CA00065B030BD01218DF80010F6E770B58AB0DF
:107CB0000E46044624216846FBF7A6FC0020C4F8C3
:107CC000CC00618BADF81A1001A9089101218DF843
:107CD0001810ADF81C006D468DF80400691D304683
:107CE00011F0A8FC0021022610F1010004EB0112A2
:107CF00092F83C30012B14D12B18401C197101292A
:107D000003D0022901D0032906D1B2F844302A1841
:107D100013711B0A5371801CD4F8CC20521CC4F878
:107D2000CC20491C0829E1D3ADF81E002089ADF80C
:107D300000008DF80260D4F8CC00C4F8D800684682
:107D400011F088F911F0DAF90AB0002070BD01795C
:107D500011B980790C2801D30720704700207047A3
:107D60001FB560B1838AA3F57F44FF3C09D0C37D72
:107D70003BB11388F72B06D9072004B010BD0E20A5
:107D8000FBE70820F9E70023009301930293039394
:107D90008389CDE90221ADF8003001218DF8021070
:107DA000808A6946A6DFE8E730B5174B0D46040028
:107DB0000FCB85B08DE80F0023D015B34FF6FF70C1
:107DC000A0822868A0610020A0752146684662DF75
:107DD000002814D120788DF812000120ADF8100091
:107DE000A21C04A9A0DF002809D12946204611F0D1
:107DF0000FFA002803D12946204608F083FD05B07C
:107E000030BD0E20FBE7000084AD03001FB50A0063
:107E1000014616D0002914D010460A88102A11D025
:107E2000112A13D0502A18D0572A0AD10D4B01AC71
:107E30001968D3E90223009184E80D00816968463E
:107E400088471FBD89888182042103E04FF6FF71B6
:107E5000818205218DF80010F0E704B0BDE81040E4
:107E60000CF0CDBB74AD03001FB560B1838AA3F5E0
:107E70007F44FF3C09D0837D3BB11388F72B06D9A3
:107E8000072004B010BD0E20FBE70820F9E700230F
:107E900000930193029303938388CDE90221ADF807
:107EA000003001218DF80210808A6946A6DFE8E7DC
:107EB0001FB560B1438AA3F57F44FF3C09D0037D21
:107EC0003BB11388F42B06D9072004B010BD0E2057
:107ED000FBE70820F9E70023009301930293039343
:107EE000C388CDE90221ADF8003001218DF80210E0
:107EF000408A6946A6DFE8E738B50D4604001BD086
:107F0000D5B1286820604FF6FF706082287920750F
:107F1000FF20207401208DF8020041F60F00ADF81B
:107F20000000221D69460120A0DF002803D1294658
:107F30002046FFF70BF938BD0E2038BD1FB50029CC
:107F400026D0002824D00288102A1CD0112A1CD048
:107F5000502A1DD10C46097D002919D0821DC188E7
:107F600063891230994202D15389022B11D0E388E0
:107F700099420DD1216800290AD002905089ADF8AC
:107F80000C0002200EE0808801E04FF6FF7048826E
:107F90001FBD21680029FBD001F0A0F908B1002025
:107FA00000E001208DF800002268694620469047D5
:107FB0001FBD00002DE9F0410D46074643F20206C1
:107FC00009F030FC044605B9094D6CB12946384624
:107FD00075DF060008D16072012020722868C4F89D
:107FE0000A006868C4F80E003046BDE8F081000061
:107FF0006667002070B5040012D001461C221448A8
:10800000FBF7E9FA1248134D0560206850B17ADF9A
:10801000002806D12068016829604068686005E092
:108020000E2070BD0B487BDF0028FAD108484FF6C0
:10803000FF711438084A20F8041B054934390160DF
:108040000021FEF731FD0028EBD0032070BD0000B9
:10805000A0B50020666700201D970300074810B5F3
:108060004068FEF7A1FD38B1042803D0082803D0EA
:10807000032010BD112010BD002010BD8CB50020C4
:1080800002494A6C091D0EF047BC0000BCB5002037
:1080900002460248016D001D0EF02BBCBCB500204D
:1080A00002460248416D001D0EF023BCBCB5002005
:1080B0000249C86C896C08400EF053BCBCB5002066
:1080C00070B50A4E054600242A46301D716C0EF02C
:1080D00010FC40B12A46301DF16C0EF00AFC08B1CC
:1080E000022400E00124204670BD0000BCB5002041
:1080F00070B50A4E054600242A46301D716C0EF0FC
:10810000F8FB40B12A46301DB16C0EF0F2FB08B10D
:10811000022400E00124204670BD0000BCB5002010
:1081200010B50024204611F02DFB28B1641CE4B2E8
:10813000182CF7D3182010BD03480122A240016873
:1081400011430160204610BDBCB5002010B50446A7
:1081500011F018FB002803D0024800EB8400806D6A
:1081600010BD0000BCB5002070B505460C460846A1
:1081700011F008FB002809D005482A4600EB8401CD
:10818000001D896DBDE870400EF0B3BB70BD0000EE
:10819000BCB5002070B5064615460C46084611F0E1
:1081A000F1FA00280AD006482B4600EB840132463B
:1081B000BDE87040001D58310EF0E2BB70BD0000FC
:1081C000BCB5002010B5094CA078012802D00228C7
:1081D00009D103E000221146012002E000221146ED
:1081E000022010F0AFF80020A07010BD205A00202F
:1081F00008B5024664210448009100230421006967
:1082000012F0DEFC08BD0000205A002008B56420F2
:108210000090094800231A460321006912F0D0FC9F
:10822000012807D0BDE8084004A240F27D110420D7
:10823000FDF7DCBE08BD0000205A00202E2E5C2E6B
:108240002E5C2E2E5C6D61696E2E630070B518B3C6
:108250000288A2F57F41FF391CD0104C4388104D95
:10826000206800EB8001401C00F00700206005EB57
:10827000810102204B81C881081D086100248C8186
:108280000120087208714C710A80887010F012FF8A
:10829000204670BD082070BD0E2070BD9466002081
:1082A0000073002030B1018012B11168C0F80210D3
:1082B000002070470E20704708B598B191B1012297
:1082C0008DF8022041F61602ADF8002009688160A1
:1082D0004FF6FF710180002141808180684600F0E7
:1082E00063F808BD0E2008BD0A0001461BD0002916
:1082F00019D010460A88112A0BD0382A03D0392AFF
:1083000011D10BF0C5BD0088898888420BD110F0CF
:10831000D1BE028889888A4205D14FF6FF7101805B
:10832000002141808180704730B50A7885B0002AED
:1083300037D18A88A2F5C053163B32D18A79012AF7
:108340002FD14A88ADF80220002242F65B240B7A36
:1083500013E000BF02EBC20501EB4505ED89A54224
:108360000AD102EBC20201EB42010A8BADF80420F4
:10837000C98AADF8061002E0521C9342EAD801887F
:10838000A1F57F42FF3A06D0418821B9818811B911
:108390000199C0F8021001218DF800108268694629
:1083A000904705B030BD000070B540B10C4D297844
:1083B00039B104460EF01EF928B1002070BD0E2020
:1083C00070BD082070BDE868062807D205492268FC
:1083D00001EB8001401C0A60E860EEE7042070BDFC
:1083E000CC670020D0B8002040B10549002201230D
:1083F000CA600B70C1E90102104670470E20704739
:10840000CC67002070B504002DD000292BD0204867
:108410000078002827D020880D46112815D0302854
:1084200004D0322807D033281ED109E0211D284668
:108430000BF07CFE18E0211D28460BF069FB13E0D1
:10844000211D28460BF056FC0EE0A088B5F8CA1294
:10845000884209D1002085F8C70285F8C8024FF686
:10846000FF70A5F8CA0270BD95F8C8020028FAD0BE
:1084700020883028F7D34F28F5D8A088B5F8CA123D
:108480008842F0D12846BDE8704007F02BB90000C3
:10849000CC67002048B1084A137843B1D26832B1A2
:1084A00090F8C7222AB1112070470E20704708208B
:1084B000704707F017B90000CC6700207CB505466F
:1084C00008880C460930904201D90C207CBD6846D2
:1084D0006DDF0028FAD121880820685420881B21EC
:1084E000401C80B2208029542088401C80B220800B
:1084F0002844DDF801100160BDF805108180208856
:10850000801D80B220809DF80010490800D0012114
:1085100029542088401C208000207CBD10B50AF022
:10852000F7F9002809D105484FF0030C00DF0028B7
:1085300003D1BDE810400AF0F5B910BD04BC00201D
:1085400018B103490860002070470E2070470000F2
:10855000DC67002010B54FF0FF3100203BDF002822
:108560000BD1B1213ADF002807D10448416901202D
:10857000884702200BF05AF8002010BDE8BB00200D
:10858000044810B50068416900208847BDE81040E4
:10859000FFF7E0BFDC67002030B58FB005461C2137
:1085A00001A8FBF731F80024142109A80894FBF76F
:1085B0002BF89DF82000009420F00F00401C20F0C4
:1085C000F00010308DF820009DF82100029420F07A
:1085D0000F00401C20F0F00010308DF821009DF8B5
:1085E0002200049420F00600801C8DF822009DF8E3
:1085F000040009AA40F028008DF8040008A8CDE97D
:108600000540079428788DF83A000320ADF838002B
:108610009DF80000ADF82C4020F00F00401C20F029
:10862000F00010308DF800009DF80100ADF82E40EC
:1086300020F00F00401C20F0F00010308DF80100F9
:108640009DF802000D9420F00600801C20F0080028
:1086500040F011008DF802000EA809901720CDF807
:1086600028D0ADF830006888AB1D01A9A2DF0FB09B
:1086700030BD000010B5164C86B01ECC8DE81E0033
:1086800020B3144C4FF6FF71A18000686061002098
:10869000607620762046FFF753FF002814D1012092
:1086A0008DF812004FF65960ADF81000A21C04A915
:1086B0000120A0DF002807D12146684662DF00289C
:1086C00002D12046FFF768FF06B010BD0E20FBE781
:1086D000C0B30300E8BB002010B500280FD001880C
:1086E0001B4C502926D00BDC10291DD0112906D196
:1086F000A1888088814202D14FF6FF70A08010BD12
:10870000512913D05329FAD1C088E1888842F6D183
:10871000607E0028F3D0FFF733FF0028EFD06169B7
:10872000BDE81040022008478088E7E7BDE8104018
:108730000BF042BD30F8061F62899142DFD14189BA
:108740000229DCD10C3000F0C5FD207610BD000000
:10875000E8BB00202DE9F0410546007B0426234CB0
:108760004FF0010801280FD002281FD00226287BD5
:108770004FEA060100F064F8002832D02068416911
:10878000BDE8F0410320084720680027817E11B131
:1087900006210120EEE780F819800121084600F04B
:1087A0004FF800281DD020684776E0E76A7B142A3E
:1087B00019D8C2B10E4F05F10E01381DFAF70BFFA3
:1087C000687BB86121683846897E0029CFD1A0F145
:1087D0000C010A68011F90470028C8D1216881F860
:1087E0001A80BDE8F0810526C1E70000DC670020A3
:1087F00010BC002070B5104900250A68002A19D065
:108800004A68002A16D008319047112812D00B4C24
:108810000028206885760BD00421022000F010F893
:10882000002807D020684169BDE870400320084750
:108830000121F2E770BD000004BC0020DC670020CD
:1088400086B00323ADF8003020238DF814308DF866
:10885000150000220E48019202928DF81610C18870
:10886000ADF8041002218DF8061005A90491ADF8A9
:108870000820CDF80CD0808801A9A6DF002804D1FB
:10888000BDF80010032900D00C2006B0704700008E
:10889000E8BB0020704700002DE9F84F04468088AF
:1088A000FFF70EFC20884FF000081D284ED02BDC6F
:1088B0008E4D12283BD017DC012871D0DFF83092A2
:1088C0008C4EDFF834A24FF4AF77102869D011280E
:1088D0002DD1A088E9884FF6FF74884262D1EC80E0
:1088E000FFF794FC0220AEE0152850D019281ED1C5
:1088F000207A00281BD0882819D10022114619207F
:10890000BDE8F84F0FF01EBD232810D011DC1F2842
:108910002ED021280BD1CDF80080A08869468FDFAA
:10892000002804D075A240F2D551FDF75FFBBDE8E9
:10893000F88F3B2877D05628F9D1A088132176DF0D
:108940000028F4D06DA240F2E651CBE02F2204F1D2
:1089500008016E48FAF73FFE6D48016821B101B089
:108960006A48BDE8F04F08472F226849012048E0D7
:10897000A088FFF7A5FB0228D9D104F10801A0883F
:1089800075DF0028D3D05DA240F22151AAE0A06893
:1089900068615649A0892883062214310420AFE774
:1089A00098E032E0B9F80010884209D1002211465F
:1089B00014200FF0C7FC89F81680A9F8004018E0D1
:1089C0003188884208D10022114613200FF0BAFCEA
:1089D00086F8168034800CE0BAF8001055468842BC
:1089E000A5D10022114615200FF0ACFC85F81680A9
:1089F0002C80FFF75DFBC0B2032898D200221146FD
:108A00000220BDE8F84F0FF073BAE07B01280BD0CD
:108A100004F109000025062209F103010746FAF7CF
:108A200017FEB0B123E04CE085F80080D4F80900CF
:108A3000C5F82100B4F80D00A5F82500A088E8804D
:108A4000FFF7E4FB0120A8703846BDE8F84FFFF7B8
:108A5000CFBBA088A9F800000022114611200FF01A
:108A600071FC0022114605200FF042FA0125062272
:108A7000F11C3846FAF7ECFD60B9A088308000227E
:108A8000114610200FF05EFC0022114604200FF06A
:108A90002FFA012556460622F11C3846FAF7D8FD72
:108AA00010B1002DA5D142E7A088308000221146E8
:108AB00012200FF047FC0022114606200FF018FA92
:108AC00097E7A088132176DF0028ECD00BA240F2B4
:108AD000DE5107E0A088002166DF0028E3D007A26E
